{
  "address": "0x25F90a117832f175D302ad291DeDa0327462cCc9",
  "abi": [
    {
      "inputs": [],
      "stateMutability": "nonpayable",
      "type": "constructor"
    },
    {
      "anonymous": false,
      "inputs": [
        {
          "indexed": true,
          "internalType": "address",
          "name": "owner",
          "type": "address"
        }
      ],
      "name": "AcceptNewOwnership",
      "type": "event"
    },
    {
      "anonymous": false,
      "inputs": [
        {
          "indexed": true,
          "internalType": "address",
          "name": "futureOwner",
          "type": "address"
        }
      ],
      "name": "CommitNewOwnership",
      "type": "event"
    },
    {
      "inputs": [],
      "name": "acceptTransferOwnership",
      "outputs": [],
      "stateMutability": "nonpayable",
      "type": "function"
    },
    {
      "inputs": [
        {
          "internalType": "address",
          "name": "newOwner",
          "type": "address"
        }
      ],
      "name": "commitTransferOwnership",
      "outputs": [],
      "stateMutability": "nonpayable",
      "type": "function"
    },
    {
      "inputs": [],
      "name": "futureOwner",
      "outputs": [
        {
          "internalType": "address",
          "name": "",
          "type": "address"
        }
      ],
      "stateMutability": "view",
      "type": "function"
    },
    {
      "inputs": [],
      "name": "owner",
      "outputs": [
        {
          "internalType": "address",
          "name": "",
          "type": "address"
        }
      ],
      "stateMutability": "view",
      "type": "function"
    }
  ],
  "transactionHash": "0x3408d48df8e057e5b825f4771fca1bc37636dd31207d69f4524003b18ddf8c0a",
  "args": [],
  "numDeployments": 1,
  "solcInputHash": "ffcafb6737a44618830fadbcabd1d1da",
  "bytecode": "0x608060405234801561001057600080fd5b50600080546001600160a01b03191633908117825560405190917f405c0e6e5e78abd3919565924321c67e70f1b0f989c4ac8cd327269a73c42d6e91a26103198061005c6000396000f3fe608060405234801561001057600080fd5b506004361061004c5760003560e01c80637b371107146100515780638da5cb5b1461005b578063b9e9d1aa1461009e578063e1cebf0b146100bc575b600080fd5b6100596100cf565b005b60005473ffffffffffffffffffffffffffffffffffffffff165b60405173ffffffffffffffffffffffffffffffffffffffff909116815260200160405180910390f35b60015473ffffffffffffffffffffffffffffffffffffffff16610075565b6100596100ca3660046102a6565b6101b6565b60015473ffffffffffffffffffffffffffffffffffffffff163314610155576040517f08c379a000000000000000000000000000000000000000000000000000000000815260206004820181905260248201527f43616c6c6572206973206e6f7420616c6c6f77656420746f206f70657261746560448201526064015b60405180910390fd5b60008054337fffffffffffffffffffffffff0000000000000000000000000000000000000000918216811783556001805490921690915560405190917f405c0e6e5e78abd3919565924321c67e70f1b0f989c4ac8cd327269a73c42d6e91a2565b60005473ffffffffffffffffffffffffffffffffffffffff163314610237576040517f08c379a000000000000000000000000000000000000000000000000000000000815260206004820181905260248201527f43616c6c6572206973206e6f7420616c6c6f77656420746f206f706572617465604482015260640161014c565b600180547fffffffffffffffffffffffff00000000000000000000000000000000000000001673ffffffffffffffffffffffffffffffffffffffff83169081179091556040517f3abe9db6779f8a27a45cfa602f3f6da1b676d51b7b9b9f8e88da494f78dfda5d90600090a250565b6000602082840312156102b857600080fd5b813573ffffffffffffffffffffffffffffffffffffffff811681146102dc57600080fd5b939250505056fea264697066735822122065b2e5f0421ad3540ee00b94a198d4e7224c95a6a66a487d8f9ea31d9681bc8664736f6c63430008170033",
  "devdoc": {
    "kind": "dev",
    "methods": {
      "constructor": {
        "details": "Initializes the contract setting the deployer as the initial owner."
      },
      "owner()": {
        "details": "Returns the address of the current owner."
      }
    },
    "version": 1
  },
  "userdoc": {
    "kind": "user",
    "methods": {},
    "version": 1
  },
  "storageLayout": {
    "storage": [
      {
        "astId": 1971,
        "contract": "contracts/Ownership.sol:Ownership",
        "label": "_owner",
        "offset": 0,
        "slot": "0",
        "type": "t_address"
      },
      {
        "astId": 1973,
        "contract": "contracts/Ownership.sol:Ownership",
        "label": "_futureOwner",
        "offset": 0,
        "slot": "1",
        "type": "t_address"
      }
    ],
    "types": {
      "t_address": {
        "encoding": "inplace",
        "label": "address",
        "numberOfBytes": "20"
      }
    }
  }
}