{
  "address": "0x638ec062688d3b1061Cb2F1f4c0e384E8a8974F4",
  "abi": [
    {
      "inputs": [
        {
          "internalType": "address",
          "name": "target",
          "type": "address"
        }
      ],
      "name": "AddressEmptyCode",
      "type": "error"
    },
    {
      "inputs": [
        {
          "internalType": "address",
          "name": "account",
          "type": "address"
        }
      ],
      "name": "AddressInsufficientBalance",
      "type": "error"
    },
    {
      "inputs": [],
      "name": "FailedInnerCall",
      "type": "error"
    },
    {
      "inputs": [],
      "name": "InvalidInitialization",
      "type": "error"
    },
    {
      "inputs": [],
      "name": "NotInitializing",
      "type": "error"
    },
    {
      "inputs": [],
      "name": "ReentrancyGuardReentrantCall",
      "type": "error"
    },
    {
      "inputs": [
        {
          "internalType": "address",
          "name": "token",
          "type": "address"
        }
      ],
      "name": "SafeERC20FailedOperation",
      "type": "error"
    },
    {
      "anonymous": false,
      "inputs": [
        {
          "indexed": false,
          "internalType": "uint64",
          "name": "version",
          "type": "uint64"
        }
      ],
      "name": "Initialized",
      "type": "event"
    },
    {
      "anonymous": false,
      "inputs": [
        {
          "indexed": false,
          "internalType": "address",
          "name": "oldOwner",
          "type": "address"
        },
        {
          "indexed": false,
          "internalType": "address",
          "name": "newOwner",
          "type": "address"
        }
      ],
      "name": "OwnerChanged",
      "type": "event"
    },
    {
      "anonymous": false,
      "inputs": [
        {
          "indexed": false,
          "internalType": "address",
          "name": "newOwner",
          "type": "address"
        }
      ],
      "name": "OwnerNominated",
      "type": "event"
    },
    {
      "anonymous": false,
      "inputs": [
        {
          "indexed": false,
          "internalType": "address",
          "name": "token",
          "type": "address"
        },
        {
          "indexed": false,
          "internalType": "uint256",
          "name": "amount",
          "type": "uint256"
        }
      ],
      "name": "RecoveredERC20",
      "type": "event"
    },
    {
      "anonymous": false,
      "inputs": [
        {
          "indexed": false,
          "internalType": "uint256",
          "name": "reward",
          "type": "uint256"
        },
        {
          "indexed": false,
          "internalType": "uint256",
          "name": "yieldRate",
          "type": "uint256"
        }
      ],
      "name": "RewardAdded",
      "type": "event"
    },
    {
      "anonymous": false,
      "inputs": [
        {
          "indexed": true,
          "internalType": "address",
          "name": "user",
          "type": "address"
        },
        {
          "indexed": false,
          "internalType": "uint256",
          "name": "yieldAmount",
          "type": "uint256"
        },
        {
          "indexed": false,
          "internalType": "address",
          "name": "token",
          "type": "address"
        }
      ],
      "name": "YieldCollected",
      "type": "event"
    },
    {
      "anonymous": false,
      "inputs": [
        {
          "indexed": false,
          "internalType": "uint256",
          "name": "newDuration",
          "type": "uint256"
        }
      ],
      "name": "YieldDurationUpdated",
      "type": "event"
    },
    {
      "inputs": [],
      "name": "PRICE_PRECISION",
      "outputs": [
        {
          "internalType": "uint256",
          "name": "",
          "type": "uint256"
        }
      ],
      "stateMutability": "view",
      "type": "function"
    },
    {
      "inputs": [],
      "name": "acceptOwnership",
      "outputs": [],
      "stateMutability": "nonpayable",
      "type": "function"
    },
    {
      "inputs": [],
      "name": "checkpoint",
      "outputs": [],
      "stateMutability": "nonpayable",
      "type": "function"
    },
    {
      "inputs": [
        {
          "internalType": "address",
          "name": "_user",
          "type": "address"
        }
      ],
      "name": "checkpointOtherUser",
      "outputs": [],
      "stateMutability": "nonpayable",
      "type": "function"
    },
    {
      "inputs": [
        {
          "internalType": "address",
          "name": "_account",
          "type": "address"
        }
      ],
      "name": "earned",
      "outputs": [
        {
          "internalType": "uint256",
          "name": "yieldAmount",
          "type": "uint256"
        }
      ],
      "stateMutability": "view",
      "type": "function"
    },
    {
      "inputs": [
        {
          "internalType": "address",
          "name": "_account",
          "type": "address"
        }
      ],
      "name": "eligibleCurrentVeUNO",
      "outputs": [
        {
          "internalType": "uint256",
          "name": "eligibleVeUnoBal",
          "type": "uint256"
        },
        {
          "internalType": "uint256",
          "name": "storedEndTimestamp",
          "type": "uint256"
        }
      ],
      "stateMutability": "view",
      "type": "function"
    },
    {
      "inputs": [],
      "name": "emittedToken",
      "outputs": [
        {
          "internalType": "contract IERC20",
          "name": "",
          "type": "address"
        }
      ],
      "stateMutability": "view",
      "type": "function"
    },
    {
      "inputs": [],
      "name": "fractionParticipating",
      "outputs": [
        {
          "internalType": "uint256",
          "name": "",
          "type": "uint256"
        }
      ],
      "stateMutability": "view",
      "type": "function"
    },
    {
      "inputs": [],
      "name": "getYield",
      "outputs": [
        {
          "internalType": "uint256",
          "name": "yield0",
          "type": "uint256"
        }
      ],
      "stateMutability": "nonpayable",
      "type": "function"
    },
    {
      "inputs": [],
      "name": "getYieldForDuration",
      "outputs": [
        {
          "internalType": "uint256",
          "name": "",
          "type": "uint256"
        }
      ],
      "stateMutability": "view",
      "type": "function"
    },
    {
      "inputs": [
        {
          "internalType": "address",
          "name": "",
          "type": "address"
        }
      ],
      "name": "greylist",
      "outputs": [
        {
          "internalType": "bool",
          "name": "",
          "type": "bool"
        }
      ],
      "stateMutability": "view",
      "type": "function"
    },
    {
      "inputs": [
        {
          "internalType": "contract IERC20",
          "name": "_emittedToken",
          "type": "address"
        },
        {
          "internalType": "contract IVotingEscrow",
          "name": "_veUNO",
          "type": "address"
        },
        {
          "internalType": "address",
          "name": "_timelock",
          "type": "address"
        },
        {
          "internalType": "address",
          "name": "_owner",
          "type": "address"
        }
      ],
      "name": "initialize",
      "outputs": [],
      "stateMutability": "nonpayable",
      "type": "function"
    },
    {
      "inputs": [
        {
          "internalType": "address",
          "name": "",
          "type": "address"
        }
      ],
      "name": "lastRewardClaimTime",
      "outputs": [
        {
          "internalType": "uint256",
          "name": "",
          "type": "uint256"
        }
      ],
      "stateMutability": "view",
      "type": "function"
    },
    {
      "inputs": [],
      "name": "lastTimeYieldApplicable",
      "outputs": [
        {
          "internalType": "uint256",
          "name": "",
          "type": "uint256"
        }
      ],
      "stateMutability": "view",
      "type": "function"
    },
    {
      "inputs": [],
      "name": "lastUpdateTime",
      "outputs": [
        {
          "internalType": "uint256",
          "name": "",
          "type": "uint256"
        }
      ],
      "stateMutability": "view",
      "type": "function"
    },
    {
      "inputs": [
        {
          "internalType": "address",
          "name": "_owner",
          "type": "address"
        }
      ],
      "name": "nominateNewOwner",
      "outputs": [],
      "stateMutability": "nonpayable",
      "type": "function"
    },
    {
      "inputs": [],
      "name": "nominatedOwner",
      "outputs": [
        {
          "internalType": "address",
          "name": "",
          "type": "address"
        }
      ],
      "stateMutability": "view",
      "type": "function"
    },
    {
      "inputs": [
        {
          "internalType": "address",
          "name": "_user",
          "type": "address"
        },
        {
          "internalType": "uint256",
          "name": "_amount",
          "type": "uint256"
        }
      ],
      "name": "notifyRewardAmount",
      "outputs": [],
      "stateMutability": "nonpayable",
      "type": "function"
    },
    {
      "inputs": [],
      "name": "owner",
      "outputs": [
        {
          "internalType": "address",
          "name": "",
          "type": "address"
        }
      ],
      "stateMutability": "view",
      "type": "function"
    },
    {
      "inputs": [],
      "name": "periodFinish",
      "outputs": [
        {
          "internalType": "uint256",
          "name": "",
          "type": "uint256"
        }
      ],
      "stateMutability": "view",
      "type": "function"
    },
    {
      "inputs": [
        {
          "internalType": "contract IERC20",
          "name": "_token",
          "type": "address"
        },
        {
          "internalType": "uint256",
          "name": "_amount",
          "type": "uint256"
        }
      ],
      "name": "recoverERC20",
      "outputs": [],
      "stateMutability": "nonpayable",
      "type": "function"
    },
    {
      "inputs": [
        {
          "internalType": "address",
          "name": "",
          "type": "address"
        }
      ],
      "name": "rewardNotifiers",
      "outputs": [
        {
          "internalType": "bool",
          "name": "",
          "type": "bool"
        }
      ],
      "stateMutability": "view",
      "type": "function"
    },
    {
      "inputs": [
        {
          "internalType": "bool",
          "name": "_yieldCollectionPaused",
          "type": "bool"
        }
      ],
      "name": "setPauses",
      "outputs": [],
      "stateMutability": "nonpayable",
      "type": "function"
    },
    {
      "inputs": [
        {
          "internalType": "address",
          "name": "_newTimelock",
          "type": "address"
        }
      ],
      "name": "setTimelock",
      "outputs": [],
      "stateMutability": "nonpayable",
      "type": "function"
    },
    {
      "inputs": [
        {
          "internalType": "uint256",
          "name": "_yieldDuration",
          "type": "uint256"
        }
      ],
      "name": "setYieldDuration",
      "outputs": [],
      "stateMutability": "nonpayable",
      "type": "function"
    },
    {
      "inputs": [
        {
          "internalType": "uint256",
          "name": "_newRate0",
          "type": "uint256"
        },
        {
          "internalType": "bool",
          "name": "_isSync",
          "type": "bool"
        }
      ],
      "name": "setYieldRate",
      "outputs": [],
      "stateMutability": "nonpayable",
      "type": "function"
    },
    {
      "inputs": [],
      "name": "sync",
      "outputs": [],
      "stateMutability": "nonpayable",
      "type": "function"
    },
    {
      "inputs": [],
      "name": "timelock",
      "outputs": [
        {
          "internalType": "address",
          "name": "",
          "type": "address"
        }
      ],
      "stateMutability": "view",
      "type": "function"
    },
    {
      "inputs": [
        {
          "internalType": "address",
          "name": "_user",
          "type": "address"
        }
      ],
      "name": "toggleGreylist",
      "outputs": [],
      "stateMutability": "nonpayable",
      "type": "function"
    },
    {
      "inputs": [
        {
          "internalType": "address",
          "name": "_notifier",
          "type": "address"
        }
      ],
      "name": "toggleRewardNotifier",
      "outputs": [],
      "stateMutability": "nonpayable",
      "type": "function"
    },
    {
      "inputs": [],
      "name": "totalVeUNOParticipating",
      "outputs": [
        {
          "internalType": "uint256",
          "name": "",
          "type": "uint256"
        }
      ],
      "stateMutability": "view",
      "type": "function"
    },
    {
      "inputs": [],
      "name": "totalVeUNOSupplyStored",
      "outputs": [
        {
          "internalType": "uint256",
          "name": "",
          "type": "uint256"
        }
      ],
      "stateMutability": "view",
      "type": "function"
    },
    {
      "inputs": [
        {
          "internalType": "address",
          "name": "",
          "type": "address"
        }
      ],
      "name": "userIsInitialized",
      "outputs": [
        {
          "internalType": "bool",
          "name": "",
          "type": "bool"
        }
      ],
      "stateMutability": "view",
      "type": "function"
    },
    {
      "inputs": [
        {
          "internalType": "address",
          "name": "",
          "type": "address"
        }
      ],
      "name": "userVeUNOCheckpointed",
      "outputs": [
        {
          "internalType": "uint256",
          "name": "",
          "type": "uint256"
        }
      ],
      "stateMutability": "view",
      "type": "function"
    },
    {
      "inputs": [
        {
          "internalType": "address",
          "name": "",
          "type": "address"
        }
      ],
      "name": "userVeUNOEndpointCheckpointed",
      "outputs": [
        {
          "internalType": "uint256",
          "name": "",
          "type": "uint256"
        }
      ],
      "stateMutability": "view",
      "type": "function"
    },
    {
      "inputs": [
        {
          "internalType": "address",
          "name": "",
          "type": "address"
        }
      ],
      "name": "userYieldPerTokenPaid",
      "outputs": [
        {
          "internalType": "uint256",
          "name": "",
          "type": "uint256"
        }
      ],
      "stateMutability": "view",
      "type": "function"
    },
    {
      "inputs": [],
      "name": "veUNO",
      "outputs": [
        {
          "internalType": "contract IVotingEscrow",
          "name": "",
          "type": "address"
        }
      ],
      "stateMutability": "view",
      "type": "function"
    },
    {
      "inputs": [],
      "name": "yieldCollectionPaused",
      "outputs": [
        {
          "internalType": "bool",
          "name": "",
          "type": "bool"
        }
      ],
      "stateMutability": "view",
      "type": "function"
    },
    {
      "inputs": [],
      "name": "yieldDuration",
      "outputs": [
        {
          "internalType": "uint256",
          "name": "",
          "type": "uint256"
        }
      ],
      "stateMutability": "view",
      "type": "function"
    },
    {
      "inputs": [],
      "name": "yieldPerVeUNO",
      "outputs": [
        {
          "internalType": "uint256",
          "name": "yield",
          "type": "uint256"
        }
      ],
      "stateMutability": "view",
      "type": "function"
    },
    {
      "inputs": [],
      "name": "yieldPerVeUNOStored",
      "outputs": [
        {
          "internalType": "uint256",
          "name": "",
          "type": "uint256"
        }
      ],
      "stateMutability": "view",
      "type": "function"
    },
    {
      "inputs": [],
      "name": "yieldRate",
      "outputs": [
        {
          "internalType": "uint256",
          "name": "",
          "type": "uint256"
        }
      ],
      "stateMutability": "view",
      "type": "function"
    },
    {
      "inputs": [
        {
          "internalType": "address",
          "name": "",
          "type": "address"
        }
      ],
      "name": "yields",
      "outputs": [
        {
          "internalType": "uint256",
          "name": "",
          "type": "uint256"
        }
      ],
      "stateMutability": "view",
      "type": "function"
    }
  ],
  "transactionHash": "0x4e93c920a01b2505fdc898dba77c6a84081b463ccde8d7e6fa7807c3a58f60c4",
  "args": [],
  "numDeployments": 1,
  "solcInputHash": "ffcafb6737a44618830fadbcabd1d1da",
  "bytecode": "0x608060405234801561001057600080fd5b50611df9806100206000396000f3fe608060405234801561001057600080fd5b50600436106102e85760003560e01c80638da5cb5b11610191578063c8f33c91116100e3578063e9218ff611610097578063f8c8765e11610071578063f8c8765e14610616578063fc939bb114610629578063fff6cae91461063157600080fd5b8063e9218ff6146105da578063ebe2b12b146105ed578063eea4e903146105f657600080fd5b8063d15166ff116100c8578063d15166ff14610596578063d33219b4146105b9578063e172cf21146105d157600080fd5b8063c8f33c9114610584578063d0f533421461058d57600080fd5b80639f8a835a11610145578063b66503cf1161011f578063b66503cf14610556578063bdacb30314610569578063c2c4c5c11461057c57600080fd5b80639f8a835a14610516578063a875f47214610529578063ad1148cb1461054957600080fd5b806392ff86b61161017657806392ff86b6146104d1578063948e25a2146104f957806395082d251461050c57600080fd5b80638da5cb5b146104ab57806391519bda146104be57600080fd5b806342c92f6e1161024a5780636999ac93116101fe57806379ba5097116101d857806379ba5097146104885780637c262871146104905780638980f11f1461049857600080fd5b80636999ac931461044c5780636c430dbb1461045557806374ea0b981461047557600080fd5b806353a47bb71161022f57806353a47bb71461042857806356d9fff31461043b578063647f15ae1461044357600080fd5b806342c92f6e146103f557806350fe98ac1461040857600080fd5b806328aede0a116102a157806330f7bb381161028657806330f7bb38146103b657806331ca208c146103bf5780633328d976146103e257600080fd5b806328aede0a14610383578063299a6435146103ae57600080fd5b80631627540c116102d25780631627540c1461034657806319aec6d21461035b5780631e74e7ce1461036357600080fd5b80628cc262146102ed57806314b3053714610313575b600080fd5b6103006102fb366004611b73565b610639565b6040519081526020015b60405180910390f35b610336610321366004611b73565b60106020526000908152604090205460ff1681565b604051901515815260200161030a565b610359610354366004611b73565b6107e2565b005b6103006108c9565b610300610371366004611b73565b600f6020526000908152604090205481565b600354610396906001600160a01b031681565b6040516001600160a01b03909116815260200161030a565b6103006108e0565b610300600c5481565b6103366103cd366004611b73565b60116020526000908152604090205460ff1681565b6103596103f0366004611b73565b610944565b610359610403366004611b73565b6109d1565b610300610416366004611b73565b600b6020526000908152604090205481565b600154610396906001600160a01b031681565b610300610a5e565b61030060095481565b61030060075481565b610300610463366004611b73565b60026020526000908152604090205481565b610359610483366004611b90565b610a75565b610359610b5f565b610300610c5e565b6103596104a6366004611ba9565b610dea565b600054610396906001600160a01b031681565b6103596104cc366004611be3565b610eaf565b6104e46104df366004611b73565b610f2a565b6040805192835260208301919091520161030a565b610359610507366004611c13565b61100c565b610300620f424081565b610359610524366004611b73565b611083565b610300610537366004611b73565b600a6020526000908152604090205481565b6012546103369060ff1681565b610359610564366004611ba9565b61108f565b610359610577366004611b73565b6111bd565b610359611260565b61030060065481565b610300600d5481565b6103366105a4366004611b73565b60136020526000908152604090205460ff1681565b6012546103969061010090046001600160a01b031681565b61030060085481565b600454610396906001600160a01b031681565b61030060055481565b610300610604366004611b73565b600e6020526000908152604090205481565b610359610624366004611c30565b61126b565b610300611457565b610359611477565b6001600160a01b03811660009081526010602052604081205460ff1661066157506000919050565b60008061066d84610f2a565b9092509050620f42406000839003610712576001600160a01b03851660009081526002602052604090205482116106a957506000949350505050565b6001600160a01b0385166000908152600260205260408120546106cc9084611ca2565b6001600160a01b038716600090815260026020526040812054919250906106f39042611ca2565b905080610703620f424084611cb5565b61070d9190611ccc565b925050505b6001600160a01b0385166000908152600e60205260408120548085111561073b57809150610754565b60026107478287611cee565b6107519190611ccc565b91505b5061076a620f4240670de0b6b3a7640000611cb5565b6001600160a01b0387166000908152600a6020526040902054839061078d6108e0565b6107979190611ca2565b6107a19084611cb5565b6107ab9190611cb5565b6107b59190611ccc565b6001600160a01b0387166000908152600b60205260409020546107d89190611cee565b9695505050505050565b6000546001600160a01b031633146108675760405162461bcd60e51b815260206004820152602f60248201527f4f6e6c792074686520636f6e7472616374206f776e6572206d6179207065726660448201527f6f726d207468697320616374696f6e000000000000000000000000000000000060648201526084015b60405180910390fd5b6001805473ffffffffffffffffffffffffffffffffffffffff19166001600160a01b0383169081179091556040519081527f906a1c6bd7e3091ea86693dd029a831c19049ce77f1dce2ce0bab1cacbabce22906020015b60405180910390a150565b60006008546007546108db9190611cb5565b905090565b6000600d546000036108f3575060095490565b600d54600754600654610904610a5e565b61090e9190611ca2565b6109189190611cb5565b61092a90670de0b6b3a7640000611cb5565b6109349190611ccc565b6009546108db9190611cee565b90565b6000546001600160a01b031633148061096c575060125461010090046001600160a01b031633145b6109a85760405162461bcd60e51b815260206004820152600d60248201526c1599555b9bd6510e880853cbd5609a1b604482015260640161085e565b6001600160a01b03166000908152601160205260409020805460ff19811660ff90911615179055565b6000546001600160a01b03163314806109f9575060125461010090046001600160a01b031633145b610a355760405162461bcd60e51b815260206004820152600d60248201526c1599555b9bd6510e880853cbd5609a1b604482015260640161085e565b6001600160a01b03166000908152601360205260409020805460ff19811660ff90911615179055565b60006005544210610a70575060055490565b504290565b6000546001600160a01b0316331480610a9d575060125461010090046001600160a01b031633145b610ad95760405162461bcd60e51b815260206004820152600d60248201526c1599555b9bd6510e880853cbd5609a1b604482015260640161085e565b6005544211610b2a5760405162461bcd60e51b815260206004820152600e60248201527f5665556e6f59443a202150595043000000000000000000000000000000000000604482015260640161085e565b60088190556040518181527fce653f06b9044b00e7d9d01b9b4228e84812092cb6a38371889bef19370d21f7906020016108be565b6001546001600160a01b03163314610bdf5760405162461bcd60e51b815260206004820152603560248201527f596f75206d757374206265206e6f6d696e61746564206265666f726520796f7560448201527f2063616e20616363657074206f776e6572736869700000000000000000000000606482015260840161085e565b600054600154604080516001600160a01b0393841681529290911660208301527fb532073b38c83145e3e5135377a08bf9aab55bc0fd7c1179cd4fb995d2a5159c910160405180910390a1600180546000805473ffffffffffffffffffffffffffffffffffffffff199081166001600160a01b03841617909155169055565b6000610c68611519565b60125460ff1615610cbb5760405162461bcd60e51b815260206004820152600c60248201527f5665556e6f59443a205943500000000000000000000000000000000000000000604482015260640161085e565b33610cc58161159a565b3360009081526011602052604090205460ff1615610d255760405162461bcd60e51b815260206004820152600c60248201527f5665556e6f59443a20474c550000000000000000000000000000000000000000604482015260640161085e565b336000908152600b602052604090205491508115610dae57336000818152600b6020526040812055600454610d66916001600160a01b0390911690846117aa565b600454604080518481526001600160a01b03909216602083015233917f3998039806f6db7e5d83a5371638cc47dd2e9ae500d5d561d95ec6381f53e3cd910160405180910390a25b5033600090815260026020526040902042905561094160017f9b779b17422d0df92223018b32b4d1fa46e071723d6817e2486d003becc55f0055565b6000546001600160a01b0316331480610e12575060125461010090046001600160a01b031633145b610e4e5760405162461bcd60e51b815260206004820152600d60248201526c1599555b9bd6510e880853cbd5609a1b604482015260640161085e565b600054610e68906001600160a01b038481169116836117aa565b604080516001600160a01b0384168152602081018390527f55350610fe57096d8c0ffa30beede987326bccfcb0b4415804164d0dd50ce8b191015b60405180910390a15050565b6000546001600160a01b0316331480610ed7575060125461010090046001600160a01b031633145b610f135760405162461bcd60e51b815260206004820152600d60248201526c1599555b9bd6510e880853cbd5609a1b604482015260640161085e565b60078290558015610f2657610f26611477565b5050565b6003546040517f70a082310000000000000000000000000000000000000000000000000000000081526001600160a01b03838116600483015260009283928392909116906370a0823190602401602060405180830381865afa158015610f94573d6000803e3d6000fd5b505050506040513d601f19601f82011682018060405250810190610fb89190611d01565b6001600160a01b0385166000908152600f6020526040902054925090508115801590610fe45750814210155b15610ff25760009250611006565b8142106110025760009250611006565b8092505b50915091565b6000546001600160a01b0316331480611034575060125461010090046001600160a01b031633145b6110705760405162461bcd60e51b815260206004820152600d60248201526c1599555b9bd6510e880853cbd5609a1b604482015260640161085e565b6012805460ff1916911515919091179055565b61108c8161159a565b50565b3360009081526013602052604090205460ff166110ee5760405162461bcd60e51b815260206004820152601260248201527f5665556e6f59443a20214e6f7469666965720000000000000000000000000000604482015260640161085e565b600454611106906001600160a01b0316833084611823565b61110e611477565b600554421061112c576008546111249082611ccc565b60075561116e565b60004260055461113c9190611ca2565b905060006007548261114e9190611cb5565b60085490915061115e8285611cee565b6111689190611ccc565b60075550505b42600681905560085461118091611cee565b6005556007546040805183815260208101929092527f6c07ee05dcf262f13abf9d87b846ee789d2f90fe991d495acd7d7fc109ee1f559101610ea3565b6000546001600160a01b03163314806111e5575060125461010090046001600160a01b031633145b6112215760405162461bcd60e51b815260206004820152600d60248201526c1599555b9bd6510e880853cbd5609a1b604482015260640161085e565b601280546001600160a01b03909216610100027fffffffffffffffffffffff0000000000000000000000000000000000000000ff909216919091179055565b6112693361159a565b565b7ff0c57e16840df040f15088dc2f81fe391c3923bec73e23a9662efc9c229c6a00805468010000000000000000810460ff16159067ffffffffffffffff166000811580156112b65750825b905060008267ffffffffffffffff1660011480156112d35750303b155b9050811580156112e1575080155b15611318576040517ff92ee8a900000000000000000000000000000000000000000000000000000000815260040160405180910390fd5b84547fffffffffffffffffffffffffffffffffffffffffffffffff0000000000000000166001178555831561136357845468ff00000000000000001916680100000000000000001785555b600480546001600160a01b03808c1673ffffffffffffffffffffffffffffffffffffffff1992831617909255600380548b8416921691909117905560128054918916610100027fffffffffffffffffffffff0000000000000000000000000000000000000000ff90921691909117905542600655336000908152601360205260409020805460ff1916600117905562093a806008556114018661185c565b831561144c57845468ff000000000000000019168555604051600181527fc7f505b2f371ae2175ee4913f4499e1f2633a7b5936321eed1cdaeb6115181d29060200160405180910390a15b505050505050505050565b6000600d54620f4240600c5461146d9190611cb5565b6108db9190611ccc565b61147f6108e0565b600955600354604080517f18160ddd00000000000000000000000000000000000000000000000000000000815290516001600160a01b03909216916318160ddd916004808201926020929091908290030181865afa1580156114e5573d6000803e3d6000fd5b505050506040513d601f19601f820116820180604052508101906115099190611d01565b600d55611514610a5e565b600655565b7f9b779b17422d0df92223018b32b4d1fa46e071723d6817e2486d003becc55f0080547ffffffffffffffffffffffffffffffffffffffffffffffffffffffffffffffffe01611594576040517f3ee5aeb500000000000000000000000000000000000000000000000000000000815260040160405180910390fd5b60029055565b6115a2611477565b6115ab81611913565b6001600160a01b038181166000818152600e60205260408082205460035491517f70a0823100000000000000000000000000000000000000000000000000000000815260048101949094529391929116906370a0823190602401602060405180830381865afa158015611622573d6000803e3d6000fd5b505050506040513d601f19601f820116820180604052508101906116469190611d01565b6001600160a01b038481166000818152600e602052604080822085905560035490517fcbf9fe5f0000000000000000000000000000000000000000000000000000000081526004810193909352939450929091169063cbf9fe5f906024016040805180830381865afa1580156116c0573d6000803e3d6000fd5b505050506040513d601f19601f820116820180604052508101906116e49190611d1a565b6020808201516001600160a01b0387166000908152600f90925260409091205590508282106117325760006117198484611ca2565b905080600c546117299190611cee565b600c5550611753565b600061173e8385611ca2565b905080600c5461174e9190611ca2565b600c55505b6001600160a01b03841660009081526010602052604090205460ff166117a4576001600160a01b0384166000908152601060209081526040808320805460ff19166001179055600290915290204290555b50505050565b6040516001600160a01b0383811660248301526044820183905261181e91859182169063a9059cbb906064015b604051602081830303815290604052915060e01b6020820180517bffffffffffffffffffffffffffffffffffffffffffffffffffffffff838183161783525050505061195c565b505050565b6040516001600160a01b0384811660248301528381166044830152606482018390526117a49186918216906323b872dd906084016117d7565b6001600160a01b0381166118b25760405162461bcd60e51b815260206004820152601960248201527f4f776e657220616464726573732063616e6e6f74206265203000000000000000604482015260640161085e565b6000805473ffffffffffffffffffffffffffffffffffffffff19166001600160a01b03831690811782556040805192835260208301919091527fb532073b38c83145e3e5135377a08bf9aab55bc0fd7c1179cd4fb995d2a5159c91016108be565b6001600160a01b0381161561108c57600061192d82610639565b6001600160a01b0383166000908152600b6020908152604080832093909355600954600a909152919020555050565b60006119716001600160a01b038416836119d8565b905080516000141580156119965750808060200190518101906119949190611d77565b155b1561181e576040517f5274afe70000000000000000000000000000000000000000000000000000000081526001600160a01b038416600482015260240161085e565b60606119e6838360006119ef565b90505b92915050565b606081471015611a2d576040517fcd78605900000000000000000000000000000000000000000000000000000000815230600482015260240161085e565b600080856001600160a01b03168486604051611a499190611d94565b60006040518083038185875af1925050503d8060008114611a86576040519150601f19603f3d011682016040523d82523d6000602084013e611a8b565b606091505b5091509150611a9b868383611aa7565b925050505b9392505050565b606082611abc57611ab782611b1c565b611aa0565b8151158015611ad357506001600160a01b0384163b155b15611b15576040517f9996b3150000000000000000000000000000000000000000000000000000000081526001600160a01b038516600482015260240161085e565b5080611aa0565b805115611b2c5780518082602001fd5b6040517f1425ea4200000000000000000000000000000000000000000000000000000000815260040160405180910390fd5b6001600160a01b038116811461108c57600080fd5b600060208284031215611b8557600080fd5b8135611aa081611b5e565b600060208284031215611ba257600080fd5b5035919050565b60008060408385031215611bbc57600080fd5b8235611bc781611b5e565b946020939093013593505050565b801515811461108c57600080fd5b60008060408385031215611bf657600080fd5b823591506020830135611c0881611bd5565b809150509250929050565b600060208284031215611c2557600080fd5b8135611aa081611bd5565b60008060008060808587031215611c4657600080fd5b8435611c5181611b5e565b93506020850135611c6181611b5e565b92506040850135611c7181611b5e565b91506060850135611c8181611b5e565b939692955090935050565b634e487b7160e01b600052601160045260246000fd5b818103818111156119e9576119e9611c8c565b80820281158282048414176119e9576119e9611c8c565b600082611ce957634e487b7160e01b600052601260045260246000fd5b500490565b808201808211156119e9576119e9611c8c565b600060208284031215611d1357600080fd5b5051919050565b600060408284031215611d2c57600080fd5b6040516040810181811067ffffffffffffffff82111715611d5d57634e487b7160e01b600052604160045260246000fd5b604052825181526020928301519281019290925250919050565b600060208284031215611d8957600080fd5b8151611aa081611bd5565b6000825160005b81811015611db55760208186018101518583015201611d9b565b50600092019182525091905056fea2646970667358221220aa0901271356c34ec46dc1248c6057c12a86b54d00fa9671639497c33a2e85a864736f6c63430008170033",
  "devdoc": {
    "errors": {
      "AddressEmptyCode(address)": [
        {
          "details": "There's no code at `target` (it is not a contract)."
        }
      ],
      "AddressInsufficientBalance(address)": [
        {
          "details": "The ETH balance of the account is not enough to perform the operation."
        }
      ],
      "FailedInnerCall()": [
        {
          "details": "A call to an address target failed. The target may have reverted."
        }
      ],
      "InvalidInitialization()": [
        {
          "details": "The contract is already initialized."
        }
      ],
      "NotInitializing()": [
        {
          "details": "The contract is not initializing."
        }
      ],
      "ReentrancyGuardReentrantCall()": [
        {
          "details": "Unauthorized reentrant call."
        }
      ],
      "SafeERC20FailedOperation(address)": [
        {
          "details": "An operation with an ERC20 token failed."
        }
      ]
    },
    "events": {
      "Initialized(uint64)": {
        "details": "Triggered when the contract has been initialized or reinitialized."
      }
    },
    "kind": "dev",
    "methods": {},
    "version": 1
  },
  "userdoc": {
    "kind": "user",
    "methods": {},
    "version": 1
  },
  "storageLayout": {
    "storage": [
      {
        "astId": 4391,
        "contract": "contracts/apps/VeUnoDaoYieldDistributor.sol:VeUnoDaoYieldDistributor",
        "label": "owner",
        "offset": 0,
        "slot": "0",
        "type": "t_address"
      },
      {
        "astId": 4393,
        "contract": "contracts/apps/VeUnoDaoYieldDistributor.sol:VeUnoDaoYieldDistributor",
        "label": "nominatedOwner",
        "offset": 0,
        "slot": "1",
        "type": "t_address"
      },
      {
        "astId": 4519,
        "contract": "contracts/apps/VeUnoDaoYieldDistributor.sol:VeUnoDaoYieldDistributor",
        "label": "lastRewardClaimTime",
        "offset": 0,
        "slot": "2",
        "type": "t_mapping(t_address,t_uint256)"
      },
      {
        "astId": 4522,
        "contract": "contracts/apps/VeUnoDaoYieldDistributor.sol:VeUnoDaoYieldDistributor",
        "label": "veUNO",
        "offset": 0,
        "slot": "3",
        "type": "t_contract(IVotingEscrow)8799"
      },
      {
        "astId": 4525,
        "contract": "contracts/apps/VeUnoDaoYieldDistributor.sol:VeUnoDaoYieldDistributor",
        "label": "emittedToken",
        "offset": 0,
        "slot": "4",
        "type": "t_contract(IERC20)1260"
      },
      {
        "astId": 4527,
        "contract": "contracts/apps/VeUnoDaoYieldDistributor.sol:VeUnoDaoYieldDistributor",
        "label": "periodFinish",
        "offset": 0,
        "slot": "5",
        "type": "t_uint256"
      },
      {
        "astId": 4529,
        "contract": "contracts/apps/VeUnoDaoYieldDistributor.sol:VeUnoDaoYieldDistributor",
        "label": "lastUpdateTime",
        "offset": 0,
        "slot": "6",
        "type": "t_uint256"
      },
      {
        "astId": 4531,
        "contract": "contracts/apps/VeUnoDaoYieldDistributor.sol:VeUnoDaoYieldDistributor",
        "label": "yieldRate",
        "offset": 0,
        "slot": "7",
        "type": "t_uint256"
      },
      {
        "astId": 4533,
        "contract": "contracts/apps/VeUnoDaoYieldDistributor.sol:VeUnoDaoYieldDistributor",
        "label": "yieldDuration",
        "offset": 0,
        "slot": "8",
        "type": "t_uint256"
      },
      {
        "astId": 4535,
        "contract": "contracts/apps/VeUnoDaoYieldDistributor.sol:VeUnoDaoYieldDistributor",
        "label": "yieldPerVeUNOStored",
        "offset": 0,
        "slot": "9",
        "type": "t_uint256"
      },
      {
        "astId": 4539,
        "contract": "contracts/apps/VeUnoDaoYieldDistributor.sol:VeUnoDaoYieldDistributor",
        "label": "userYieldPerTokenPaid",
        "offset": 0,
        "slot": "10",
        "type": "t_mapping(t_address,t_uint256)"
      },
      {
        "astId": 4543,
        "contract": "contracts/apps/VeUnoDaoYieldDistributor.sol:VeUnoDaoYieldDistributor",
        "label": "yields",
        "offset": 0,
        "slot": "11",
        "type": "t_mapping(t_address,t_uint256)"
      },
      {
        "astId": 4545,
        "contract": "contracts/apps/VeUnoDaoYieldDistributor.sol:VeUnoDaoYieldDistributor",
        "label": "totalVeUNOParticipating",
        "offset": 0,
        "slot": "12",
        "type": "t_uint256"
      },
      {
        "astId": 4547,
        "contract": "contracts/apps/VeUnoDaoYieldDistributor.sol:VeUnoDaoYieldDistributor",
        "label": "totalVeUNOSupplyStored",
        "offset": 0,
        "slot": "13",
        "type": "t_uint256"
      },
      {
        "astId": 4551,
        "contract": "contracts/apps/VeUnoDaoYieldDistributor.sol:VeUnoDaoYieldDistributor",
        "label": "userVeUNOCheckpointed",
        "offset": 0,
        "slot": "14",
        "type": "t_mapping(t_address,t_uint256)"
      },
      {
        "astId": 4555,
        "contract": "contracts/apps/VeUnoDaoYieldDistributor.sol:VeUnoDaoYieldDistributor",
        "label": "userVeUNOEndpointCheckpointed",
        "offset": 0,
        "slot": "15",
        "type": "t_mapping(t_address,t_uint256)"
      },
      {
        "astId": 4559,
        "contract": "contracts/apps/VeUnoDaoYieldDistributor.sol:VeUnoDaoYieldDistributor",
        "label": "userIsInitialized",
        "offset": 0,
        "slot": "16",
        "type": "t_mapping(t_address,t_bool)"
      },
      {
        "astId": 4563,
        "contract": "contracts/apps/VeUnoDaoYieldDistributor.sol:VeUnoDaoYieldDistributor",
        "label": "greylist",
        "offset": 0,
        "slot": "17",
        "type": "t_mapping(t_address,t_bool)"
      },
      {
        "astId": 4565,
        "contract": "contracts/apps/VeUnoDaoYieldDistributor.sol:VeUnoDaoYieldDistributor",
        "label": "yieldCollectionPaused",
        "offset": 0,
        "slot": "18",
        "type": "t_bool"
      },
      {
        "astId": 4567,
        "contract": "contracts/apps/VeUnoDaoYieldDistributor.sol:VeUnoDaoYieldDistributor",
        "label": "timelock",
        "offset": 1,
        "slot": "18",
        "type": "t_address"
      },
      {
        "astId": 4571,
        "contract": "contracts/apps/VeUnoDaoYieldDistributor.sol:VeUnoDaoYieldDistributor",
        "label": "rewardNotifiers",
        "offset": 0,
        "slot": "19",
        "type": "t_mapping(t_address,t_bool)"
      }
    ],
    "types": {
      "t_address": {
        "encoding": "inplace",
        "label": "address",
        "numberOfBytes": "20"
      },
      "t_bool": {
        "encoding": "inplace",
        "label": "bool",
        "numberOfBytes": "1"
      },
      "t_contract(IERC20)1260": {
        "encoding": "inplace",
        "label": "contract IERC20",
        "numberOfBytes": "20"
      },
      "t_contract(IVotingEscrow)8799": {
        "encoding": "inplace",
        "label": "contract IVotingEscrow",
        "numberOfBytes": "20"
      },
      "t_mapping(t_address,t_bool)": {
        "encoding": "mapping",
        "key": "t_address",
        "label": "mapping(address => bool)",
        "numberOfBytes": "32",
        "value": "t_bool"
      },
      "t_mapping(t_address,t_uint256)": {
        "encoding": "mapping",
        "key": "t_address",
        "label": "mapping(address => uint256)",
        "numberOfBytes": "32",
        "value": "t_uint256"
      },
      "t_uint256": {
        "encoding": "inplace",
        "label": "uint256",
        "numberOfBytes": "32"
      }
    }
  }
}