{
  "address": "0x4d3e41D602aBD45928B0fA8Be315ddbEabdAd584",
  "abi": [
    {
      "inputs": [
        {
          "internalType": "address",
          "name": "target",
          "type": "address"
        }
      ],
      "name": "AddressEmptyCode",
      "type": "error"
    },
    {
      "inputs": [
        {
          "internalType": "address",
          "name": "account",
          "type": "address"
        }
      ],
      "name": "AddressInsufficientBalance",
      "type": "error"
    },
    {
      "inputs": [],
      "name": "FailedInnerCall",
      "type": "error"
    },
    {
      "inputs": [],
      "name": "InvalidInitialization",
      "type": "error"
    },
    {
      "inputs": [],
      "name": "NotInitializing",
      "type": "error"
    },
    {
      "inputs": [],
      "name": "ReentrancyGuardReentrantCall",
      "type": "error"
    },
    {
      "inputs": [
        {
          "internalType": "address",
          "name": "token",
          "type": "address"
        }
      ],
      "name": "SafeERC20FailedOperation",
      "type": "error"
    },
    {
      "anonymous": false,
      "inputs": [
        {
          "indexed": true,
          "internalType": "address",
          "name": "owner",
          "type": "address"
        },
        {
          "indexed": true,
          "internalType": "address",
          "name": "user",
          "type": "address"
        },
        {
          "indexed": false,
          "internalType": "bool",
          "name": "toggle",
          "type": "bool"
        }
      ],
      "name": "GreylistToggled",
      "type": "event"
    },
    {
      "anonymous": false,
      "inputs": [
        {
          "indexed": false,
          "internalType": "uint64",
          "name": "version",
          "type": "uint64"
        }
      ],
      "name": "Initialized",
      "type": "event"
    },
    {
      "anonymous": false,
      "inputs": [
        {
          "indexed": false,
          "internalType": "address",
          "name": "oldOwner",
          "type": "address"
        },
        {
          "indexed": false,
          "internalType": "address",
          "name": "newOwner",
          "type": "address"
        }
      ],
      "name": "OwnerChanged",
      "type": "event"
    },
    {
      "anonymous": false,
      "inputs": [
        {
          "indexed": false,
          "internalType": "address",
          "name": "newOwner",
          "type": "address"
        }
      ],
      "name": "OwnerNominated",
      "type": "event"
    },
    {
      "anonymous": false,
      "inputs": [
        {
          "indexed": true,
          "internalType": "address",
          "name": "owner",
          "type": "address"
        },
        {
          "indexed": false,
          "internalType": "bool",
          "name": "paused",
          "type": "bool"
        }
      ],
      "name": "Paused",
      "type": "event"
    },
    {
      "anonymous": false,
      "inputs": [
        {
          "indexed": false,
          "internalType": "address",
          "name": "token",
          "type": "address"
        },
        {
          "indexed": false,
          "internalType": "uint256",
          "name": "amount",
          "type": "uint256"
        }
      ],
      "name": "RecoveredERC20",
      "type": "event"
    },
    {
      "anonymous": false,
      "inputs": [
        {
          "indexed": false,
          "internalType": "uint256",
          "name": "reward",
          "type": "uint256"
        },
        {
          "indexed": false,
          "internalType": "uint256",
          "name": "yieldRate",
          "type": "uint256"
        }
      ],
      "name": "RewardAdded",
      "type": "event"
    },
    {
      "anonymous": false,
      "inputs": [
        {
          "indexed": true,
          "internalType": "address",
          "name": "owner",
          "type": "address"
        },
        {
          "indexed": true,
          "internalType": "address",
          "name": "user",
          "type": "address"
        },
        {
          "indexed": false,
          "internalType": "bool",
          "name": "toggle",
          "type": "bool"
        }
      ],
      "name": "RewardNotifierToggled",
      "type": "event"
    },
    {
      "anonymous": false,
      "inputs": [
        {
          "indexed": false,
          "internalType": "uint256",
          "name": "yieldPerVeUNOStored",
          "type": "uint256"
        },
        {
          "indexed": false,
          "internalType": "uint256",
          "name": "totalVeUNOSupplyStored",
          "type": "uint256"
        },
        {
          "indexed": false,
          "internalType": "uint256",
          "name": "lastUpdateTime",
          "type": "uint256"
        }
      ],
      "name": "Synced",
      "type": "event"
    },
    {
      "anonymous": false,
      "inputs": [
        {
          "indexed": true,
          "internalType": "address",
          "name": "owner",
          "type": "address"
        },
        {
          "indexed": true,
          "internalType": "address",
          "name": "yieldRate",
          "type": "address"
        }
      ],
      "name": "TimelockUpdated",
      "type": "event"
    },
    {
      "anonymous": false,
      "inputs": [
        {
          "indexed": true,
          "internalType": "address",
          "name": "user",
          "type": "address"
        },
        {
          "indexed": false,
          "internalType": "uint256",
          "name": "yieldAmount",
          "type": "uint256"
        },
        {
          "indexed": false,
          "internalType": "address",
          "name": "token",
          "type": "address"
        }
      ],
      "name": "YieldCollected",
      "type": "event"
    },
    {
      "anonymous": false,
      "inputs": [
        {
          "indexed": false,
          "internalType": "uint256",
          "name": "newDuration",
          "type": "uint256"
        }
      ],
      "name": "YieldDurationUpdated",
      "type": "event"
    },
    {
      "anonymous": false,
      "inputs": [
        {
          "indexed": true,
          "internalType": "address",
          "name": "owner",
          "type": "address"
        },
        {
          "indexed": false,
          "internalType": "uint256",
          "name": "yieldRate",
          "type": "uint256"
        }
      ],
      "name": "YieldRateUpdated",
      "type": "event"
    },
    {
      "inputs": [],
      "name": "PRICE_PRECISION",
      "outputs": [
        {
          "internalType": "uint256",
          "name": "",
          "type": "uint256"
        }
      ],
      "stateMutability": "view",
      "type": "function"
    },
    {
      "inputs": [],
      "name": "SECONDS_IN_MONTHS",
      "outputs": [
        {
          "internalType": "uint256",
          "name": "",
          "type": "uint256"
        }
      ],
      "stateMutability": "view",
      "type": "function"
    },
    {
      "inputs": [],
      "name": "acceptOwnership",
      "outputs": [],
      "stateMutability": "nonpayable",
      "type": "function"
    },
    {
      "inputs": [],
      "name": "checkpoint",
      "outputs": [],
      "stateMutability": "nonpayable",
      "type": "function"
    },
    {
      "inputs": [
        {
          "internalType": "address",
          "name": "_user",
          "type": "address"
        }
      ],
      "name": "checkpointOtherUser",
      "outputs": [],
      "stateMutability": "nonpayable",
      "type": "function"
    },
    {
      "inputs": [
        {
          "internalType": "address",
          "name": "_account",
          "type": "address"
        }
      ],
      "name": "earned",
      "outputs": [
        {
          "internalType": "uint256",
          "name": "yieldAmount",
          "type": "uint256"
        }
      ],
      "stateMutability": "view",
      "type": "function"
    },
    {
      "inputs": [
        {
          "internalType": "address",
          "name": "_account",
          "type": "address"
        }
      ],
      "name": "eligibleCurrentVeUNO",
      "outputs": [
        {
          "internalType": "uint256",
          "name": "eligibleVeUnoBal",
          "type": "uint256"
        },
        {
          "internalType": "uint256",
          "name": "storedEndTimestamp",
          "type": "uint256"
        }
      ],
      "stateMutability": "view",
      "type": "function"
    },
    {
      "inputs": [],
      "name": "emittedToken",
      "outputs": [
        {
          "internalType": "contract IERC20",
          "name": "",
          "type": "address"
        }
      ],
      "stateMutability": "view",
      "type": "function"
    },
    {
      "inputs": [],
      "name": "fractionParticipating",
      "outputs": [
        {
          "internalType": "uint256",
          "name": "",
          "type": "uint256"
        }
      ],
      "stateMutability": "view",
      "type": "function"
    },
    {
      "inputs": [],
      "name": "getYield",
      "outputs": [
        {
          "internalType": "uint256",
          "name": "yield0",
          "type": "uint256"
        }
      ],
      "stateMutability": "nonpayable",
      "type": "function"
    },
    {
      "inputs": [],
      "name": "getYieldForDuration",
      "outputs": [
        {
          "internalType": "uint256",
          "name": "",
          "type": "uint256"
        }
      ],
      "stateMutability": "view",
      "type": "function"
    },
    {
      "inputs": [
        {
          "internalType": "address",
          "name": "",
          "type": "address"
        }
      ],
      "name": "greylist",
      "outputs": [
        {
          "internalType": "bool",
          "name": "",
          "type": "bool"
        }
      ],
      "stateMutability": "view",
      "type": "function"
    },
    {
      "inputs": [
        {
          "internalType": "contract IERC20",
          "name": "_emittedToken",
          "type": "address"
        },
        {
          "internalType": "contract IVotingEscrow",
          "name": "_veUNO",
          "type": "address"
        },
        {
          "internalType": "address",
          "name": "_timelock",
          "type": "address"
        },
        {
          "internalType": "address",
          "name": "_owner",
          "type": "address"
        }
      ],
      "name": "initialize",
      "outputs": [],
      "stateMutability": "nonpayable",
      "type": "function"
    },
    {
      "inputs": [
        {
          "internalType": "address",
          "name": "",
          "type": "address"
        }
      ],
      "name": "lastRewardClaimTime",
      "outputs": [
        {
          "internalType": "uint256",
          "name": "",
          "type": "uint256"
        }
      ],
      "stateMutability": "view",
      "type": "function"
    },
    {
      "inputs": [],
      "name": "lastTimeYieldApplicable",
      "outputs": [
        {
          "internalType": "uint256",
          "name": "",
          "type": "uint256"
        }
      ],
      "stateMutability": "view",
      "type": "function"
    },
    {
      "inputs": [],
      "name": "lastUpdateTime",
      "outputs": [
        {
          "internalType": "uint256",
          "name": "",
          "type": "uint256"
        }
      ],
      "stateMutability": "view",
      "type": "function"
    },
    {
      "inputs": [
        {
          "internalType": "address",
          "name": "_owner",
          "type": "address"
        }
      ],
      "name": "nominateNewOwner",
      "outputs": [],
      "stateMutability": "nonpayable",
      "type": "function"
    },
    {
      "inputs": [],
      "name": "nominatedOwner",
      "outputs": [
        {
          "internalType": "address",
          "name": "",
          "type": "address"
        }
      ],
      "stateMutability": "view",
      "type": "function"
    },
    {
      "inputs": [
        {
          "internalType": "uint256",
          "name": "_amount",
          "type": "uint256"
        }
      ],
      "name": "notifyRewardAmount",
      "outputs": [],
      "stateMutability": "nonpayable",
      "type": "function"
    },
    {
      "inputs": [],
      "name": "owner",
      "outputs": [
        {
          "internalType": "address",
          "name": "",
          "type": "address"
        }
      ],
      "stateMutability": "view",
      "type": "function"
    },
    {
      "inputs": [],
      "name": "periodFinish",
      "outputs": [
        {
          "internalType": "uint256",
          "name": "",
          "type": "uint256"
        }
      ],
      "stateMutability": "view",
      "type": "function"
    },
    {
      "inputs": [
        {
          "internalType": "contract IERC20",
          "name": "_token",
          "type": "address"
        },
        {
          "internalType": "uint256",
          "name": "_amount",
          "type": "uint256"
        }
      ],
      "name": "recoverERC20",
      "outputs": [],
      "stateMutability": "nonpayable",
      "type": "function"
    },
    {
      "inputs": [
        {
          "internalType": "address",
          "name": "",
          "type": "address"
        }
      ],
      "name": "rewardNotifiers",
      "outputs": [
        {
          "internalType": "bool",
          "name": "",
          "type": "bool"
        }
      ],
      "stateMutability": "view",
      "type": "function"
    },
    {
      "inputs": [
        {
          "internalType": "bool",
          "name": "_yieldCollectionPaused",
          "type": "bool"
        }
      ],
      "name": "setPauses",
      "outputs": [],
      "stateMutability": "nonpayable",
      "type": "function"
    },
    {
      "inputs": [
        {
          "internalType": "address",
          "name": "_newTimelock",
          "type": "address"
        }
      ],
      "name": "setTimelock",
      "outputs": [],
      "stateMutability": "nonpayable",
      "type": "function"
    },
    {
      "inputs": [
        {
          "internalType": "uint256",
          "name": "_yieldDuration",
          "type": "uint256"
        }
      ],
      "name": "setYieldDuration",
      "outputs": [],
      "stateMutability": "nonpayable",
      "type": "function"
    },
    {
      "inputs": [
        {
          "internalType": "uint256",
          "name": "_newRate0",
          "type": "uint256"
        },
        {
          "internalType": "bool",
          "name": "_isSync",
          "type": "bool"
        }
      ],
      "name": "setYieldRate",
      "outputs": [],
      "stateMutability": "nonpayable",
      "type": "function"
    },
    {
      "inputs": [],
      "name": "sync",
      "outputs": [],
      "stateMutability": "nonpayable",
      "type": "function"
    },
    {
      "inputs": [],
      "name": "timelock",
      "outputs": [
        {
          "internalType": "address",
          "name": "",
          "type": "address"
        }
      ],
      "stateMutability": "view",
      "type": "function"
    },
    {
      "inputs": [
        {
          "internalType": "address",
          "name": "_user",
          "type": "address"
        }
      ],
      "name": "toggleGreylist",
      "outputs": [],
      "stateMutability": "nonpayable",
      "type": "function"
    },
    {
      "inputs": [
        {
          "internalType": "address",
          "name": "_notifier",
          "type": "address"
        }
      ],
      "name": "toggleRewardNotifier",
      "outputs": [],
      "stateMutability": "nonpayable",
      "type": "function"
    },
    {
      "inputs": [],
      "name": "totalVeUNOParticipating",
      "outputs": [
        {
          "internalType": "uint256",
          "name": "",
          "type": "uint256"
        }
      ],
      "stateMutability": "view",
      "type": "function"
    },
    {
      "inputs": [],
      "name": "totalVeUNOSupplyStored",
      "outputs": [
        {
          "internalType": "uint256",
          "name": "",
          "type": "uint256"
        }
      ],
      "stateMutability": "view",
      "type": "function"
    },
    {
      "inputs": [
        {
          "internalType": "address",
          "name": "",
          "type": "address"
        }
      ],
      "name": "userIsInitialized",
      "outputs": [
        {
          "internalType": "bool",
          "name": "",
          "type": "bool"
        }
      ],
      "stateMutability": "view",
      "type": "function"
    },
    {
      "inputs": [
        {
          "internalType": "address",
          "name": "",
          "type": "address"
        }
      ],
      "name": "userVeUNOCheckpointed",
      "outputs": [
        {
          "internalType": "uint256",
          "name": "",
          "type": "uint256"
        }
      ],
      "stateMutability": "view",
      "type": "function"
    },
    {
      "inputs": [
        {
          "internalType": "address",
          "name": "",
          "type": "address"
        }
      ],
      "name": "userVeUNOEndpointCheckpointed",
      "outputs": [
        {
          "internalType": "uint256",
          "name": "",
          "type": "uint256"
        }
      ],
      "stateMutability": "view",
      "type": "function"
    },
    {
      "inputs": [
        {
          "internalType": "address",
          "name": "",
          "type": "address"
        }
      ],
      "name": "userYieldPerTokenPaid",
      "outputs": [
        {
          "internalType": "uint256",
          "name": "",
          "type": "uint256"
        }
      ],
      "stateMutability": "view",
      "type": "function"
    },
    {
      "inputs": [],
      "name": "veUNO",
      "outputs": [
        {
          "internalType": "contract IVotingEscrow",
          "name": "",
          "type": "address"
        }
      ],
      "stateMutability": "view",
      "type": "function"
    },
    {
      "inputs": [],
      "name": "yieldCollectionPaused",
      "outputs": [
        {
          "internalType": "bool",
          "name": "",
          "type": "bool"
        }
      ],
      "stateMutability": "view",
      "type": "function"
    },
    {
      "inputs": [],
      "name": "yieldDuration",
      "outputs": [
        {
          "internalType": "uint256",
          "name": "",
          "type": "uint256"
        }
      ],
      "stateMutability": "view",
      "type": "function"
    },
    {
      "inputs": [],
      "name": "yieldPerVeUNO",
      "outputs": [
        {
          "internalType": "uint256",
          "name": "yield",
          "type": "uint256"
        }
      ],
      "stateMutability": "view",
      "type": "function"
    },
    {
      "inputs": [],
      "name": "yieldPerVeUNOStored",
      "outputs": [
        {
          "internalType": "uint256",
          "name": "",
          "type": "uint256"
        }
      ],
      "stateMutability": "view",
      "type": "function"
    },
    {
      "inputs": [],
      "name": "yieldRate",
      "outputs": [
        {
          "internalType": "uint256",
          "name": "",
          "type": "uint256"
        }
      ],
      "stateMutability": "view",
      "type": "function"
    },
    {
      "inputs": [
        {
          "internalType": "address",
          "name": "",
          "type": "address"
        }
      ],
      "name": "yields",
      "outputs": [
        {
          "internalType": "uint256",
          "name": "",
          "type": "uint256"
        }
      ],
      "stateMutability": "view",
      "type": "function"
    }
  ],
  "transactionHash": "0x2868b980b36836ea8e0a633049d8609faa52c544b55cc020ed9c1a8f57773236",
  "args": [],
  "numDeployments": 2,
  "solcInputHash": "a6ab2012bbdf43143182c89842069dca",
  "bytecode": "0x608060405234801561001057600080fd5b50612103806100206000396000f3fe608060405234801561001057600080fd5b50600436106102f35760003560e01c80638da5cb5b11610191578063c8f33c91116100e3578063e9218ff611610097578063f8c8765e11610071578063f8c8765e1461062b578063fc939bb11461063e578063fff6cae91461064657600080fd5b8063e9218ff6146105ef578063ebe2b12b14610602578063eea4e9031461060b57600080fd5b8063d15166ff116100c8578063d15166ff146105ab578063d33219b4146105ce578063e172cf21146105e657600080fd5b8063c8f33c9114610599578063d0f53342146105a257600080fd5b80639f8a835a11610145578063bdacb3031161011f578063bdacb30314610574578063bff2592a14610587578063c2c4c5c11461059157600080fd5b80639f8a835a14610534578063a875f47214610547578063ad1148cb1461056757600080fd5b806392ff86b61161017657806392ff86b6146104ef578063948e25a21461051757806395082d251461052a57600080fd5b80638da5cb5b146104c957806391519bda146104dc57600080fd5b806342c92f6e1161024a5780636999ac93116101fe57806379ba5097116101d857806379ba5097146104a65780637c262871146104ae5780638980f11f146104b657600080fd5b80636999ac931461046a5780636c430dbb1461047357806374ea0b981461049357600080fd5b806353a47bb71161022f57806353a47bb71461044657806356d9fff314610459578063647f15ae1461046157600080fd5b806342c92f6e1461041357806350fe98ac1461042657600080fd5b806328aede0a116102ac57806331ca208c1161028657806331ca208c146103ca5780633328d976146103ed5780633c6b16ab1461040057600080fd5b806328aede0a1461038e578063299a6435146103b957806330f7bb38146103c157600080fd5b80631627540c116102dd5780631627540c1461035157806319aec6d2146103665780631e74e7ce1461036e57600080fd5b80628cc262146102f857806314b305371461031e575b600080fd5b61030b610306366004611e7d565b61064e565b6040519081526020015b60405180910390f35b61034161032c366004611e7d565b60106020526000908152604090205460ff1681565b6040519015158152602001610315565b61036461035f366004611e7d565b6107f7565b005b61030b6108de565b61030b61037c366004611e7d565b600f6020526000908152604090205481565b6003546103a1906001600160a01b031681565b6040516001600160a01b039091168152602001610315565b61030b6108f5565b61030b600c5481565b6103416103d8366004611e7d565b60116020526000908152604090205460ff1681565b6103646103fb366004611e7d565b610959565b61036461040e366004611e9a565b610a25565b610364610421366004611e7d565b610b53565b61030b610434366004611e7d565b600b6020526000908152604090205481565b6001546103a1906001600160a01b031681565b61030b610c23565b61030b60095481565b61030b60075481565b61030b610481366004611e7d565b60026020526000908152604090205481565b6103646104a1366004611e9a565b610c3a565b610364610db3565b61030b610eb2565b6103646104c4366004611eb3565b61103e565b6000546103a1906001600160a01b031681565b6103646104ea366004611eed565b611160565b6105026104fd366004611e7d565b6112b1565b60408051928352602083019190915201610315565b610364610525366004611f1d565b611393565b61030b620f424081565b610364610542366004611e7d565b611440565b61030b610555366004611e7d565b600a6020526000908152604090205481565b6012546103419060ff1681565b610364610582366004611e7d565b61144c565b61030b62278d0081565b61036461151b565b61030b60065481565b61030b600d5481565b6103416105b9366004611e7d565b60136020526000908152604090205460ff1681565b6012546103a19061010090046001600160a01b031681565b61030b60085481565b6004546103a1906001600160a01b031681565b61030b60055481565b61030b610619366004611e7d565b600e6020526000908152604090205481565b610364610639366004611f3a565b611526565b61030b611712565b610364611732565b6001600160a01b03811660009081526010602052604081205460ff1661067657506000919050565b600080610682846112b1565b9092509050620f42406000839003610727576001600160a01b03851660009081526002602052604090205482116106be57506000949350505050565b6001600160a01b0385166000908152600260205260408120546106e19084611fac565b6001600160a01b038716600090815260026020526040812054919250906107089042611fac565b905080610718620f424084611fbf565b6107229190611fd6565b925050505b6001600160a01b0385166000908152600e60205260408120548085111561075057809150610769565b600261075c8287611ff8565b6107669190611fd6565b91505b5061077f620f4240670de0b6b3a7640000611fbf565b6001600160a01b0387166000908152600a602052604090205483906107a26108f5565b6107ac9190611fac565b6107b69084611fbf565b6107c09190611fbf565b6107ca9190611fd6565b6001600160a01b0387166000908152600b60205260409020546107ed9190611ff8565b9695505050505050565b6000546001600160a01b0316331461087c5760405162461bcd60e51b815260206004820152602f60248201527f4f6e6c792074686520636f6e7472616374206f776e6572206d6179207065726660448201527f6f726d207468697320616374696f6e000000000000000000000000000000000060648201526084015b60405180910390fd5b6001805473ffffffffffffffffffffffffffffffffffffffff19166001600160a01b0383169081179091556040519081527f906a1c6bd7e3091ea86693dd029a831c19049ce77f1dce2ce0bab1cacbabce22906020015b60405180910390a150565b60006008546007546108f09190611fbf565b905090565b6000600d54600003610908575060095490565b600d54600754600654610919610c23565b6109239190611fac565b61092d9190611fbf565b61093f90670de0b6b3a7640000611fbf565b6109499190611fd6565b6009546108f09190611ff8565b90565b6000546001600160a01b0316331480610981575060125461010090046001600160a01b031633145b6109bd5760405162461bcd60e51b815260206004820152600d60248201526c1599555b9bd6510e880853cbd5609a1b6044820152606401610873565b6001600160a01b038116600081815260116020908152604091829020805460ff8082161560ff199092168217909255925192161515825233917f595b475d3b518f7df6764808ac107355501f421455fe547647ffeb8f02c8c1e291015b60405180910390a350565b3360009081526013602052604090205460ff16610a845760405162461bcd60e51b815260206004820152601260248201527f5665556e6f59443a20214e6f74696669657200000000000000000000000000006044820152606401610873565b600454610a9c906001600160a01b031633308461181e565b610aa4611732565b6005544210610ac257600854610aba9082611fd6565b600755610b04565b600042600554610ad29190611fac565b9050600060075482610ae49190611fbf565b600854909150610af48285611ff8565b610afe9190611fd6565b60075550505b426006819055600854610b1691611ff8565b6005556007546040805183815260208101929092527f6c07ee05dcf262f13abf9d87b846ee789d2f90fe991d495acd7d7fc109ee1f5591016108d3565b6000546001600160a01b0316331480610b7b575060125461010090046001600160a01b031633145b610bb75760405162461bcd60e51b815260206004820152600d60248201526c1599555b9bd6510e880853cbd5609a1b6044820152606401610873565b6001600160a01b0381166000818152601360209081526040808320805460ff19811660ff918216151790915560119092529182902054915133927fa32bbe911557b64443d4aac3f6715ff5efd87f4535fcf1de2a75aee15663ba5792610a1a9291161515815260200190565b60006005544210610c35575060055490565b504290565b6000546001600160a01b0316331480610c62575060125461010090046001600160a01b031633145b610c9e5760405162461bcd60e51b815260206004820152600d60248201526c1599555b9bd6510e880853cbd5609a1b6044820152606401610873565b6005544211610cef5760405162461bcd60e51b815260206004820152600e60248201527f5665556e6f59443a2021505950430000000000000000000000000000000000006044820152606401610873565b600081118015610d0c5750610d0862278d006003611fbf565b8111155b610d7e5760405162461bcd60e51b815260206004820152603160248201527f5665556e6f59443a2063616e206e6f7420736574207a65726f206f72206d6f7260448201527f65207468616e2074686565206d6f6e74680000000000000000000000000000006064820152608401610873565b60088190556040518181527fce653f06b9044b00e7d9d01b9b4228e84812092cb6a38371889bef19370d21f7906020016108d3565b6001546001600160a01b03163314610e335760405162461bcd60e51b815260206004820152603560248201527f596f75206d757374206265206e6f6d696e61746564206265666f726520796f7560448201527f2063616e20616363657074206f776e65727368697000000000000000000000006064820152608401610873565b600054600154604080516001600160a01b0393841681529290911660208301527fb532073b38c83145e3e5135377a08bf9aab55bc0fd7c1179cd4fb995d2a5159c910160405180910390a1600180546000805473ffffffffffffffffffffffffffffffffffffffff199081166001600160a01b03841617909155169055565b6000610ebc6118a0565b33610ec681611921565b60125460ff1615610f195760405162461bcd60e51b815260206004820152600c60248201527f5665556e6f59443a2059435000000000000000000000000000000000000000006044820152606401610873565b3360009081526011602052604090205460ff1615610f795760405162461bcd60e51b815260206004820152600c60248201527f5665556e6f59443a20474c5500000000000000000000000000000000000000006044820152606401610873565b336000908152600b60205260409020549150811561100257336000818152600b6020526040812055600454610fba916001600160a01b039091169084611b30565b600454604080518481526001600160a01b03909216602083015233917f3998039806f6db7e5d83a5371638cc47dd2e9ae500d5d561d95ec6381f53e3cd910160405180910390a25b5033600090815260026020526040902042905561095660017f9b779b17422d0df92223018b32b4d1fa46e071723d6817e2486d003becc55f0055565b6000546001600160a01b0316331480611066575060125461010090046001600160a01b031633145b6110a25760405162461bcd60e51b815260206004820152600d60248201526c1599555b9bd6510e880853cbd5609a1b6044820152606401610873565b6004546001600160a01b03908116908316036111005760405162461bcd60e51b815260206004820152601f60248201527f596f7520617265207275672d70756c6c696e6720796f757220757365727321006044820152606401610873565b60005461111a906001600160a01b03848116911683611b30565b604080516001600160a01b0384168152602081018390527f55350610fe57096d8c0ffa30beede987326bccfcb0b4415804164d0dd50ce8b1910160405180910390a15050565b6000546001600160a01b0316331480611188575060125461010090046001600160a01b031633145b6111c45760405162461bcd60e51b815260206004820152600d60248201526c1599555b9bd6510e880853cbd5609a1b6044820152606401610873565b6000821180156111f357507fffffffffffffffffffffffffffffffffffffffffffffffffffffffffffffffff82105b6112655760405162461bcd60e51b815260206004820152602660248201527f5665556e6f59443a2063616e206e6f7420736574207a65726f206f72206d617860448201527f2076616c756500000000000000000000000000000000000000000000000000006064820152608401610873565b6007829055801561127857611278611732565b60405182815233907f8c40390db560782efda093b2b24fca89e60374af432f4c675688fa8b61108eab9060200160405180910390a25050565b6003546040517f70a082310000000000000000000000000000000000000000000000000000000081526001600160a01b03838116600483015260009283928392909116906370a0823190602401602060405180830381865afa15801561131b573d6000803e3d6000fd5b505050506040513d601f19601f8201168201806040525081019061133f919061200b565b6001600160a01b0385166000908152600f602052604090205492509050811580159061136b5750814210155b15611379576000925061138d565b814210611389576000925061138d565b8092505b50915091565b6000546001600160a01b03163314806113bb575060125461010090046001600160a01b031633145b6113f75760405162461bcd60e51b815260206004820152600d60248201526c1599555b9bd6510e880853cbd5609a1b6044820152606401610873565b6012805460ff191682151590811790915560405190815233907fe8699cf681560fd07de85543bd994263f4557bdc5179dd702f256d15fd083e1d9060200160405180910390a250565b61144981611921565b50565b6000546001600160a01b0316331480611474575060125461010090046001600160a01b031633145b6114b05760405162461bcd60e51b815260206004820152600d60248201526c1599555b9bd6510e880853cbd5609a1b6044820152606401610873565b601280547fffffffffffffffffffffff0000000000000000000000000000000000000000ff166101006001600160a01b0384169081029190911790915560405133907fae97011a27b5efe7b1d76fe38e75cc498fd64cc24e407a9c6b2185d27f611f7e90600090a350565b61152433611921565b565b7ff0c57e16840df040f15088dc2f81fe391c3923bec73e23a9662efc9c229c6a00805468010000000000000000810460ff16159067ffffffffffffffff166000811580156115715750825b905060008267ffffffffffffffff16600114801561158e5750303b155b90508115801561159c575080155b156115d3576040517ff92ee8a900000000000000000000000000000000000000000000000000000000815260040160405180910390fd5b84547fffffffffffffffffffffffffffffffffffffffffffffffff0000000000000000166001178555831561161e57845468ff00000000000000001916680100000000000000001785555b600480546001600160a01b03808c1673ffffffffffffffffffffffffffffffffffffffff1992831617909255600380548b8416921691909117905560128054918916610100027fffffffffffffffffffffff0000000000000000000000000000000000000000ff90921691909117905542600655336000908152601360205260409020805460ff1916600117905562093a806008556116bc86611b66565b831561170757845468ff000000000000000019168555604051600181527fc7f505b2f371ae2175ee4913f4499e1f2633a7b5936321eed1cdaeb6115181d29060200160405180910390a15b505050505050505050565b6000600d54620f4240600c546117289190611fbf565b6108f09190611fd6565b61173a6108f5565b600955600354604080517f18160ddd00000000000000000000000000000000000000000000000000000000815290516001600160a01b03909216916318160ddd916004808201926020929091908290030181865afa1580156117a0573d6000803e3d6000fd5b505050506040513d601f19601f820116820180604052508101906117c4919061200b565b600d556117cf610c23565b6006819055600954600d546040805192835260208301919091528101919091527f9aa1a56064c83c34d45ce0f34a60a04b6c6fd4bf28b61a19c16235ebedb30b199060600160405180910390a1565b6040516001600160a01b03848116602483015283811660448301526064820183905261189a9186918216906323b872dd906084015b604051602081830303815290604052915060e01b6020820180517bffffffffffffffffffffffffffffffffffffffffffffffffffffffff8381831617835250505050611c1d565b50505050565b7f9b779b17422d0df92223018b32b4d1fa46e071723d6817e2486d003becc55f0080547ffffffffffffffffffffffffffffffffffffffffffffffffffffffffffffffffe0161191b576040517f3ee5aeb500000000000000000000000000000000000000000000000000000000815260040160405180910390fd5b60029055565b611929611732565b61193281611c99565b6001600160a01b038181166000818152600e60205260408082205460035491517f70a0823100000000000000000000000000000000000000000000000000000000815260048101949094529391929116906370a0823190602401602060405180830381865afa1580156119a9573d6000803e3d6000fd5b505050506040513d601f19601f820116820180604052508101906119cd919061200b565b6001600160a01b038481166000818152600e602052604080822085905560035490517fcbf9fe5f0000000000000000000000000000000000000000000000000000000081526004810193909352939450929091169063cbf9fe5f906024016040805180830381865afa158015611a47573d6000803e3d6000fd5b505050506040513d601f19601f82011682018060405250810190611a6b9190612024565b6020808201516001600160a01b0387166000908152600f9092526040909120559050828210611ab9576000611aa08484611fac565b905080600c54611ab09190611ff8565b600c5550611ada565b6000611ac58385611fac565b905080600c54611ad59190611fac565b600c55505b6001600160a01b03841660009081526010602052604090205460ff1661189a576001600160a01b0384166000908152601060209081526040808320805460ff191660011790556002909152902042905550505050565b6040516001600160a01b03838116602483015260448201839052611b6191859182169063a9059cbb90606401611853565b505050565b6001600160a01b038116611bbc5760405162461bcd60e51b815260206004820152601960248201527f4f776e657220616464726573732063616e6e6f742062652030000000000000006044820152606401610873565b6000805473ffffffffffffffffffffffffffffffffffffffff19166001600160a01b03831690811782556040805192835260208301919091527fb532073b38c83145e3e5135377a08bf9aab55bc0fd7c1179cd4fb995d2a5159c91016108d3565b6000611c326001600160a01b03841683611ce2565b90508051600014158015611c57575080806020019051810190611c559190612081565b155b15611b61576040517f5274afe70000000000000000000000000000000000000000000000000000000081526001600160a01b0384166004820152602401610873565b6001600160a01b03811615611449576000611cb38261064e565b6001600160a01b0383166000908152600b6020908152604080832093909355600954600a909152919020555050565b6060611cf083836000611cf9565b90505b92915050565b606081471015611d37576040517fcd786059000000000000000000000000000000000000000000000000000000008152306004820152602401610873565b600080856001600160a01b03168486604051611d53919061209e565b60006040518083038185875af1925050503d8060008114611d90576040519150601f19603f3d011682016040523d82523d6000602084013e611d95565b606091505b5091509150611da5868383611db1565b925050505b9392505050565b606082611dc657611dc182611e26565b611daa565b8151158015611ddd57506001600160a01b0384163b155b15611e1f576040517f9996b3150000000000000000000000000000000000000000000000000000000081526001600160a01b0385166004820152602401610873565b5080611daa565b805115611e365780518082602001fd5b6040517f1425ea4200000000000000000000000000000000000000000000000000000000815260040160405180910390fd5b6001600160a01b038116811461144957600080fd5b600060208284031215611e8f57600080fd5b8135611daa81611e68565b600060208284031215611eac57600080fd5b5035919050565b60008060408385031215611ec657600080fd5b8235611ed181611e68565b946020939093013593505050565b801515811461144957600080fd5b60008060408385031215611f0057600080fd5b823591506020830135611f1281611edf565b809150509250929050565b600060208284031215611f2f57600080fd5b8135611daa81611edf565b60008060008060808587031215611f5057600080fd5b8435611f5b81611e68565b93506020850135611f6b81611e68565b92506040850135611f7b81611e68565b91506060850135611f8b81611e68565b939692955090935050565b634e487b7160e01b600052601160045260246000fd5b81810381811115611cf357611cf3611f96565b8082028115828204841417611cf357611cf3611f96565b600082611ff357634e487b7160e01b600052601260045260246000fd5b500490565b80820180821115611cf357611cf3611f96565b60006020828403121561201d57600080fd5b5051919050565b60006040828403121561203657600080fd5b6040516040810181811067ffffffffffffffff8211171561206757634e487b7160e01b600052604160045260246000fd5b604052825181526020928301519281019290925250919050565b60006020828403121561209357600080fd5b8151611daa81611edf565b6000825160005b818110156120bf57602081860181015185830152016120a5565b50600092019182525091905056fea264697066735822122074623eaa5d82350623146c1c860b7f0a0c9d358bea099254fbc4206e0fe25c5164736f6c63430008170033",
  "devdoc": {
    "errors": {
      "AddressEmptyCode(address)": [
        {
          "details": "There's no code at `target` (it is not a contract)."
        }
      ],
      "AddressInsufficientBalance(address)": [
        {
          "details": "The ETH balance of the account is not enough to perform the operation."
        }
      ],
      "FailedInnerCall()": [
        {
          "details": "A call to an address target failed. The target may have reverted."
        }
      ],
      "InvalidInitialization()": [
        {
          "details": "The contract is already initialized."
        }
      ],
      "NotInitializing()": [
        {
          "details": "The contract is not initializing."
        }
      ],
      "ReentrancyGuardReentrantCall()": [
        {
          "details": "Unauthorized reentrant call."
        }
      ],
      "SafeERC20FailedOperation(address)": [
        {
          "details": "An operation with an ERC20 token failed."
        }
      ]
    },
    "events": {
      "Initialized(uint64)": {
        "details": "Triggered when the contract has been initialized or reinitialized."
      }
    },
    "kind": "dev",
    "methods": {
      "earned(address)": {
        "params": {
          "_account": "address of user to fetch earned amount"
        }
      },
      "setPauses(bool)": {
        "params": {
          "_yieldCollectionPaused": "bool to update"
        }
      },
      "setTimelock(address)": {
        "params": {
          "_newTimelock": "new time lock address"
        }
      },
      "setYieldDuration(uint256)": {
        "params": {
          "_yieldDuration": "new yield duration"
        }
      },
      "setYieldRate(uint256,bool)": {
        "params": {
          "_isSync": "bool to sync or not",
          "_newRate0": "new yield rate"
        }
      },
      "toggleGreylist(address)": {
        "params": {
          "_user": "address of user to toggle"
        }
      },
      "toggleRewardNotifier(address)": {
        "params": {
          "_notifier": "address of user to toggle"
        }
      }
    },
    "version": 1
  },
  "userdoc": {
    "kind": "user",
    "methods": {
      "earned(address)": {
        "notice": "return earned yield amount of account"
      },
      "fractionParticipating()": {
        "notice": "return ratio total VeUNO participating by total veUNO supply stored"
      },
      "getYield()": {
        "notice": "transfer yield to caller"
      },
      "getYieldForDuration()": {
        "notice": "return total yield for yieldDuration "
      },
      "lastTimeYieldApplicable()": {
        "notice": "return minimum of current time and periodFinish(Yield and period related)"
      },
      "notifyRewardAmount(uint256)": {
        "notice": "transfer reward to veUNODaoYieldDistributir and update yieldRate"
      },
      "setPauses(bool)": {
        "notice": "update yieldCollectionPaused, pause user to yield reward"
      },
      "setTimelock(address)": {
        "notice": "update time lock(can call functions which can only be called owners), can only be called by owner"
      },
      "setYieldDuration(uint256)": {
        "notice": "update yieldDuration, can only be called by owner"
      },
      "setYieldRate(uint256,bool)": {
        "notice": "update yield rate, can only be called by owner"
      },
      "sync()": {
        "notice": "update yieldPerVeUNO, veUNO totalSupply and last time yield applicable, whenever user checkpoint or owner update notify reward or set yield rate "
      },
      "toggleGreylist(address)": {
        "notice": "toggle grey list of user, can only be called by owner"
      },
      "toggleRewardNotifier(address)": {
        "notice": "toggle RewardN otifier of user, can only be called by owner"
      },
      "yieldPerVeUNO()": {
        "notice": "return yield per veUNO "
      }
    },
    "version": 1
  },
  "storageLayout": {
    "storage": [
      {
        "astId": 5898,
        "contract": "contracts/apps/VeUnoDaoYieldDistributor.sol:VeUnoDaoYieldDistributor",
        "label": "owner",
        "offset": 0,
        "slot": "0",
        "type": "t_address"
      },
      {
        "astId": 5900,
        "contract": "contracts/apps/VeUnoDaoYieldDistributor.sol:VeUnoDaoYieldDistributor",
        "label": "nominatedOwner",
        "offset": 0,
        "slot": "1",
        "type": "t_address"
      },
      {
        "astId": 6029,
        "contract": "contracts/apps/VeUnoDaoYieldDistributor.sol:VeUnoDaoYieldDistributor",
        "label": "lastRewardClaimTime",
        "offset": 0,
        "slot": "2",
        "type": "t_mapping(t_address,t_uint256)"
      },
      {
        "astId": 6032,
        "contract": "contracts/apps/VeUnoDaoYieldDistributor.sol:VeUnoDaoYieldDistributor",
        "label": "veUNO",
        "offset": 0,
        "slot": "3",
        "type": "t_contract(IVotingEscrow)10436"
      },
      {
        "astId": 6035,
        "contract": "contracts/apps/VeUnoDaoYieldDistributor.sol:VeUnoDaoYieldDistributor",
        "label": "emittedToken",
        "offset": 0,
        "slot": "4",
        "type": "t_contract(IERC20)608"
      },
      {
        "astId": 6037,
        "contract": "contracts/apps/VeUnoDaoYieldDistributor.sol:VeUnoDaoYieldDistributor",
        "label": "periodFinish",
        "offset": 0,
        "slot": "5",
        "type": "t_uint256"
      },
      {
        "astId": 6039,
        "contract": "contracts/apps/VeUnoDaoYieldDistributor.sol:VeUnoDaoYieldDistributor",
        "label": "lastUpdateTime",
        "offset": 0,
        "slot": "6",
        "type": "t_uint256"
      },
      {
        "astId": 6041,
        "contract": "contracts/apps/VeUnoDaoYieldDistributor.sol:VeUnoDaoYieldDistributor",
        "label": "yieldRate",
        "offset": 0,
        "slot": "7",
        "type": "t_uint256"
      },
      {
        "astId": 6043,
        "contract": "contracts/apps/VeUnoDaoYieldDistributor.sol:VeUnoDaoYieldDistributor",
        "label": "yieldDuration",
        "offset": 0,
        "slot": "8",
        "type": "t_uint256"
      },
      {
        "astId": 6045,
        "contract": "contracts/apps/VeUnoDaoYieldDistributor.sol:VeUnoDaoYieldDistributor",
        "label": "yieldPerVeUNOStored",
        "offset": 0,
        "slot": "9",
        "type": "t_uint256"
      },
      {
        "astId": 6049,
        "contract": "contracts/apps/VeUnoDaoYieldDistributor.sol:VeUnoDaoYieldDistributor",
        "label": "userYieldPerTokenPaid",
        "offset": 0,
        "slot": "10",
        "type": "t_mapping(t_address,t_uint256)"
      },
      {
        "astId": 6053,
        "contract": "contracts/apps/VeUnoDaoYieldDistributor.sol:VeUnoDaoYieldDistributor",
        "label": "yields",
        "offset": 0,
        "slot": "11",
        "type": "t_mapping(t_address,t_uint256)"
      },
      {
        "astId": 6055,
        "contract": "contracts/apps/VeUnoDaoYieldDistributor.sol:VeUnoDaoYieldDistributor",
        "label": "totalVeUNOParticipating",
        "offset": 0,
        "slot": "12",
        "type": "t_uint256"
      },
      {
        "astId": 6057,
        "contract": "contracts/apps/VeUnoDaoYieldDistributor.sol:VeUnoDaoYieldDistributor",
        "label": "totalVeUNOSupplyStored",
        "offset": 0,
        "slot": "13",
        "type": "t_uint256"
      },
      {
        "astId": 6061,
        "contract": "contracts/apps/VeUnoDaoYieldDistributor.sol:VeUnoDaoYieldDistributor",
        "label": "userVeUNOCheckpointed",
        "offset": 0,
        "slot": "14",
        "type": "t_mapping(t_address,t_uint256)"
      },
      {
        "astId": 6065,
        "contract": "contracts/apps/VeUnoDaoYieldDistributor.sol:VeUnoDaoYieldDistributor",
        "label": "userVeUNOEndpointCheckpointed",
        "offset": 0,
        "slot": "15",
        "type": "t_mapping(t_address,t_uint256)"
      },
      {
        "astId": 6069,
        "contract": "contracts/apps/VeUnoDaoYieldDistributor.sol:VeUnoDaoYieldDistributor",
        "label": "userIsInitialized",
        "offset": 0,
        "slot": "16",
        "type": "t_mapping(t_address,t_bool)"
      },
      {
        "astId": 6073,
        "contract": "contracts/apps/VeUnoDaoYieldDistributor.sol:VeUnoDaoYieldDistributor",
        "label": "greylist",
        "offset": 0,
        "slot": "17",
        "type": "t_mapping(t_address,t_bool)"
      },
      {
        "astId": 6075,
        "contract": "contracts/apps/VeUnoDaoYieldDistributor.sol:VeUnoDaoYieldDistributor",
        "label": "yieldCollectionPaused",
        "offset": 0,
        "slot": "18",
        "type": "t_bool"
      },
      {
        "astId": 6077,
        "contract": "contracts/apps/VeUnoDaoYieldDistributor.sol:VeUnoDaoYieldDistributor",
        "label": "timelock",
        "offset": 1,
        "slot": "18",
        "type": "t_address"
      },
      {
        "astId": 6081,
        "contract": "contracts/apps/VeUnoDaoYieldDistributor.sol:VeUnoDaoYieldDistributor",
        "label": "rewardNotifiers",
        "offset": 0,
        "slot": "19",
        "type": "t_mapping(t_address,t_bool)"
      }
    ],
    "types": {
      "t_address": {
        "encoding": "inplace",
        "label": "address",
        "numberOfBytes": "20"
      },
      "t_bool": {
        "encoding": "inplace",
        "label": "bool",
        "numberOfBytes": "1"
      },
      "t_contract(IERC20)608": {
        "encoding": "inplace",
        "label": "contract IERC20",
        "numberOfBytes": "20"
      },
      "t_contract(IVotingEscrow)10436": {
        "encoding": "inplace",
        "label": "contract IVotingEscrow",
        "numberOfBytes": "20"
      },
      "t_mapping(t_address,t_bool)": {
        "encoding": "mapping",
        "key": "t_address",
        "label": "mapping(address => bool)",
        "numberOfBytes": "32",
        "value": "t_bool"
      },
      "t_mapping(t_address,t_uint256)": {
        "encoding": "mapping",
        "key": "t_address",
        "label": "mapping(address => uint256)",
        "numberOfBytes": "32",
        "value": "t_uint256"
      },
      "t_uint256": {
        "encoding": "inplace",
        "label": "uint256",
        "numberOfBytes": "32"
      }
    }
  }
}