{
  "address": "0xe1D2Ca6232b04749B527238686b2fA080B02eF83",
  "abi": [
    {
      "inputs": [
        {
          "internalType": "address",
          "name": "_token_addr",
          "type": "address"
        },
        {
          "internalType": "string",
          "name": "_name",
          "type": "string"
        },
        {
          "internalType": "string",
          "name": "_symbol",
          "type": "string"
        },
        {
          "internalType": "string",
          "name": "_version",
          "type": "string"
        },
        {
          "internalType": "address",
          "name": "_ownership",
          "type": "address"
        }
      ],
      "stateMutability": "nonpayable",
      "type": "constructor"
    },
    {
      "inputs": [],
      "name": "ReentrancyGuardReentrantCall",
      "type": "error"
    },
    {
      "anonymous": false,
      "inputs": [
        {
          "indexed": true,
          "internalType": "address",
          "name": "provider",
          "type": "address"
        },
        {
          "indexed": false,
          "internalType": "uint256",
          "name": "value",
          "type": "uint256"
        },
        {
          "indexed": true,
          "internalType": "uint256",
          "name": "locktime",
          "type": "uint256"
        },
        {
          "indexed": false,
          "internalType": "int256",
          "name": "_type",
          "type": "int256"
        },
        {
          "indexed": false,
          "internalType": "uint256",
          "name": "ts",
          "type": "uint256"
        }
      ],
      "name": "Deposit",
      "type": "event"
    },
    {
      "anonymous": false,
      "inputs": [
        {
          "indexed": false,
          "internalType": "address",
          "name": "target",
          "type": "address"
        },
        {
          "indexed": false,
          "internalType": "uint256",
          "name": "value",
          "type": "uint256"
        },
        {
          "indexed": false,
          "internalType": "uint256",
          "name": "ts",
          "type": "uint256"
        }
      ],
      "name": "ForceUnlock",
      "type": "event"
    },
    {
      "anonymous": false,
      "inputs": [
        {
          "indexed": false,
          "internalType": "uint256",
          "name": "prevSupply",
          "type": "uint256"
        },
        {
          "indexed": false,
          "internalType": "uint256",
          "name": "supply",
          "type": "uint256"
        }
      ],
      "name": "Supply",
      "type": "event"
    },
    {
      "anonymous": false,
      "inputs": [
        {
          "indexed": true,
          "internalType": "address",
          "name": "provider",
          "type": "address"
        },
        {
          "indexed": false,
          "internalType": "uint256",
          "name": "value",
          "type": "uint256"
        },
        {
          "indexed": false,
          "internalType": "uint256",
          "name": "ts",
          "type": "uint256"
        }
      ],
      "name": "Withdraw",
      "type": "event"
    },
    {
      "anonymous": false,
      "inputs": [
        {
          "indexed": false,
          "internalType": "address",
          "name": "newSmartWalletChecker",
          "type": "address"
        }
      ],
      "name": "applyWallet",
      "type": "event"
    },
    {
      "anonymous": false,
      "inputs": [
        {
          "indexed": false,
          "internalType": "address",
          "name": "newSmartWalletChecker",
          "type": "address"
        }
      ],
      "name": "commitWallet",
      "type": "event"
    },
    {
      "inputs": [],
      "name": "apply_smart_wallet_checker",
      "outputs": [],
      "stateMutability": "nonpayable",
      "type": "function"
    },
    {
      "inputs": [
        {
          "internalType": "address",
          "name": "_addr",
          "type": "address"
        },
        {
          "internalType": "uint256",
          "name": "_t",
          "type": "uint256"
        }
      ],
      "name": "balanceOf",
      "outputs": [
        {
          "internalType": "uint256",
          "name": "",
          "type": "uint256"
        }
      ],
      "stateMutability": "view",
      "type": "function"
    },
    {
      "inputs": [
        {
          "internalType": "address",
          "name": "_addr",
          "type": "address"
        }
      ],
      "name": "balanceOf",
      "outputs": [
        {
          "internalType": "uint256",
          "name": "",
          "type": "uint256"
        }
      ],
      "stateMutability": "view",
      "type": "function"
    },
    {
      "inputs": [
        {
          "internalType": "address",
          "name": "_addr",
          "type": "address"
        },
        {
          "internalType": "uint256",
          "name": "_block",
          "type": "uint256"
        }
      ],
      "name": "balanceOfAt",
      "outputs": [
        {
          "internalType": "uint256",
          "name": "",
          "type": "uint256"
        }
      ],
      "stateMutability": "view",
      "type": "function"
    },
    {
      "inputs": [
        {
          "internalType": "address",
          "name": "_newController",
          "type": "address"
        }
      ],
      "name": "changeController",
      "outputs": [],
      "stateMutability": "nonpayable",
      "type": "function"
    },
    {
      "inputs": [],
      "name": "checkpoint",
      "outputs": [],
      "stateMutability": "nonpayable",
      "type": "function"
    },
    {
      "inputs": [
        {
          "internalType": "address",
          "name": "_addr",
          "type": "address"
        }
      ],
      "name": "commit_smart_wallet_checker",
      "outputs": [],
      "stateMutability": "nonpayable",
      "type": "function"
    },
    {
      "inputs": [],
      "name": "controller",
      "outputs": [
        {
          "internalType": "address",
          "name": "",
          "type": "address"
        }
      ],
      "stateMutability": "view",
      "type": "function"
    },
    {
      "inputs": [
        {
          "internalType": "uint256",
          "name": "_value",
          "type": "uint256"
        },
        {
          "internalType": "uint256",
          "name": "_unlock_time",
          "type": "uint256"
        }
      ],
      "name": "create_lock",
      "outputs": [],
      "stateMutability": "nonpayable",
      "type": "function"
    },
    {
      "inputs": [],
      "name": "decimals",
      "outputs": [
        {
          "internalType": "uint256",
          "name": "",
          "type": "uint256"
        }
      ],
      "stateMutability": "view",
      "type": "function"
    },
    {
      "inputs": [
        {
          "internalType": "address",
          "name": "_addr",
          "type": "address"
        },
        {
          "internalType": "uint256",
          "name": "_value",
          "type": "uint256"
        }
      ],
      "name": "deposit_for",
      "outputs": [],
      "stateMutability": "nonpayable",
      "type": "function"
    },
    {
      "inputs": [],
      "name": "epoch",
      "outputs": [
        {
          "internalType": "uint256",
          "name": "",
          "type": "uint256"
        }
      ],
      "stateMutability": "view",
      "type": "function"
    },
    {
      "inputs": [],
      "name": "future_smart_wallet_checker",
      "outputs": [
        {
          "internalType": "address",
          "name": "",
          "type": "address"
        }
      ],
      "stateMutability": "view",
      "type": "function"
    },
    {
      "inputs": [
        {
          "internalType": "address",
          "name": "_addr",
          "type": "address"
        }
      ],
      "name": "get_last_user_slope",
      "outputs": [
        {
          "internalType": "uint256",
          "name": "",
          "type": "uint256"
        }
      ],
      "stateMutability": "view",
      "type": "function"
    },
    {
      "inputs": [
        {
          "internalType": "address",
          "name": "_user",
          "type": "address"
        }
      ],
      "name": "get_user_point_epoch",
      "outputs": [
        {
          "internalType": "uint256",
          "name": "",
          "type": "uint256"
        }
      ],
      "stateMutability": "view",
      "type": "function"
    },
    {
      "inputs": [
        {
          "internalType": "uint256",
          "name": "_value",
          "type": "uint256"
        }
      ],
      "name": "increase_amount",
      "outputs": [],
      "stateMutability": "nonpayable",
      "type": "function"
    },
    {
      "inputs": [
        {
          "internalType": "uint256",
          "name": "_unlock_time",
          "type": "uint256"
        }
      ],
      "name": "increase_unlock_time",
      "outputs": [],
      "stateMutability": "nonpayable",
      "type": "function"
    },
    {
      "inputs": [
        {
          "internalType": "address",
          "name": "",
          "type": "address"
        }
      ],
      "name": "locked",
      "outputs": [
        {
          "internalType": "int256",
          "name": "amount",
          "type": "int256"
        },
        {
          "internalType": "uint256",
          "name": "end",
          "type": "uint256"
        }
      ],
      "stateMutability": "view",
      "type": "function"
    },
    {
      "inputs": [
        {
          "internalType": "address",
          "name": "_addr",
          "type": "address"
        }
      ],
      "name": "locked__end",
      "outputs": [
        {
          "internalType": "uint256",
          "name": "",
          "type": "uint256"
        }
      ],
      "stateMutability": "view",
      "type": "function"
    },
    {
      "inputs": [],
      "name": "name",
      "outputs": [
        {
          "internalType": "string",
          "name": "",
          "type": "string"
        }
      ],
      "stateMutability": "view",
      "type": "function"
    },
    {
      "inputs": [],
      "name": "ownership",
      "outputs": [
        {
          "internalType": "contract IOwnership",
          "name": "",
          "type": "address"
        }
      ],
      "stateMutability": "view",
      "type": "function"
    },
    {
      "inputs": [
        {
          "internalType": "uint256",
          "name": "",
          "type": "uint256"
        }
      ],
      "name": "point_history",
      "outputs": [
        {
          "internalType": "int256",
          "name": "bias",
          "type": "int256"
        },
        {
          "internalType": "int256",
          "name": "slope",
          "type": "int256"
        },
        {
          "internalType": "uint256",
          "name": "ts",
          "type": "uint256"
        },
        {
          "internalType": "uint256",
          "name": "blk",
          "type": "uint256"
        }
      ],
      "stateMutability": "view",
      "type": "function"
    },
    {
      "inputs": [
        {
          "internalType": "uint256",
          "name": "",
          "type": "uint256"
        }
      ],
      "name": "slope_changes",
      "outputs": [
        {
          "internalType": "int256",
          "name": "",
          "type": "int256"
        }
      ],
      "stateMutability": "view",
      "type": "function"
    },
    {
      "inputs": [],
      "name": "smart_wallet_checker",
      "outputs": [
        {
          "internalType": "address",
          "name": "",
          "type": "address"
        }
      ],
      "stateMutability": "view",
      "type": "function"
    },
    {
      "inputs": [],
      "name": "supply",
      "outputs": [
        {
          "internalType": "uint256",
          "name": "",
          "type": "uint256"
        }
      ],
      "stateMutability": "view",
      "type": "function"
    },
    {
      "inputs": [],
      "name": "symbol",
      "outputs": [
        {
          "internalType": "string",
          "name": "",
          "type": "string"
        }
      ],
      "stateMutability": "view",
      "type": "function"
    },
    {
      "inputs": [],
      "name": "token",
      "outputs": [
        {
          "internalType": "address",
          "name": "",
          "type": "address"
        }
      ],
      "stateMutability": "view",
      "type": "function"
    },
    {
      "inputs": [],
      "name": "totalSupply",
      "outputs": [
        {
          "internalType": "uint256",
          "name": "",
          "type": "uint256"
        }
      ],
      "stateMutability": "view",
      "type": "function"
    },
    {
      "inputs": [
        {
          "internalType": "uint256",
          "name": "_t",
          "type": "uint256"
        }
      ],
      "name": "totalSupply",
      "outputs": [
        {
          "internalType": "uint256",
          "name": "",
          "type": "uint256"
        }
      ],
      "stateMutability": "view",
      "type": "function"
    },
    {
      "inputs": [
        {
          "internalType": "uint256",
          "name": "_block",
          "type": "uint256"
        }
      ],
      "name": "totalSupplyAt",
      "outputs": [
        {
          "internalType": "uint256",
          "name": "",
          "type": "uint256"
        }
      ],
      "stateMutability": "view",
      "type": "function"
    },
    {
      "inputs": [],
      "name": "transfersEnabled",
      "outputs": [
        {
          "internalType": "bool",
          "name": "",
          "type": "bool"
        }
      ],
      "stateMutability": "view",
      "type": "function"
    },
    {
      "inputs": [
        {
          "internalType": "address",
          "name": "",
          "type": "address"
        }
      ],
      "name": "user_point_epoch",
      "outputs": [
        {
          "internalType": "uint256",
          "name": "",
          "type": "uint256"
        }
      ],
      "stateMutability": "view",
      "type": "function"
    },
    {
      "inputs": [
        {
          "internalType": "address",
          "name": "",
          "type": "address"
        },
        {
          "internalType": "uint256",
          "name": "",
          "type": "uint256"
        }
      ],
      "name": "user_point_history",
      "outputs": [
        {
          "internalType": "int256",
          "name": "bias",
          "type": "int256"
        },
        {
          "internalType": "int256",
          "name": "slope",
          "type": "int256"
        },
        {
          "internalType": "uint256",
          "name": "ts",
          "type": "uint256"
        },
        {
          "internalType": "uint256",
          "name": "blk",
          "type": "uint256"
        }
      ],
      "stateMutability": "view",
      "type": "function"
    },
    {
      "inputs": [
        {
          "internalType": "address",
          "name": "_addr",
          "type": "address"
        },
        {
          "internalType": "uint256",
          "name": "_idx",
          "type": "uint256"
        }
      ],
      "name": "user_point_history__ts",
      "outputs": [
        {
          "internalType": "uint256",
          "name": "",
          "type": "uint256"
        }
      ],
      "stateMutability": "view",
      "type": "function"
    },
    {
      "inputs": [],
      "name": "version",
      "outputs": [
        {
          "internalType": "string",
          "name": "",
          "type": "string"
        }
      ],
      "stateMutability": "view",
      "type": "function"
    },
    {
      "inputs": [],
      "name": "withdraw",
      "outputs": [],
      "stateMutability": "nonpayable",
      "type": "function"
    }
  ],
  "transactionHash": "0xcce3d0ee32f71661774261d6bc915139fbfb3b224c3b56dcde4314dd1aae2597",
  "args": [
    "0x092183fC3337977351F20bddBC1B667e0E2CC365",
    "UnoDao Voting",
    "UnoDaoVE",
    "1",
    "0x25F90a117832f175D302ad291DeDa0327462cCc9"
  ],
  "numDeployments": 1,
  "solcInputHash": "ffcafb6737a44618830fadbcabd1d1da",
  "bytecode": "0x60a06040523480156200001157600080fd5b5060405162002cd538038062002cd58339810160408190526200003491620001d1565b600160008190556001600160a01b0382811660805281546001600160a01b03191690871617905543600855426007556c050c783eb9b5c85f2a800000088054600160a01b6001600160a81b03199091163360ff60a01b1916171790556c050c783eb9b5c85f2a80000009620000aa85826200031a565b506c050c783eb9b5c85f2a8000000a620000c584826200031a565b506c050c783eb9b5c85f2a8000000b620000e083826200031a565b505050505050620003e6565b80516001600160a01b03811681146200010457600080fd5b919050565b634e487b7160e01b600052604160045260246000fd5b600082601f8301126200013157600080fd5b81516001600160401b03808211156200014e576200014e62000109565b604051601f8301601f19908116603f0116810190828211818310171562000179576200017962000109565b81604052838152602092508660208588010111156200019757600080fd5b600091505b83821015620001bb57858201830151818301840152908201906200019c565b6000602085830101528094505050505092915050565b600080600080600060a08688031215620001ea57600080fd5b620001f586620000ec565b60208701519095506001600160401b03808211156200021357600080fd5b6200022189838a016200011f565b955060408801519150808211156200023857600080fd5b6200024689838a016200011f565b945060608801519150808211156200025d57600080fd5b506200026c888289016200011f565b9250506200027d60808701620000ec565b90509295509295909350565b600181811c908216806200029e57607f821691505b602082108103620002bf57634e487b7160e01b600052602260045260246000fd5b50919050565b601f82111562000315576000816000526020600020601f850160051c81016020861015620002f05750805b601f850160051c820191505b818110156200031157828155600101620002fc565b5050505b505050565b81516001600160401b0381111562000336576200033662000109565b6200034e8162000347845462000289565b84620002c5565b602080601f8311600181146200038657600084156200036d5750858301515b600019600386901b1c1916600185901b17855562000311565b600085815260208120601f198616915b82811015620003b75788860151825594840194600190910190840162000396565b5085821015620003d65787850151600019600388901b60f8161c191681555b5050505050600190811b01905550565b6080516128c56200041060003960008181610389015281816110fa015261152201526128c56000f3fe608060405234801561001057600080fd5b506004361061025b5760003560e01c80637175d4f711610145578063bef97c87116100bd578063d5443e9d1161008c578063eff7a61211610071578063eff7a612146105b1578063f77c4791146105c4578063fc0c546a146105e357600080fd5b8063d5443e9d14610569578063da020a181461059e57600080fd5b8063bef97c87146104d1578063c2c4c5c114610512578063cbf9fe5f1461051a578063d1febfb91461055657600080fd5b8063900cf0cf11610114578063981b24d0116100f9578063981b24d01461047f578063adc6358914610492578063bd85b039146104be57600080fd5b8063900cf0cf1461046e57806395d89b411461047757600080fd5b80637175d4f7146104155780637c74a174146104345780638e5b490f146104475780638ff36fd11461044f57600080fd5b80633cebb823116101d857806357f901e2116101a757806365fc38731161018c57806365fc3873146103c357806370a08231146103d657806371197484146103e957600080fd5b806357f901e2146103715780635d03147a1461038457600080fd5b80633cebb823146103305780634957677c146103435780634ee2cd7e1461035657806354fd4d501461036957600080fd5b806318160ddd1161022f578063313ce56711610214578063313ce5671461030b5780633a46273e146103135780633ccfd60b1461032857600080fd5b806318160ddd146102d057806328d09d47146102d857600080fd5b8062fdd58e14610260578063010ae75714610286578063047fc9aa146102b257806306fdde03146102bb575b600080fd5b61027361026e3660046125e9565b6105f6565b6040519081526020015b60405180910390f35b610273610294366004612615565b6c050c783eb9b5c85f2a800000066020526000908152604090205481565b61027360025481565b6102c36106f7565b60405161027d9190612639565b610273610791565b6102eb6102e63660046125e9565b610801565b60408051948552602085019390935291830152606082015260800161027d565b610273601281565b6103266103213660046125e9565b61084a565b005b61032661099c565b61032661033e366004612615565b610ba2565b6103266103513660046126a6565b610c00565b6102736103643660046125e9565b610d47565b6102c36110d5565b61032661037f366004612615565b6110ee565b6103ab7f000000000000000000000000000000000000000000000000000000000000000081565b6040516001600160a01b03909116815260200161027d565b6103266103d13660046126bf565b61123e565b6102736103e4366004612615565b6113cc565b6102736103f73660046126a6565b6c050c783eb9b5c85f2a800000076020526000908152604090205481565b6c050c783eb9b5c85f2a8000000d546103ab906001600160a01b031681565b610273610442366004612615565b6114b7565b610326611516565b6c050c783eb9b5c85f2a8000000c546103ab906001600160a01b031681565b61027360045481565b6102c361166e565b61027361048d3660046126a6565b611687565b6102736104a0366004612615565b6001600160a01b031660009081526003602052604090206001015490565b6102736104cc3660046126a6565b611844565b6c050c783eb9b5c85f2a80000008546105029074010000000000000000000000000000000000000000900460ff1681565b604051901515815260200161027d565b6103266118c1565b610541610528366004612615565b6003602052600090815260409020805460019091015482565b6040805192835260208301919091520161027d565b6102eb6105643660046126a6565b6118f5565b610273610577366004612615565b6001600160a01b031660009081526c050c783eb9b5c85f2a80000006602052604090205490565b6102736105ac3660046125e9565b61192f565b6103266105bf3660046126a6565b611977565b6c050c783eb9b5c85f2a80000008546103ab906001600160a01b031681565b6001546103ab906001600160a01b031681565b600081600003610604574291505b6001600160a01b03831660009081526c050c783eb9b5c85f2a8000000660205260408120549081900361063b5760009150506106f1565b6001600160a01b03841660009081526c050c783eb9b5c85f2a800000056020526040812082633b9aca008110610673576106736126e1565b60408051608081018252600492909202929092018054825260018101546020830152600281015492820183905260030154606082015291506106b5908561270d565b81602001516106c49190612720565b815182906106d390839061276c565b9052508051600013156106e557600081525b5191506106f19050565b505b92915050565b6c050c783eb9b5c85f2a8000000980546107109061278c565b80601f016020809104026020016040519081016040528092919081815260200182805461073c9061278c565b80156107895780601f1061075e57610100808354040283529160200191610789565b820191906000526020600020905b81548152906001019060200180831161076c57829003601f168201915b505050505081565b600454600090816005826c01431e0fae6d7217caa000000081106107b7576107b76126e1565b6004020160405180608001604052908160008201548152602001600182015481526020016002820154815260200160038201548152505090506107fa8142611b18565b9250505090565b6c050c783eb9b5c85f2a8000000560205281600052604060002081633b9aca00811061082c57600080fd5b60040201805460018201546002830154600390930154919450925084565b610852611c00565b600081116108a75760405162461bcd60e51b815260206004820152601860248201527f6465763a206e656564206e6f6e2d7a65726f2076616c7565000000000000000060448201526064015b60405180910390fd5b6001600160a01b03821660009081526003602090815260408083208151808301909252805480835260019091015492820192909252911261092a5760405162461bcd60e51b815260206004820152601660248201527f4e6f206578697374696e67206c6f636b20666f756e6400000000000000000000604482015260640161089e565b4281602001511161097d5760405162461bcd60e51b815260206004820152601b60248201527f43616e6e6f742061646420746f2065787069726564206c6f636b2e0000000000604482015260640161089e565b61098d3384846000856000611c43565b506109986001600055565b5050565b6109a4611c00565b60408051808201825233600081815260036020818152948220805485529290915283526001015491810182905290421015610a215760405162461bcd60e51b815260206004820152601660248201527f546865206c6f636b206469646e27742065787069726500000000000000000000604482015260640161089e565b8051604080518082018252336000818152600360208181529482208054855260018101805487870152868901848152848a52949093529452855190935551909155600254610a6f838261270d565b600255610a7d338386611e15565b6001546040517fa9059cbb000000000000000000000000000000000000000000000000000000008152336004820152602481018590526001600160a01b039091169063a9059cbb906044016020604051808303816000875af1158015610ae7573d6000803e3d6000fd5b505050506040513d601f19601f82011682018060405250810190610b0b91906127c6565b610b1457600080fd5b6040805184815242602082015233917ff279e6a1f5e320cca91135676d9cb6e44ca8a08c0b88342bcdb1144f6511b568910160405180910390a27f5e2aa66efd74cce82b21852e317e5490d9ecc9e6bb953ae24d90851258cc2f5c81610b7a858261270d565b6040805192835260208301919091520160405180910390a150505050610ba06001600055565b565b6c050c783eb9b5c85f2a80000008546001600160a01b03163314610bc557600080fd5b6c050c783eb9b5c85f2a80000008805473ffffffffffffffffffffffffffffffffffffffff19166001600160a01b0392909216919091179055565b610c08611c00565b610c1133612462565b33600090815260036020908152604091829020825180840190935280548352600101549082015281610c855760405162461bcd60e51b815260206004820152601860248201527f6465763a206e656564206e6f6e2d7a65726f2076616c75650000000000000000604482015260640161089e565b8051600012610cd65760405162461bcd60e51b815260206004820152601660248201527f4e6f206578697374696e67206c6f636b20666f756e6400000000000000000000604482015260640161089e565b42816020015111610d295760405162461bcd60e51b815260206004820152601b60248201527f43616e6e6f742061646420746f2065787069726564206c6f636b2e0000000000604482015260640161089e565b610d393333846000856002611c43565b50610d446001600055565b50565b600043821115610d5657600080fd5b610d886040518060a0016040528060008152602001600081526020016000815260200160008152602001600081525090565b60008082526001600160a01b03851681526c050c783eb9b5c85f2a8000000660209081526040822054908301525b60808111610e7057602082015182511015610e705760006002836020015184600001510160010181610dea57610dea6127e8565b6001600160a01b03881660009081526c050c783eb9b5c85f2a80000005602052604090209190049150859082633b9aca008110610e2957610e296126e1565b600402016003015411610e3e57808352610e67565b7fffffffffffffffffffffffffffffffffffffffffffffffffffffffffffffffff810160208401525b50600101610db6565b506001600160a01b03841660009081526c050c783eb9b5c85f2a80000005602052604081208251633b9aca008110610eaa57610eaa6126e1565b6040805160808101825260049283029390930180548452600181015460208501526002810154848301526003015460608401529054908401819052909150600090610ef6908690612566565b905060006005826c01431e0fae6d7217caa00000008110610f1957610f196126e1565b6004020160405180608001604052908160008201548152602001600182015481526020016002820154815260200160038201548152505090506000846060018181525050600084608001818152505083604001518210156110105760006005610f838460016127fe565b6c01431e0fae6d7217caa00000008110610f9f57610f9f6126e1565b60040201604051806080016040529081600082015481526020016001820154815260200160028201548152602001600382015481525050905081606001518160600151610fec919061270d565b606086015260408083015190820151611005919061270d565b608086015250611039565b606081015161101f904361270d565b60608501526040810151611033904261270d565b60808501525b604081015160608501511561108357846060015182606001518861105d919061270d565b866080015161106c9190612811565b6110769190612828565b61108090826127fe565b90505b6040840151611092908261270d565b84602001516110a19190612720565b845185906110b090839061276c565b90525083516000136110ca575050905192506106f1915050565b505050505092915050565b6c050c783eb9b5c85f2a8000000b80546107109061278c565b336001600160a01b03167f00000000000000000000000000000000000000000000000000000000000000006001600160a01b0316638da5cb5b6040518163ffffffff1660e01b8152600401602060405180830381865afa158015611156573d6000803e3d6000fd5b505050506040513d601f19601f8201168201806040525081019061117a919061284a565b6001600160a01b0316146111d05760405162461bcd60e51b815260206004820181905260248201527f43616c6c6572206973206e6f7420616c6c6f77656420746f206f706572617465604482015260640161089e565b6c050c783eb9b5c85f2a8000000c805473ffffffffffffffffffffffffffffffffffffffff19166001600160a01b0383169081179091556040519081527fd892557f2b4602e6f5c9bd6c7231cbc9f3d9a7dd4dd23a84a951d7460f8e868b906020015b60405180910390a150565b611246611c00565b61124f33612462565b6000811180156112635750630784ce008111155b6112d55760405162461bcd60e51b815260206004820152603f60248201527f43616e206c6f636b20756e74696c2074696d6520696e20667574757265206f7260448201527f20566f74696e67206c6f636b2063616e2062652034207965617273206d617800606482015260840161089e565b62093a806112e38183612828565b6112ed9190612811565b6112f790426127fe565b3360009081526003602090815260409182902082518084019093528054835260010154908201529091508261136e5760405162461bcd60e51b815260206004820152601860248201527f6465763a206e656564206e6f6e2d7a65726f2076616c75650000000000000000604482015260640161089e565b8051156113bd5760405162461bcd60e51b815260206004820152601960248201527f5769746864726177206f6c6420746f6b656e7320666972737400000000000000604482015260640161089e565b61098d33338585856001611c43565b6001600160a01b03811660009081526c050c783eb9b5c85f2a8000000660205260408120544290808303611404575060009392505050565b6001600160a01b03841660009081526c050c783eb9b5c85f2a800000056020526040812082633b9aca00811061143c5761143c6126e1565b604080516080810182526004929092029290920180548252600181015460208301526002810154928201839052600301546060820152915061147e908461270d565b816020015161148d9190612720565b8151829061149c90839061276c565b9052508051600013156114ae57600081525b51949350505050565b6001600160a01b03811660009081526c050c783eb9b5c85f2a8000000660209081526040808320546c050c783eb9b5c85f2a80000005909252822081633b9aca008110611506576115066126e1565b6004020160010154915050919050565b336001600160a01b03167f00000000000000000000000000000000000000000000000000000000000000006001600160a01b0316638da5cb5b6040518163ffffffff1660e01b8152600401602060405180830381865afa15801561157e573d6000803e3d6000fd5b505050506040513d601f19601f820116820180604052508101906115a2919061284a565b6001600160a01b0316146115f85760405162461bcd60e51b815260206004820181905260248201527f43616c6c6572206973206e6f7420616c6c6f77656420746f206f706572617465604482015260640161089e565b6c050c783eb9b5c85f2a8000000c546c050c783eb9b5c85f2a8000000d805473ffffffffffffffffffffffffffffffffffffffff19166001600160a01b0390921691821790556040518181527fd892557f2b4602e6f5c9bd6c7231cbc9f3d9a7dd4dd23a84a951d7460f8e868b90602001611233565b6c050c783eb9b5c85f2a8000000a80546107109061278c565b60004382111561169657600080fd5b60045460006116a58483612566565b905060006005826c01431e0fae6d7217caa000000081106116c8576116c86126e1565b6004020160405180608001604052908160008201548152602001600182015481526020016002820154815260200160038201548152505090506000838310156117d2576000600561171a8560016127fe565b6c01431e0fae6d7217caa00000008110611736576117366126e1565b60040201604051806080016040529081600082015481526020016001820154815260200160028201548152602001600382015481525050905080606001518360600151146117cc5782606001518160600151611792919061270d565b836040015182604001516117a6919061270d565b60608501516117b5908a61270d565b6117bf9190612811565b6117c99190612828565b91505b50611821565b438260600151146118215760608201516117ec904361270d565b60408301516117fb904261270d565b606084015161180a908961270d565b6118149190612811565b61181e9190612828565b90505b61183a8282846040015161183591906127fe565b611b18565b9695505050505050565b600081600003611852574291505b60045460006005826c01431e0fae6d7217caa00000008110611876576118766126e1565b6004020160405180608001604052908160008201548152602001600182015481526020016002820154815260200160038201548152505090506118b98185611b18565b949350505050565b6040805180820190915260008082526020820152604080518082019091526000808252602082015261099860008383611e15565b6005816c01431e0fae6d7217caa0000000811061191157600080fd5b60040201805460018201546002830154600390930154919350919084565b6001600160a01b03821660009081526c050c783eb9b5c85f2a800000056020526040812082633b9aca008110611967576119676126e1565b6004020160020154905092915050565b61197f611c00565b61198833612462565b336000908152600360209081526040918290208251808401909352805483526001015490820181905242106119ff5760405162461bcd60e51b815260206004820152600c60248201527f4c6f636b20657870697265640000000000000000000000000000000000000000604482015260640161089e565b8051600012611a505760405162461bcd60e51b815260206004820152601160248201527f4e6f7468696e67206973206c6f636b6564000000000000000000000000000000604482015260640161089e565b600082118015611a645750630784ce008211155b611afc5760405162461bcd60e51b815260206004820152604160248201527f43616e206f6e6c7920696e637265617365206c6f636b206475726174696f6e2060448201527f6f7220566f74696e67206c6f636b2063616e2062652034207965617273206d6160648201527f7800000000000000000000000000000000000000000000000000000000000000608482015260a40161089e565b62093a808083040242019150610d393333600085856003611c43565b600080839050600062093a8080836040015181611b3757611b376127e8565b0402905060005b60ff811015611be757611b5462093a80836127fe565b9150600085831115611b6857859250611b85565b5060008281526c050c783eb9b5c85f2a8000000760205260409020545b6040840151611b94908461270d565b8460200151611ba39190612720565b84518590611bb290839061276c565b905250858303611bc25750611be7565b8084602001818151611bd49190612867565b9052505060408301829052600101611b3e565b50815160001315611bf757600082525b50519392505050565b600260005403611c3c576040517f3ee5aeb500000000000000000000000000000000000000000000000000000000815260040160405180910390fd5b6002600055565b6040805180820182528351815260208085018051828401528351808501909452855184525190830152600254909190611c7c87826127fe565b6002558251611c8c908890612867565b83528515611c9c57602083018690525b6001600160a01b03881660009081526003602090815260409091208451815590840151600190910155611cd0888385611e15565b8615611d75576001546040517f23b872dd0000000000000000000000000000000000000000000000000000000081526001600160a01b038b81166004830152306024830152604482018a9052909116906323b872dd906064016020604051808303816000875af1158015611d48573d6000803e3d6000fd5b505050506040513d601f19601f82011682018060405250810190611d6c91906127c6565b611d7557600080fd5b602080840151604080518a81529283018790524290830152906001600160a01b038a16907f25a2cd6979bf1e8caf0d1ced1c5b3b70e9870bc562e6cfd5c551d71e24fb19ea9060600160405180910390a37f5e2aa66efd74cce82b21852e317e5490d9ecc9e6bb953ae24d90851258cc2f5c81611df289826127fe565b6040805192835260208301919091520160405180910390a1505050505050505050565b611e406040518060800160405280600081526020016000815260200160008152602001600081525090565b611e6b6040518060800160405280600081526020016000815260200160008152602001600081525090565b60045460009081906001600160a01b03881615611f7f57428760200151118015611e96575086516000125b15611ecd578651630784ce009005602080870191909152870151611ebb90429061270d565b8560200151611eca9190612720565b85525b428660200151118015611ee1575085516000125b15611f18578551630784ce009005602080860191909152860151611f0690429061270d565b8460200151611f159190612720565b84525b60208088015160009081526c050c783eb9b5c85f2a80000007825260409020549087015190935015611f7f578660200151866020015103611f5b57829150611f7f565b60208087015160009081526c050c783eb9b5c85f2a80000007909152604090205491505b604080516080810182526000808252602082015242918101919091524360608201528115612000576005826c01431e0fae6d7217caa00000008110611fc657611fc66126e1565b6004020160405180608001604052908160008201548152602001600182015481526020016002820154815260200160038201548152505090505b60408101518160004283101561204d57604084015161201f904261270d565b606085015161202e904361270d565b61204090670de0b6b3a7640000612811565b61204a9190612828565b90505b62093a808084040260005b60ff8110156121c55761206e62093a80836127fe565b91506000428311156120825742925061209f565b5060008281526c050c783eb9b5c85f2a8000000760205260409020545b6120a9868461270d565b87602001516120b89190612720565b87516120c4919061276c565b87526020870180518291906120da908390612867565b9052508651600013156120ec57600087525b60008760200151121561210157600060208801525b60408088018490528501519295508592670de0b6b3a764000090612125908561270d565b61212f9086612811565b6121399190612828565b856060015161214891906127fe565b60608801526121586001896127fe565b975042830361216d57504360608701526121c5565b866005896c01431e0fae6d7217caa0000000811061218d5761218d6126e1565b600402016000820151816000015560208201518160010155604082015181600201556060820151816003015590505050600101612058565b5060048690556001600160a01b038d161561224657896020015189602001516121ee919061276c565b856020018181516121ff9190612867565b90525089518951612210919061276c565b8551869061221f908390612867565b90525060208501516000131561223757600060208601525b84516000131561224657600085525b846005876c01431e0fae6d7217caa00000008110612266576122666126e1565b82516004919091029190910190815560208201516001820155604082015160028201556060909101516003909101558c6001600160a01b0381161561245257428d6020015111156123075760208b01516122c0908a612867565b98508c602001518c60200151036122e35760208a01516122e0908a61276c565b98505b6020808e015160009081526c050c783eb9b5c85f2a80000007909152604090208990555b428c602001511115612358578c602001518c6020015111156123585760208a0151612332908961276c565b6020808e015160009081526c050c783eb9b5c85f2a800000079091526040902081905597505b60006c050c783eb9b5c85f2a800000066000836001600160a01b03166001600160a01b03168152602001908152602001600020546001019050806c050c783eb9b5c85f2a800000066000846001600160a01b03166001600160a01b0316815260200190815260200160002081905550428b6040018181525050438b60600181815250508a6c050c783eb9b5c85f2a800000056000846001600160a01b03166001600160a01b0316815260200190815260200160002082633b9aca008110612421576124216126e1565b6004020160008201518160000155602082015181600101556040820151816002015560608201518160030155905050505b5050505050505050505050505050565b6001600160a01b0381163214610d44576c050c783eb9b5c85f2a8000000d546001600160a01b0316801561251e576040517fc23697a80000000000000000000000000000000000000000000000000000000081526001600160a01b03838116600483015282169063c23697a8906024016020604051808303816000875af11580156124f1573d6000803e3d6000fd5b505050506040513d601f19601f8201168201806040525081019061251591906127c6565b1561251e575050565b60405162461bcd60e51b815260206004820152601f60248201527f636f6e7472616374206465706f7369746f7273206e6f7420616c6c6f77656400604482015260640161089e565b60008082815b608081116125ca57818310156125ca57600282840160010104866005826c01431e0fae6d7217caa000000081106125a5576125a56126e1565b6004020160030154116125ba578093506125c1565b6001810392505b5060010161256c565b5090949350505050565b6001600160a01b0381168114610d4457600080fd5b600080604083850312156125fc57600080fd5b8235612607816125d4565b946020939093013593505050565b60006020828403121561262757600080fd5b8135612632816125d4565b9392505050565b60006020808352835180602085015260005b818110156126675785810183015185820160400152820161264b565b5060006040828601015260407fffffffffffffffffffffffffffffffffffffffffffffffffffffffffffffffe0601f8301168501019250505092915050565b6000602082840312156126b857600080fd5b5035919050565b600080604083850312156126d257600080fd5b50508035926020909101359150565b634e487b7160e01b600052603260045260246000fd5b634e487b7160e01b600052601160045260246000fd5b818103818111156106f1576106f16126f7565b808202600082127f800000000000000000000000000000000000000000000000000000000000000084141615612758576127586126f7565b81810583148215176106f1576106f16126f7565b81810360008312801583831316838312821617156106ef576106ef6126f7565b600181811c908216806127a057607f821691505b6020821081036127c057634e487b7160e01b600052602260045260246000fd5b50919050565b6000602082840312156127d857600080fd5b8151801515811461263257600080fd5b634e487b7160e01b600052601260045260246000fd5b808201808211156106f1576106f16126f7565b80820281158282048414176106f1576106f16126f7565b60008261284557634e487b7160e01b600052601260045260246000fd5b500490565b60006020828403121561285c57600080fd5b8151612632816125d4565b8082018281126000831280158216821582161715612887576128876126f7565b50509291505056fea26469706673582212200106509aa03fdf4564d10d6d97619d79ab223899146322d4355e6b26fb3e4d9c64736f6c63430008170033",
  "devdoc": {
    "errors": {
      "ReentrancyGuardReentrantCall()": [
        {
          "details": "Unauthorized reentrant call."
        }
      ]
    },
    "kind": "dev",
    "methods": {},
    "version": 1
  },
  "userdoc": {
    "kind": "user",
    "methods": {},
    "version": 1
  },
  "storageLayout": {
    "storage": [
      {
        "astId": 1906,
        "contract": "contracts/VotingEscrow.sol:VotingEscrow",
        "label": "_status",
        "offset": 0,
        "slot": "0",
        "type": "t_uint256"
      },
      {
        "astId": 2196,
        "contract": "contracts/VotingEscrow.sol:VotingEscrow",
        "label": "token",
        "offset": 0,
        "slot": "1",
        "type": "t_address"
      },
      {
        "astId": 2198,
        "contract": "contracts/VotingEscrow.sol:VotingEscrow",
        "label": "supply",
        "offset": 0,
        "slot": "2",
        "type": "t_uint256"
      },
      {
        "astId": 2203,
        "contract": "contracts/VotingEscrow.sol:VotingEscrow",
        "label": "locked",
        "offset": 0,
        "slot": "3",
        "type": "t_mapping(t_address,t_struct(LockedBalance)2123_storage)"
      },
      {
        "astId": 2205,
        "contract": "contracts/VotingEscrow.sol:VotingEscrow",
        "label": "epoch",
        "offset": 0,
        "slot": "4",
        "type": "t_uint256"
      },
      {
        "astId": 2210,
        "contract": "contracts/VotingEscrow.sol:VotingEscrow",
        "label": "point_history",
        "offset": 0,
        "slot": "5",
        "type": "t_array(t_struct(Point)2118_storage)100000000000000000000000000000_storage"
      },
      {
        "astId": 2217,
        "contract": "contracts/VotingEscrow.sol:VotingEscrow",
        "label": "user_point_history",
        "offset": 0,
        "slot": "400000000000000000000000000005",
        "type": "t_mapping(t_address,t_array(t_struct(Point)2118_storage)1000000000_storage)"
      },
      {
        "astId": 2221,
        "contract": "contracts/VotingEscrow.sol:VotingEscrow",
        "label": "user_point_epoch",
        "offset": 0,
        "slot": "400000000000000000000000000006",
        "type": "t_mapping(t_address,t_uint256)"
      },
      {
        "astId": 2225,
        "contract": "contracts/VotingEscrow.sol:VotingEscrow",
        "label": "slope_changes",
        "offset": 0,
        "slot": "400000000000000000000000000007",
        "type": "t_mapping(t_uint256,t_int256)"
      },
      {
        "astId": 2227,
        "contract": "contracts/VotingEscrow.sol:VotingEscrow",
        "label": "controller",
        "offset": 0,
        "slot": "400000000000000000000000000008",
        "type": "t_address"
      },
      {
        "astId": 2229,
        "contract": "contracts/VotingEscrow.sol:VotingEscrow",
        "label": "transfersEnabled",
        "offset": 20,
        "slot": "400000000000000000000000000008",
        "type": "t_bool"
      },
      {
        "astId": 2231,
        "contract": "contracts/VotingEscrow.sol:VotingEscrow",
        "label": "name",
        "offset": 0,
        "slot": "400000000000000000000000000009",
        "type": "t_string_storage"
      },
      {
        "astId": 2233,
        "contract": "contracts/VotingEscrow.sol:VotingEscrow",
        "label": "symbol",
        "offset": 0,
        "slot": "400000000000000000000000000010",
        "type": "t_string_storage"
      },
      {
        "astId": 2235,
        "contract": "contracts/VotingEscrow.sol:VotingEscrow",
        "label": "version",
        "offset": 0,
        "slot": "400000000000000000000000000011",
        "type": "t_string_storage"
      },
      {
        "astId": 2240,
        "contract": "contracts/VotingEscrow.sol:VotingEscrow",
        "label": "future_smart_wallet_checker",
        "offset": 0,
        "slot": "400000000000000000000000000012",
        "type": "t_address"
      },
      {
        "astId": 2242,
        "contract": "contracts/VotingEscrow.sol:VotingEscrow",
        "label": "smart_wallet_checker",
        "offset": 0,
        "slot": "400000000000000000000000000013",
        "type": "t_address"
      }
    ],
    "types": {
      "t_address": {
        "encoding": "inplace",
        "label": "address",
        "numberOfBytes": "20"
      },
      "t_array(t_struct(Point)2118_storage)100000000000000000000000000000_storage": {
        "base": "t_struct(Point)2118_storage",
        "encoding": "inplace",
        "label": "struct VotingEscrow.Point[100000000000000000000000000000]",
        "numberOfBytes": "12800000000000000000000000000000"
      },
      "t_array(t_struct(Point)2118_storage)1000000000_storage": {
        "base": "t_struct(Point)2118_storage",
        "encoding": "inplace",
        "label": "struct VotingEscrow.Point[1000000000]",
        "numberOfBytes": "128000000000"
      },
      "t_bool": {
        "encoding": "inplace",
        "label": "bool",
        "numberOfBytes": "1"
      },
      "t_int256": {
        "encoding": "inplace",
        "label": "int256",
        "numberOfBytes": "32"
      },
      "t_mapping(t_address,t_array(t_struct(Point)2118_storage)1000000000_storage)": {
        "encoding": "mapping",
        "key": "t_address",
        "label": "mapping(address => struct VotingEscrow.Point[1000000000])",
        "numberOfBytes": "32",
        "value": "t_array(t_struct(Point)2118_storage)1000000000_storage"
      },
      "t_mapping(t_address,t_struct(LockedBalance)2123_storage)": {
        "encoding": "mapping",
        "key": "t_address",
        "label": "mapping(address => struct VotingEscrow.LockedBalance)",
        "numberOfBytes": "32",
        "value": "t_struct(LockedBalance)2123_storage"
      },
      "t_mapping(t_address,t_uint256)": {
        "encoding": "mapping",
        "key": "t_address",
        "label": "mapping(address => uint256)",
        "numberOfBytes": "32",
        "value": "t_uint256"
      },
      "t_mapping(t_uint256,t_int256)": {
        "encoding": "mapping",
        "key": "t_uint256",
        "label": "mapping(uint256 => int256)",
        "numberOfBytes": "32",
        "value": "t_int256"
      },
      "t_string_storage": {
        "encoding": "bytes",
        "label": "string",
        "numberOfBytes": "32"
      },
      "t_struct(LockedBalance)2123_storage": {
        "encoding": "inplace",
        "label": "struct VotingEscrow.LockedBalance",
        "members": [
          {
            "astId": 2120,
            "contract": "contracts/VotingEscrow.sol:VotingEscrow",
            "label": "amount",
            "offset": 0,
            "slot": "0",
            "type": "t_int256"
          },
          {
            "astId": 2122,
            "contract": "contracts/VotingEscrow.sol:VotingEscrow",
            "label": "end",
            "offset": 0,
            "slot": "1",
            "type": "t_uint256"
          }
        ],
        "numberOfBytes": "64"
      },
      "t_struct(Point)2118_storage": {
        "encoding": "inplace",
        "label": "struct VotingEscrow.Point",
        "members": [
          {
            "astId": 2111,
            "contract": "contracts/VotingEscrow.sol:VotingEscrow",
            "label": "bias",
            "offset": 0,
            "slot": "0",
            "type": "t_int256"
          },
          {
            "astId": 2113,
            "contract": "contracts/VotingEscrow.sol:VotingEscrow",
            "label": "slope",
            "offset": 0,
            "slot": "1",
            "type": "t_int256"
          },
          {
            "astId": 2115,
            "contract": "contracts/VotingEscrow.sol:VotingEscrow",
            "label": "ts",
            "offset": 0,
            "slot": "2",
            "type": "t_uint256"
          },
          {
            "astId": 2117,
            "contract": "contracts/VotingEscrow.sol:VotingEscrow",
            "label": "blk",
            "offset": 0,
            "slot": "3",
            "type": "t_uint256"
          }
        ],
        "numberOfBytes": "128"
      },
      "t_uint256": {
        "encoding": "inplace",
        "label": "uint256",
        "numberOfBytes": "32"
      }
    }
  }
}