{
  "address": "0x5D5e8f283be3eb0550f7523a4AACE357DdCC9CF9",
  "abi": [
    {
      "inputs": [
        {
          "internalType": "contract IVeUnoDaoYieldDistributor",
          "name": "_yieldDistributor",
          "type": "address"
        },
        {
          "internalType": "contract IERC20",
          "name": "_uno",
          "type": "address"
        },
        {
          "internalType": "contract IERC20",
          "name": "_veUno",
          "type": "address"
        },
        {
          "internalType": "address",
          "name": "_admin",
          "type": "address"
        }
      ],
      "stateMutability": "nonpayable",
      "type": "constructor"
    },
    {
      "anonymous": false,
      "inputs": [
        {
          "indexed": false,
          "internalType": "uint256",
          "name": "apy",
          "type": "uint256"
        }
      ],
      "name": "ApyUpdated",
      "type": "event"
    },
    {
      "anonymous": false,
      "inputs": [
        {
          "indexed": true,
          "internalType": "address",
          "name": "user",
          "type": "address"
        },
        {
          "indexed": false,
          "internalType": "uint256",
          "name": "amount",
          "type": "uint256"
        }
      ],
      "name": "NotifyRewardExecuted",
      "type": "event"
    },
    {
      "anonymous": false,
      "inputs": [
        {
          "indexed": true,
          "internalType": "bytes32",
          "name": "role",
          "type": "bytes32"
        },
        {
          "indexed": true,
          "internalType": "bytes32",
          "name": "previousAdminRole",
          "type": "bytes32"
        },
        {
          "indexed": true,
          "internalType": "bytes32",
          "name": "newAdminRole",
          "type": "bytes32"
        }
      ],
      "name": "RoleAdminChanged",
      "type": "event"
    },
    {
      "anonymous": false,
      "inputs": [
        {
          "indexed": true,
          "internalType": "bytes32",
          "name": "role",
          "type": "bytes32"
        },
        {
          "indexed": true,
          "internalType": "address",
          "name": "account",
          "type": "address"
        },
        {
          "indexed": true,
          "internalType": "address",
          "name": "sender",
          "type": "address"
        }
      ],
      "name": "RoleGranted",
      "type": "event"
    },
    {
      "anonymous": false,
      "inputs": [
        {
          "indexed": true,
          "internalType": "bytes32",
          "name": "role",
          "type": "bytes32"
        },
        {
          "indexed": true,
          "internalType": "address",
          "name": "account",
          "type": "address"
        },
        {
          "indexed": true,
          "internalType": "address",
          "name": "sender",
          "type": "address"
        }
      ],
      "name": "RoleRevoked",
      "type": "event"
    },
    {
      "inputs": [],
      "name": "APY_BASE",
      "outputs": [
        {
          "internalType": "uint256",
          "name": "",
          "type": "uint256"
        }
      ],
      "stateMutability": "view",
      "type": "function"
    },
    {
      "inputs": [],
      "name": "DEFAULT_ADMIN_ROLE",
      "outputs": [
        {
          "internalType": "bytes32",
          "name": "",
          "type": "bytes32"
        }
      ],
      "stateMutability": "view",
      "type": "function"
    },
    {
      "inputs": [],
      "name": "EXECUTOR_ROLE",
      "outputs": [
        {
          "internalType": "bytes32",
          "name": "",
          "type": "bytes32"
        }
      ],
      "stateMutability": "view",
      "type": "function"
    },
    {
      "inputs": [],
      "name": "SECONDS_IN_YEAR",
      "outputs": [
        {
          "internalType": "uint256",
          "name": "",
          "type": "uint256"
        }
      ],
      "stateMutability": "view",
      "type": "function"
    },
    {
      "inputs": [],
      "name": "apy",
      "outputs": [
        {
          "internalType": "uint256",
          "name": "",
          "type": "uint256"
        }
      ],
      "stateMutability": "view",
      "type": "function"
    },
    {
      "inputs": [
        {
          "internalType": "address",
          "name": "_user",
          "type": "address"
        }
      ],
      "name": "execNotifyReward",
      "outputs": [],
      "stateMutability": "nonpayable",
      "type": "function"
    },
    {
      "inputs": [],
      "name": "getRewardAmount",
      "outputs": [
        {
          "internalType": "uint256",
          "name": "",
          "type": "uint256"
        }
      ],
      "stateMutability": "view",
      "type": "function"
    },
    {
      "inputs": [
        {
          "internalType": "bytes32",
          "name": "role",
          "type": "bytes32"
        }
      ],
      "name": "getRoleAdmin",
      "outputs": [
        {
          "internalType": "bytes32",
          "name": "",
          "type": "bytes32"
        }
      ],
      "stateMutability": "view",
      "type": "function"
    },
    {
      "inputs": [
        {
          "internalType": "bytes32",
          "name": "role",
          "type": "bytes32"
        },
        {
          "internalType": "address",
          "name": "account",
          "type": "address"
        }
      ],
      "name": "grantRole",
      "outputs": [],
      "stateMutability": "nonpayable",
      "type": "function"
    },
    {
      "inputs": [
        {
          "internalType": "bytes32",
          "name": "role",
          "type": "bytes32"
        },
        {
          "internalType": "address",
          "name": "account",
          "type": "address"
        }
      ],
      "name": "hasRole",
      "outputs": [
        {
          "internalType": "bool",
          "name": "",
          "type": "bool"
        }
      ],
      "stateMutability": "view",
      "type": "function"
    },
    {
      "inputs": [
        {
          "internalType": "bytes32",
          "name": "role",
          "type": "bytes32"
        },
        {
          "internalType": "address",
          "name": "account",
          "type": "address"
        }
      ],
      "name": "renounceRole",
      "outputs": [],
      "stateMutability": "nonpayable",
      "type": "function"
    },
    {
      "inputs": [
        {
          "internalType": "bytes32",
          "name": "role",
          "type": "bytes32"
        },
        {
          "internalType": "address",
          "name": "account",
          "type": "address"
        }
      ],
      "name": "revokeRole",
      "outputs": [],
      "stateMutability": "nonpayable",
      "type": "function"
    },
    {
      "inputs": [
        {
          "internalType": "bytes4",
          "name": "interfaceId",
          "type": "bytes4"
        }
      ],
      "name": "supportsInterface",
      "outputs": [
        {
          "internalType": "bool",
          "name": "",
          "type": "bool"
        }
      ],
      "stateMutability": "view",
      "type": "function"
    },
    {
      "inputs": [],
      "name": "uno",
      "outputs": [
        {
          "internalType": "contract IERC20",
          "name": "",
          "type": "address"
        }
      ],
      "stateMutability": "view",
      "type": "function"
    },
    {
      "inputs": [
        {
          "internalType": "uint256",
          "name": "_apy",
          "type": "uint256"
        }
      ],
      "name": "updateApy",
      "outputs": [],
      "stateMutability": "nonpayable",
      "type": "function"
    },
    {
      "inputs": [],
      "name": "veUno",
      "outputs": [
        {
          "internalType": "contract IERC20",
          "name": "",
          "type": "address"
        }
      ],
      "stateMutability": "view",
      "type": "function"
    },
    {
      "inputs": [],
      "name": "yieldDistributor",
      "outputs": [
        {
          "internalType": "contract IVeUnoDaoYieldDistributor",
          "name": "",
          "type": "address"
        }
      ],
      "stateMutability": "view",
      "type": "function"
    }
  ],
  "transactionHash": "0x3cf76ef334aaa67d5fe7cb13ac0156d45bc7db69399a7665c0f4db7d3a79cad4",
  "args": [
    "0x50A7C5A1a143E7Ada93b6F69027Fe329869A75f1",
    "0x474021845C4643113458ea4414bdb7fB74A01A77",
    "0xBdBC1af93D95909625b18775b14c7D21E00775Aa",
    "0x440365317Cc5CA4D26288f708B07ef79cea80474"
  ],
  "numDeployments": 1,
  "solcInputHash": "e94beb7a89ea333a4a7bdd59b040c50b",
  "bytecode": "0x60e06040523480156200001157600080fd5b50604051620013d9380380620013d983398101604081905262000034916200011e565b6001600160a01b0380851660805283811660a052821660c0526200005a60008262000064565b5050505062000186565b6000828152602081815260408083206001600160a01b038516845290915290205460ff1662000101576000828152602081815260408083206001600160a01b03851684529091529020805460ff19166001179055620000c03390565b6001600160a01b0316816001600160a01b0316837f2f8788117e7eff1d82e926ec794901d17c78024a50270940304540a733656f0d60405160405180910390a45b5050565b6001600160a01b03811681146200011b57600080fd5b50565b600080600080608085870312156200013557600080fd5b8451620001428162000105565b6020860151909450620001558162000105565b6040860151909350620001688162000105565b60608601519092506200017b8162000105565b939692955090935050565b60805160a05160c0516111eb620001ee6000396000818161020d01526102fa01526000818161017a015281816106f9015261076701526000818161026d015281816103800152818161043d015281816104d70152818161073801526107eb01526111eb6000f3fe608060405234801561001057600080fd5b506004361061010b5760003560e01c80634a066b57116100a2578063a217fddf11610071578063a217fddf14610260578063a38c2c3d14610268578063d547741f1461028f578063f57d35c2146102a2578063ff16ef39146102ab57600080fd5b80634a066b57146102085780635dcc93911461022f57806391d148541461023a5780639c5d370d1461024d57600080fd5b8063248a9ca3116100de578063248a9ca3146101b45780632f2ff15d146101d757806336568abe146101ec5780633bcfc4b8146101ff57600080fd5b806301ffc9a71461011057806307bd02651461013857806309a69f571461016d578063184c696514610175575b600080fd5b61012361011e366004610f1b565b6102be565b60405190151581526020015b60405180910390f35b61015f7fd8aa0f3194971a2a116679f7c2090f6939c8d4e01a2a8d7e41d55e5351469e6381565b60405190815260200161012f565b61015f6102f5565b61019c7f000000000000000000000000000000000000000000000000000000000000000081565b6040516001600160a01b03909116815260200161012f565b61015f6101c2366004610f45565b60009081526020819052604090206001015490565b6101ea6101e5366004610f7a565b610593565b005b6101ea6101fa366004610f7a565b6105bd565b61015f60015481565b61019c7f000000000000000000000000000000000000000000000000000000000000000081565b61015f6301e1338081565b610123610248366004610f7a565b610640565b6101ea61025b366004610fa6565b610669565b61015f600081565b61019c7f000000000000000000000000000000000000000000000000000000000000000081565b6101ea61029d366004610f7a565b610897565b61015f61271081565b6101ea6102b9366004610f45565b6108bc565b60006001600160e01b03198216637965db0b60e01b14806102ef57506301ffc9a760e01b6001600160e01b03198316145b92915050565b6000807f00000000000000000000000000000000000000000000000000000000000000006001600160a01b03166318160ddd6040518163ffffffff1660e01b8152600401602060405180830381865afa158015610356573d6000803e3d6000fd5b505050506040513d601f19601f8201168201806040525081019061037a9190610fc1565b905060007f00000000000000000000000000000000000000000000000000000000000000006001600160a01b031663e172cf216040518163ffffffff1660e01b8152600401602060405180830381865afa1580156103dc573d6000803e3d6000fd5b505050506040513d601f19601f820116820180604052508101906104009190610fc1565b905060006104146301e13380612710610ff0565b82600154856104239190610ff0565b61042d9190610ff0565b610437919061100f565b905060007f00000000000000000000000000000000000000000000000000000000000000006001600160a01b031663ebe2b12b6040518163ffffffff1660e01b8152600401602060405180830381865afa158015610499573d6000803e3d6000fd5b505050506040513d601f19601f820116820180604052508101906104bd9190610fc1565b90504281111561058b576104d14282611031565b905060007f00000000000000000000000000000000000000000000000000000000000000006001600160a01b0316636999ac936040518163ffffffff1660e01b8152600401602060405180830381865afa158015610533573d6000803e3d6000fd5b505050506040513d601f19601f820116820180604052508101906105579190610fc1565b905060006105658284610ff0565b90508381111561057c576000965050505050505090565b6105868185611031565b935050505b509392505050565b6000828152602081905260409020600101546105ae81610955565b6105b88383610962565b505050565b6001600160a01b03811633146106325760405162461bcd60e51b815260206004820152602f60248201527f416363657373436f6e74726f6c3a2063616e206f6e6c792072656e6f756e636560448201526e103937b632b9903337b91039b2b63360891b60648201526084015b60405180910390fd5b61063c82826109e6565b5050565b6000918252602082815260408084206001600160a01b0393909316845291905290205460ff1690565b7fd8aa0f3194971a2a116679f7c2090f6939c8d4e01a2a8d7e41d55e5351469e6361069381610955565b600061069d6102f5565b9050806106ec5760405162461bcd60e51b815260206004820152601e60248201527f4e6f7469667952657761726450726f78793a207a65726f2072657761726400006044820152606401610629565b6107216001600160a01b037f000000000000000000000000000000000000000000000000000000000000000016843084610a4b565b60405163095ea7b360e01b81526001600160a01b037f000000000000000000000000000000000000000000000000000000000000000081166004830152602482018390527f0000000000000000000000000000000000000000000000000000000000000000169063095ea7b3906044016020604051808303816000875af11580156107b0573d6000803e3d6000fd5b505050506040513d601f19601f820116820180604052508101906107d49190611048565b50604051633c6b16ab60e01b8152600481018290527f00000000000000000000000000000000000000000000000000000000000000006001600160a01b031690633c6b16ab90602401600060405180830381600087803b15801561083757600080fd5b505af115801561084b573d6000803e3d6000fd5b50505050826001600160a01b03167f04dc75f5059322c1174cf058f31ab7ec0367ae88ef69bfb9979bd099046652d18260405161088a91815260200190565b60405180910390a2505050565b6000828152602081905260409020600101546108b281610955565b6105b883836109e6565b60006108c781610955565b6127108211156109195760405162461bcd60e51b815260206004820152601e60248201527f4e6f7469667952657761726450726f78793a20696e76616c69642041505900006044820152606401610629565b60018290556040518281527febdc8ce7038cacbcc77a4f91f4844c9dda6c4319afb91ede186f5494420ec8b69060200160405180910390a15050565b61095f8133610aab565b50565b61096c8282610640565b61063c576000828152602081815260408083206001600160a01b03851684529091529020805460ff191660011790556109a23390565b6001600160a01b0316816001600160a01b0316837f2f8788117e7eff1d82e926ec794901d17c78024a50270940304540a733656f0d60405160405180910390a45050565b6109f08282610640565b1561063c576000828152602081815260408083206001600160a01b0385168085529252808320805460ff1916905551339285917ff6391f5c32d9c69d2a47ea670b442974b53935d1edc7fd64eb21e047a839171b9190a45050565b604080516001600160a01b0385811660248301528416604482015260648082018490528251808303909101815260849091019091526020810180516001600160e01b03166323b872dd60e01b179052610aa5908590610b04565b50505050565b610ab58282610640565b61063c57610ac281610bd9565b610acd836020610beb565b604051602001610ade929190611096565b60408051601f198184030181529082905262461bcd60e51b82526106299160040161110b565b6000610b59826040518060400160405280602081526020017f5361666545524332303a206c6f772d6c6576656c2063616c6c206661696c6564815250856001600160a01b0316610d8e9092919063ffffffff16565b9050805160001480610b7a575080806020019051810190610b7a9190611048565b6105b85760405162461bcd60e51b815260206004820152602a60248201527f5361666545524332303a204552433230206f7065726174696f6e20646964206e6044820152691bdd081cdd58d8d9595960b21b6064820152608401610629565b60606102ef6001600160a01b03831660145b60606000610bfa836002610ff0565b610c0590600261113e565b67ffffffffffffffff811115610c1d57610c1d611156565b6040519080825280601f01601f191660200182016040528015610c47576020820181803683370190505b509050600360fc1b81600081518110610c6257610c6261116c565b60200101906001600160f81b031916908160001a905350600f60fb1b81600181518110610c9157610c9161116c565b60200101906001600160f81b031916908160001a9053506000610cb5846002610ff0565b610cc090600161113e565b90505b6001811115610d38576f181899199a1a9b1b9c1cb0b131b232b360811b85600f1660108110610cf457610cf461116c565b1a60f81b828281518110610d0a57610d0a61116c565b60200101906001600160f81b031916908160001a90535060049490941c93610d3181611182565b9050610cc3565b508315610d875760405162461bcd60e51b815260206004820181905260248201527f537472696e67733a20686578206c656e67746820696e73756666696369656e746044820152606401610629565b9392505050565b6060610d9d8484600085610da5565b949350505050565b606082471015610e065760405162461bcd60e51b815260206004820152602660248201527f416464726573733a20696e73756666696369656e742062616c616e636520666f6044820152651c8818d85b1b60d21b6064820152608401610629565b600080866001600160a01b03168587604051610e229190611199565b60006040518083038185875af1925050503d8060008114610e5f576040519150601f19603f3d011682016040523d82523d6000602084013e610e64565b606091505b5091509150610e7587838387610e80565b979650505050505050565b60608315610eec578251610ee5576001600160a01b0385163b610ee55760405162461bcd60e51b815260206004820152601d60248201527f416464726573733a2063616c6c20746f206e6f6e2d636f6e74726163740000006044820152606401610629565b5081610d9d565b610d9d8383815115610f015781518083602001fd5b8060405162461bcd60e51b8152600401610629919061110b565b600060208284031215610f2d57600080fd5b81356001600160e01b031981168114610d8757600080fd5b600060208284031215610f5757600080fd5b5035919050565b80356001600160a01b0381168114610f7557600080fd5b919050565b60008060408385031215610f8d57600080fd5b82359150610f9d60208401610f5e565b90509250929050565b600060208284031215610fb857600080fd5b610d8782610f5e565b600060208284031215610fd357600080fd5b5051919050565b634e487b7160e01b600052601160045260246000fd5b600081600019048311821515161561100a5761100a610fda565b500290565b60008261102c57634e487b7160e01b600052601260045260246000fd5b500490565b60008282101561104357611043610fda565b500390565b60006020828403121561105a57600080fd5b81518015158114610d8757600080fd5b60005b8381101561108557818101518382015260200161106d565b83811115610aa55750506000910152565b7f416363657373436f6e74726f6c3a206163636f756e74200000000000000000008152600083516110ce81601785016020880161106a565b7001034b99036b4b9b9b4b733903937b6329607d1b60179184019182015283516110ff81602884016020880161106a565b01602801949350505050565b602081526000825180602084015261112a81604085016020870161106a565b601f01601f19169190910160400192915050565b6000821982111561115157611151610fda565b500190565b634e487b7160e01b600052604160045260246000fd5b634e487b7160e01b600052603260045260246000fd5b60008161119157611191610fda565b506000190190565b600082516111ab81846020870161106a565b919091019291505056fea2646970667358221220767146ae38c6ed5cf70afc12f7928a5333fc1346e77015e5953566dd5fd7f65564736f6c634300080a0033",
  "devdoc": {
    "kind": "dev",
    "methods": {
      "getRoleAdmin(bytes32)": {
        "details": "Returns the admin role that controls `role`. See {grantRole} and {revokeRole}. To change a role's admin, use {_setRoleAdmin}."
      },
      "grantRole(bytes32,address)": {
        "details": "Grants `role` to `account`. If `account` had not been already granted `role`, emits a {RoleGranted} event. Requirements: - the caller must have ``role``'s admin role. May emit a {RoleGranted} event."
      },
      "hasRole(bytes32,address)": {
        "details": "Returns `true` if `account` has been granted `role`."
      },
      "renounceRole(bytes32,address)": {
        "details": "Revokes `role` from the calling account. Roles are often managed via {grantRole} and {revokeRole}: this function's purpose is to provide a mechanism for accounts to lose their privileges if they are compromised (such as when a trusted device is misplaced). If the calling account had been revoked `role`, emits a {RoleRevoked} event. Requirements: - the caller must be `account`. May emit a {RoleRevoked} event."
      },
      "revokeRole(bytes32,address)": {
        "details": "Revokes `role` from `account`. If `account` had been granted `role`, emits a {RoleRevoked} event. Requirements: - the caller must have ``role``'s admin role. May emit a {RoleRevoked} event."
      },
      "supportsInterface(bytes4)": {
        "details": "See {IERC165-supportsInterface}."
      }
    },
    "version": 1
  },
  "userdoc": {
    "kind": "user",
    "methods": {},
    "version": 1
  },
  "storageLayout": {
    "storage": [
      {
        "astId": 24,
        "contract": "contracts/proxies/VeYieldDistributorProxy.sol:NotifyRewardProxy",
        "label": "_roles",
        "offset": 0,
        "slot": "0",
        "type": "t_mapping(t_bytes32,t_struct(RoleData)19_storage)"
      },
      {
        "astId": 2533,
        "contract": "contracts/proxies/VeYieldDistributorProxy.sol:NotifyRewardProxy",
        "label": "apy",
        "offset": 0,
        "slot": "1",
        "type": "t_uint256"
      }
    ],
    "types": {
      "t_address": {
        "encoding": "inplace",
        "label": "address",
        "numberOfBytes": "20"
      },
      "t_bool": {
        "encoding": "inplace",
        "label": "bool",
        "numberOfBytes": "1"
      },
      "t_bytes32": {
        "encoding": "inplace",
        "label": "bytes32",
        "numberOfBytes": "32"
      },
      "t_mapping(t_address,t_bool)": {
        "encoding": "mapping",
        "key": "t_address",
        "label": "mapping(address => bool)",
        "numberOfBytes": "32",
        "value": "t_bool"
      },
      "t_mapping(t_bytes32,t_struct(RoleData)19_storage)": {
        "encoding": "mapping",
        "key": "t_bytes32",
        "label": "mapping(bytes32 => struct AccessControl.RoleData)",
        "numberOfBytes": "32",
        "value": "t_struct(RoleData)19_storage"
      },
      "t_struct(RoleData)19_storage": {
        "encoding": "inplace",
        "label": "struct AccessControl.RoleData",
        "members": [
          {
            "astId": 16,
            "contract": "contracts/proxies/VeYieldDistributorProxy.sol:NotifyRewardProxy",
            "label": "members",
            "offset": 0,
            "slot": "0",
            "type": "t_mapping(t_address,t_bool)"
          },
          {
            "astId": 18,
            "contract": "contracts/proxies/VeYieldDistributorProxy.sol:NotifyRewardProxy",
            "label": "adminRole",
            "offset": 0,
            "slot": "1",
            "type": "t_bytes32"
          }
        ],
        "numberOfBytes": "64"
      },
      "t_uint256": {
        "encoding": "inplace",
        "label": "uint256",
        "numberOfBytes": "32"
      }
    }
  }
}