{
  "address": "0xcC8F34B427620A1312F57c5bF3f922D3C8CB115f",
  "abi": [
    {
      "inputs": [
        {
          "internalType": "address",
          "name": "target",
          "type": "address"
        }
      ],
      "name": "AddressEmptyCode",
      "type": "error"
    },
    {
      "inputs": [
        {
          "internalType": "address",
          "name": "account",
          "type": "address"
        }
      ],
      "name": "AddressInsufficientBalance",
      "type": "error"
    },
    {
      "inputs": [],
      "name": "FailedInnerCall",
      "type": "error"
    },
    {
      "inputs": [],
      "name": "InvalidInitialization",
      "type": "error"
    },
    {
      "inputs": [],
      "name": "NotInitializing",
      "type": "error"
    },
    {
      "inputs": [],
      "name": "ReentrancyGuardReentrantCall",
      "type": "error"
    },
    {
      "inputs": [
        {
          "internalType": "address",
          "name": "token",
          "type": "address"
        }
      ],
      "name": "SafeERC20FailedOperation",
      "type": "error"
    },
    {
      "anonymous": false,
      "inputs": [
        {
          "indexed": true,
          "internalType": "address",
          "name": "owner",
          "type": "address"
        },
        {
          "indexed": true,
          "internalType": "address",
          "name": "user",
          "type": "address"
        },
        {
          "indexed": false,
          "internalType": "bool",
          "name": "toggle",
          "type": "bool"
        }
      ],
      "name": "GreylistToggled",
      "type": "event"
    },
    {
      "anonymous": false,
      "inputs": [
        {
          "indexed": false,
          "internalType": "uint64",
          "name": "version",
          "type": "uint64"
        }
      ],
      "name": "Initialized",
      "type": "event"
    },
    {
      "anonymous": false,
      "inputs": [
        {
          "indexed": false,
          "internalType": "address",
          "name": "oldOwner",
          "type": "address"
        },
        {
          "indexed": false,
          "internalType": "address",
          "name": "newOwner",
          "type": "address"
        }
      ],
      "name": "OwnerChanged",
      "type": "event"
    },
    {
      "anonymous": false,
      "inputs": [
        {
          "indexed": false,
          "internalType": "address",
          "name": "newOwner",
          "type": "address"
        }
      ],
      "name": "OwnerNominated",
      "type": "event"
    },
    {
      "anonymous": false,
      "inputs": [
        {
          "indexed": true,
          "internalType": "address",
          "name": "owner",
          "type": "address"
        },
        {
          "indexed": false,
          "internalType": "bool",
          "name": "paused",
          "type": "bool"
        }
      ],
      "name": "Paused",
      "type": "event"
    },
    {
      "anonymous": false,
      "inputs": [
        {
          "indexed": false,
          "internalType": "address",
          "name": "token",
          "type": "address"
        },
        {
          "indexed": false,
          "internalType": "uint256",
          "name": "amount",
          "type": "uint256"
        }
      ],
      "name": "RecoveredERC20",
      "type": "event"
    },
    {
      "anonymous": false,
      "inputs": [
        {
          "indexed": false,
          "internalType": "uint256",
          "name": "reward",
          "type": "uint256"
        },
        {
          "indexed": false,
          "internalType": "uint256",
          "name": "yieldRate",
          "type": "uint256"
        }
      ],
      "name": "RewardAdded",
      "type": "event"
    },
    {
      "anonymous": false,
      "inputs": [
        {
          "indexed": true,
          "internalType": "address",
          "name": "owner",
          "type": "address"
        },
        {
          "indexed": true,
          "internalType": "address",
          "name": "user",
          "type": "address"
        },
        {
          "indexed": false,
          "internalType": "bool",
          "name": "toggle",
          "type": "bool"
        }
      ],
      "name": "RewardNotifierToggled",
      "type": "event"
    },
    {
      "anonymous": false,
      "inputs": [
        {
          "indexed": false,
          "internalType": "uint256",
          "name": "yieldPerVeUNOStored",
          "type": "uint256"
        },
        {
          "indexed": false,
          "internalType": "uint256",
          "name": "totalVeUNOSupplyStored",
          "type": "uint256"
        },
        {
          "indexed": false,
          "internalType": "uint256",
          "name": "lastUpdateTime",
          "type": "uint256"
        }
      ],
      "name": "Synced",
      "type": "event"
    },
    {
      "anonymous": false,
      "inputs": [
        {
          "indexed": true,
          "internalType": "address",
          "name": "owner",
          "type": "address"
        },
        {
          "indexed": true,
          "internalType": "address",
          "name": "yieldRate",
          "type": "address"
        }
      ],
      "name": "TimelockUpdated",
      "type": "event"
    },
    {
      "anonymous": false,
      "inputs": [
        {
          "indexed": true,
          "internalType": "address",
          "name": "user",
          "type": "address"
        },
        {
          "indexed": false,
          "internalType": "uint256",
          "name": "yieldAmount",
          "type": "uint256"
        },
        {
          "indexed": false,
          "internalType": "address",
          "name": "token",
          "type": "address"
        }
      ],
      "name": "YieldCollected",
      "type": "event"
    },
    {
      "anonymous": false,
      "inputs": [
        {
          "indexed": false,
          "internalType": "uint256",
          "name": "newDuration",
          "type": "uint256"
        }
      ],
      "name": "YieldDurationUpdated",
      "type": "event"
    },
    {
      "anonymous": false,
      "inputs": [
        {
          "indexed": true,
          "internalType": "address",
          "name": "owner",
          "type": "address"
        },
        {
          "indexed": false,
          "internalType": "uint256",
          "name": "yieldRate",
          "type": "uint256"
        }
      ],
      "name": "YieldRateUpdated",
      "type": "event"
    },
    {
      "inputs": [],
      "name": "PRICE_PRECISION",
      "outputs": [
        {
          "internalType": "uint256",
          "name": "",
          "type": "uint256"
        }
      ],
      "stateMutability": "view",
      "type": "function"
    },
    {
      "inputs": [],
      "name": "SECONDS_IN_MONTHS",
      "outputs": [
        {
          "internalType": "uint256",
          "name": "",
          "type": "uint256"
        }
      ],
      "stateMutability": "view",
      "type": "function"
    },
    {
      "inputs": [],
      "name": "acceptOwnership",
      "outputs": [],
      "stateMutability": "nonpayable",
      "type": "function"
    },
    {
      "inputs": [],
      "name": "checkpoint",
      "outputs": [],
      "stateMutability": "nonpayable",
      "type": "function"
    },
    {
      "inputs": [
        {
          "internalType": "address",
          "name": "_user",
          "type": "address"
        }
      ],
      "name": "checkpointOtherUser",
      "outputs": [],
      "stateMutability": "nonpayable",
      "type": "function"
    },
    {
      "inputs": [
        {
          "internalType": "address",
          "name": "_account",
          "type": "address"
        }
      ],
      "name": "earned",
      "outputs": [
        {
          "internalType": "uint256",
          "name": "yieldAmount",
          "type": "uint256"
        }
      ],
      "stateMutability": "view",
      "type": "function"
    },
    {
      "inputs": [
        {
          "internalType": "address",
          "name": "_account",
          "type": "address"
        }
      ],
      "name": "eligibleCurrentVeUNO",
      "outputs": [
        {
          "internalType": "uint256",
          "name": "eligibleVeUnoBal",
          "type": "uint256"
        },
        {
          "internalType": "uint256",
          "name": "storedEndTimestamp",
          "type": "uint256"
        }
      ],
      "stateMutability": "view",
      "type": "function"
    },
    {
      "inputs": [],
      "name": "emittedToken",
      "outputs": [
        {
          "internalType": "contract IERC20",
          "name": "",
          "type": "address"
        }
      ],
      "stateMutability": "view",
      "type": "function"
    },
    {
      "inputs": [],
      "name": "fractionParticipating",
      "outputs": [
        {
          "internalType": "uint256",
          "name": "",
          "type": "uint256"
        }
      ],
      "stateMutability": "view",
      "type": "function"
    },
    {
      "inputs": [],
      "name": "getYield",
      "outputs": [
        {
          "internalType": "uint256",
          "name": "yield0",
          "type": "uint256"
        }
      ],
      "stateMutability": "nonpayable",
      "type": "function"
    },
    {
      "inputs": [],
      "name": "getYieldForDuration",
      "outputs": [
        {
          "internalType": "uint256",
          "name": "",
          "type": "uint256"
        }
      ],
      "stateMutability": "view",
      "type": "function"
    },
    {
      "inputs": [
        {
          "internalType": "address",
          "name": "",
          "type": "address"
        }
      ],
      "name": "greylist",
      "outputs": [
        {
          "internalType": "bool",
          "name": "",
          "type": "bool"
        }
      ],
      "stateMutability": "view",
      "type": "function"
    },
    {
      "inputs": [
        {
          "internalType": "contract IERC20",
          "name": "_emittedToken",
          "type": "address"
        },
        {
          "internalType": "contract IVotingEscrow",
          "name": "_veUNO",
          "type": "address"
        },
        {
          "internalType": "address",
          "name": "_timelock",
          "type": "address"
        },
        {
          "internalType": "address",
          "name": "_owner",
          "type": "address"
        }
      ],
      "name": "initialize",
      "outputs": [],
      "stateMutability": "nonpayable",
      "type": "function"
    },
    {
      "inputs": [
        {
          "internalType": "address",
          "name": "",
          "type": "address"
        }
      ],
      "name": "lastRewardClaimTime",
      "outputs": [
        {
          "internalType": "uint256",
          "name": "",
          "type": "uint256"
        }
      ],
      "stateMutability": "view",
      "type": "function"
    },
    {
      "inputs": [],
      "name": "lastTimeYieldApplicable",
      "outputs": [
        {
          "internalType": "uint256",
          "name": "",
          "type": "uint256"
        }
      ],
      "stateMutability": "view",
      "type": "function"
    },
    {
      "inputs": [],
      "name": "lastUpdateTime",
      "outputs": [
        {
          "internalType": "uint256",
          "name": "",
          "type": "uint256"
        }
      ],
      "stateMutability": "view",
      "type": "function"
    },
    {
      "inputs": [
        {
          "internalType": "address",
          "name": "_owner",
          "type": "address"
        }
      ],
      "name": "nominateNewOwner",
      "outputs": [],
      "stateMutability": "nonpayable",
      "type": "function"
    },
    {
      "inputs": [],
      "name": "nominatedOwner",
      "outputs": [
        {
          "internalType": "address",
          "name": "",
          "type": "address"
        }
      ],
      "stateMutability": "view",
      "type": "function"
    },
    {
      "inputs": [
        {
          "internalType": "uint256",
          "name": "_amount",
          "type": "uint256"
        }
      ],
      "name": "notifyRewardAmount",
      "outputs": [],
      "stateMutability": "nonpayable",
      "type": "function"
    },
    {
      "inputs": [],
      "name": "owner",
      "outputs": [
        {
          "internalType": "address",
          "name": "",
          "type": "address"
        }
      ],
      "stateMutability": "view",
      "type": "function"
    },
    {
      "inputs": [],
      "name": "periodFinish",
      "outputs": [
        {
          "internalType": "uint256",
          "name": "",
          "type": "uint256"
        }
      ],
      "stateMutability": "view",
      "type": "function"
    },
    {
      "inputs": [
        {
          "internalType": "contract IERC20",
          "name": "_token",
          "type": "address"
        },
        {
          "internalType": "uint256",
          "name": "_amount",
          "type": "uint256"
        }
      ],
      "name": "recoverERC20",
      "outputs": [],
      "stateMutability": "nonpayable",
      "type": "function"
    },
    {
      "inputs": [
        {
          "internalType": "address",
          "name": "",
          "type": "address"
        }
      ],
      "name": "rewardNotifiers",
      "outputs": [
        {
          "internalType": "bool",
          "name": "",
          "type": "bool"
        }
      ],
      "stateMutability": "view",
      "type": "function"
    },
    {
      "inputs": [
        {
          "internalType": "bool",
          "name": "_yieldCollectionPaused",
          "type": "bool"
        }
      ],
      "name": "setPauses",
      "outputs": [],
      "stateMutability": "nonpayable",
      "type": "function"
    },
    {
      "inputs": [
        {
          "internalType": "address",
          "name": "_newTimelock",
          "type": "address"
        }
      ],
      "name": "setTimelock",
      "outputs": [],
      "stateMutability": "nonpayable",
      "type": "function"
    },
    {
      "inputs": [
        {
          "internalType": "uint256",
          "name": "_yieldDuration",
          "type": "uint256"
        }
      ],
      "name": "setYieldDuration",
      "outputs": [],
      "stateMutability": "nonpayable",
      "type": "function"
    },
    {
      "inputs": [
        {
          "internalType": "uint256",
          "name": "_newRate0",
          "type": "uint256"
        },
        {
          "internalType": "bool",
          "name": "_isSync",
          "type": "bool"
        }
      ],
      "name": "setYieldRate",
      "outputs": [],
      "stateMutability": "nonpayable",
      "type": "function"
    },
    {
      "inputs": [],
      "name": "sync",
      "outputs": [],
      "stateMutability": "nonpayable",
      "type": "function"
    },
    {
      "inputs": [],
      "name": "timelock",
      "outputs": [
        {
          "internalType": "address",
          "name": "",
          "type": "address"
        }
      ],
      "stateMutability": "view",
      "type": "function"
    },
    {
      "inputs": [
        {
          "internalType": "address",
          "name": "_user",
          "type": "address"
        }
      ],
      "name": "toggleGreylist",
      "outputs": [],
      "stateMutability": "nonpayable",
      "type": "function"
    },
    {
      "inputs": [
        {
          "internalType": "address",
          "name": "_notifier",
          "type": "address"
        }
      ],
      "name": "toggleRewardNotifier",
      "outputs": [],
      "stateMutability": "nonpayable",
      "type": "function"
    },
    {
      "inputs": [],
      "name": "totalVeUNOParticipating",
      "outputs": [
        {
          "internalType": "uint256",
          "name": "",
          "type": "uint256"
        }
      ],
      "stateMutability": "view",
      "type": "function"
    },
    {
      "inputs": [],
      "name": "totalVeUNOSupplyStored",
      "outputs": [
        {
          "internalType": "uint256",
          "name": "",
          "type": "uint256"
        }
      ],
      "stateMutability": "view",
      "type": "function"
    },
    {
      "inputs": [
        {
          "internalType": "address",
          "name": "",
          "type": "address"
        }
      ],
      "name": "userIsInitialized",
      "outputs": [
        {
          "internalType": "bool",
          "name": "",
          "type": "bool"
        }
      ],
      "stateMutability": "view",
      "type": "function"
    },
    {
      "inputs": [
        {
          "internalType": "address",
          "name": "",
          "type": "address"
        }
      ],
      "name": "userVeUNOCheckpointed",
      "outputs": [
        {
          "internalType": "uint256",
          "name": "",
          "type": "uint256"
        }
      ],
      "stateMutability": "view",
      "type": "function"
    },
    {
      "inputs": [
        {
          "internalType": "address",
          "name": "",
          "type": "address"
        }
      ],
      "name": "userVeUNOEndpointCheckpointed",
      "outputs": [
        {
          "internalType": "uint256",
          "name": "",
          "type": "uint256"
        }
      ],
      "stateMutability": "view",
      "type": "function"
    },
    {
      "inputs": [
        {
          "internalType": "address",
          "name": "",
          "type": "address"
        }
      ],
      "name": "userYieldPerTokenPaid",
      "outputs": [
        {
          "internalType": "uint256",
          "name": "",
          "type": "uint256"
        }
      ],
      "stateMutability": "view",
      "type": "function"
    },
    {
      "inputs": [],
      "name": "veUNO",
      "outputs": [
        {
          "internalType": "contract IVotingEscrow",
          "name": "",
          "type": "address"
        }
      ],
      "stateMutability": "view",
      "type": "function"
    },
    {
      "inputs": [],
      "name": "yieldCollectionPaused",
      "outputs": [
        {
          "internalType": "bool",
          "name": "",
          "type": "bool"
        }
      ],
      "stateMutability": "view",
      "type": "function"
    },
    {
      "inputs": [],
      "name": "yieldDuration",
      "outputs": [
        {
          "internalType": "uint256",
          "name": "",
          "type": "uint256"
        }
      ],
      "stateMutability": "view",
      "type": "function"
    },
    {
      "inputs": [],
      "name": "yieldPerVeUNO",
      "outputs": [
        {
          "internalType": "uint256",
          "name": "yield",
          "type": "uint256"
        }
      ],
      "stateMutability": "view",
      "type": "function"
    },
    {
      "inputs": [],
      "name": "yieldPerVeUNOStored",
      "outputs": [
        {
          "internalType": "uint256",
          "name": "",
          "type": "uint256"
        }
      ],
      "stateMutability": "view",
      "type": "function"
    },
    {
      "inputs": [],
      "name": "yieldRate",
      "outputs": [
        {
          "internalType": "uint256",
          "name": "",
          "type": "uint256"
        }
      ],
      "stateMutability": "view",
      "type": "function"
    },
    {
      "inputs": [
        {
          "internalType": "address",
          "name": "",
          "type": "address"
        }
      ],
      "name": "yields",
      "outputs": [
        {
          "internalType": "uint256",
          "name": "",
          "type": "uint256"
        }
      ],
      "stateMutability": "view",
      "type": "function"
    }
  ],
  "transactionHash": "0x9798677218bac8c3ab048fc2e05159372d1bf5111e3f267e3ea8ba0707436b6c",
  "args": [],
  "numDeployments": 1,
  "solcInputHash": "7b3c7fe68286779fbec2cc90c6ff3ca8",
  "bytecode": "0x608060405234801561001057600080fd5b506120fc806100206000396000f3fe608060405234801561001057600080fd5b50600436106102f35760003560e01c80638da5cb5b11610191578063c8f33c91116100e3578063e9218ff611610097578063f8c8765e11610071578063f8c8765e1461062a578063fc939bb11461063d578063fff6cae91461064557600080fd5b8063e9218ff6146105ee578063ebe2b12b14610601578063eea4e9031461060a57600080fd5b8063d15166ff116100c8578063d15166ff146105aa578063d33219b4146105cd578063e172cf21146105e557600080fd5b8063c8f33c9114610598578063d0f53342146105a157600080fd5b80639f8a835a11610145578063bdacb3031161011f578063bdacb30314610573578063bff2592a14610586578063c2c4c5c11461059057600080fd5b80639f8a835a14610533578063a875f47214610546578063ad1148cb1461056657600080fd5b806392ff86b61161017657806392ff86b6146104ee578063948e25a21461051657806395082d251461052957600080fd5b80638da5cb5b146104c857806391519bda146104db57600080fd5b806342c92f6e1161024a5780636999ac93116101fe57806379ba5097116101d857806379ba5097146104a55780637c262871146104ad5780638980f11f146104b557600080fd5b80636999ac931461046a5780636c430dbb1461047357806374ea0b981461049257600080fd5b806353a47bb71161022f57806353a47bb71461044657806356d9fff314610459578063647f15ae1461046157600080fd5b806342c92f6e1461041357806350fe98ac1461042657600080fd5b806328aede0a116102ac57806331ca208c1161028657806331ca208c146103ca5780633328d976146103ed5780633c6b16ab1461040057600080fd5b806328aede0a1461038e578063299a6435146103b957806330f7bb38146103c157600080fd5b80631627540c116102dd5780631627540c1461035157806319aec6d2146103665780631e74e7ce1461036e57600080fd5b80628cc262146102f857806314b305371461031e575b600080fd5b61030b610306366004611e76565b61064d565b6040519081526020015b60405180910390f35b61034161032c366004611e76565b602e6020526000908152604090205460ff1681565b6040519015158152602001610315565b61036461035f366004611e76565b6107f3565b005b61030b6108da565b61030b61037c366004611e76565b602d6020526000908152604090205481565b6021546103a1906001600160a01b031681565b6040516001600160a01b039091168152602001610315565b61030b6108f1565b61030b602a5481565b6103416103d8366004611e76565b602f6020526000908152604090205460ff1681565b6103646103fb366004611e76565b610955565b61036461040e366004611e93565b610a21565b610364610421366004611e76565b610b4f565b61030b610434366004611e76565b60296020526000908152604090205481565b6001546103a1906001600160a01b031681565b61030b610c1f565b61030b60275481565b61030b60255481565b61030b610481366004611e76565b602080526000908152604090205481565b6103646104a0366004611e93565b610c36565b610364610daf565b61030b610eae565b6103646104c3366004611eac565b611039565b6000546103a1906001600160a01b031681565b6103646104e9366004611ee6565b61115b565b6105016104fc366004611e76565b6112ac565b60408051928352602083019190915201610315565b610364610524366004611f16565b61138e565b61030b620f424081565b610364610541366004611e76565b61143b565b61030b610554366004611e76565b60286020526000908152604090205481565b6030546103419060ff1681565b610364610581366004611e76565b611447565b61030b62278d0081565b610364611516565b61030b60245481565b61030b602b5481565b6103416105b8366004611e76565b60316020526000908152604090205460ff1681565b6030546103a19061010090046001600160a01b031681565b61030b60265481565b6022546103a1906001600160a01b031681565b61030b60235481565b61030b610618366004611e76565b602c6020526000908152604090205481565b610364610638366004611f33565b611521565b61030b61170d565b61036461172d565b6001600160a01b0381166000908152602e602052604081205460ff1661067557506000919050565b600080610681846112ac565b9092509050620f42406000839003610723576001600160a01b038516600090815260208052604090205482116106bc57506000949350505050565b6001600160a01b03851660009081526020805260408120546106de9084611fa5565b6001600160a01b0387166000908152602080526040812054919250906107049042611fa5565b905080610714620f424084611fb8565b61071e9190611fcf565b925050505b6001600160a01b0385166000908152602c60205260408120548085111561074c57809150610765565b60026107588287611ff1565b6107629190611fcf565b91505b5061077b620f4240670de0b6b3a7640000611fb8565b6001600160a01b038716600090815260286020526040902054839061079e6108f1565b6107a89190611fa5565b6107b29084611fb8565b6107bc9190611fb8565b6107c69190611fcf565b6001600160a01b0387166000908152602960205260409020546107e99190611ff1565b9695505050505050565b6000546001600160a01b031633146108785760405162461bcd60e51b815260206004820152602f60248201527f4f6e6c792074686520636f6e7472616374206f776e6572206d6179207065726660448201527f6f726d207468697320616374696f6e000000000000000000000000000000000060648201526084015b60405180910390fd5b6001805473ffffffffffffffffffffffffffffffffffffffff19166001600160a01b0383169081179091556040519081527f906a1c6bd7e3091ea86693dd029a831c19049ce77f1dce2ce0bab1cacbabce22906020015b60405180910390a150565b60006026546025546108ec9190611fb8565b905090565b6000602b54600003610904575060275490565b602b54602554602454610915610c1f565b61091f9190611fa5565b6109299190611fb8565b61093b90670de0b6b3a7640000611fb8565b6109459190611fcf565b6027546108ec9190611ff1565b90565b6000546001600160a01b031633148061097d575060305461010090046001600160a01b031633145b6109b95760405162461bcd60e51b815260206004820152600d60248201526c1599555b9bd6510e880853cbd5609a1b604482015260640161086f565b6001600160a01b0381166000818152602f6020908152604091829020805460ff8082161560ff199092168217909255925192161515825233917f595b475d3b518f7df6764808ac107355501f421455fe547647ffeb8f02c8c1e291015b60405180910390a350565b3360009081526031602052604090205460ff16610a805760405162461bcd60e51b815260206004820152601260248201527f5665556e6f59443a20214e6f7469666965720000000000000000000000000000604482015260640161086f565b602254610a98906001600160a01b0316333084611819565b610aa061172d565b6023544210610abe57602654610ab69082611fcf565b602555610b00565b600042602354610ace9190611fa5565b9050600060255482610ae09190611fb8565b602654909150610af08285611ff1565b610afa9190611fcf565b60255550505b426024819055602654610b1291611ff1565b6023556025546040805183815260208101929092527f6c07ee05dcf262f13abf9d87b846ee789d2f90fe991d495acd7d7fc109ee1f5591016108cf565b6000546001600160a01b0316331480610b77575060305461010090046001600160a01b031633145b610bb35760405162461bcd60e51b815260206004820152600d60248201526c1599555b9bd6510e880853cbd5609a1b604482015260640161086f565b6001600160a01b0381166000818152603160209081526040808320805460ff19811660ff9182161517909155602f9092529182902054915133927fa32bbe911557b64443d4aac3f6715ff5efd87f4535fcf1de2a75aee15663ba5792610a169291161515815260200190565b60006023544210610c31575060235490565b504290565b6000546001600160a01b0316331480610c5e575060305461010090046001600160a01b031633145b610c9a5760405162461bcd60e51b815260206004820152600d60248201526c1599555b9bd6510e880853cbd5609a1b604482015260640161086f565b6023544211610ceb5760405162461bcd60e51b815260206004820152600e60248201527f5665556e6f59443a202150595043000000000000000000000000000000000000604482015260640161086f565b600081118015610d085750610d0462278d006003611fb8565b8111155b610d7a5760405162461bcd60e51b815260206004820152603160248201527f5665556e6f59443a2063616e206e6f7420736574207a65726f206f72206d6f7260448201527f65207468616e2074686565206d6f6e7468000000000000000000000000000000606482015260840161086f565b60268190556040518181527fce653f06b9044b00e7d9d01b9b4228e84812092cb6a38371889bef19370d21f7906020016108cf565b6001546001600160a01b03163314610e2f5760405162461bcd60e51b815260206004820152603560248201527f596f75206d757374206265206e6f6d696e61746564206265666f726520796f7560448201527f2063616e20616363657074206f776e6572736869700000000000000000000000606482015260840161086f565b600054600154604080516001600160a01b0393841681529290911660208301527fb532073b38c83145e3e5135377a08bf9aab55bc0fd7c1179cd4fb995d2a5159c910160405180910390a1600180546000805473ffffffffffffffffffffffffffffffffffffffff199081166001600160a01b03841617909155169055565b6000610eb861189b565b33610ec28161191c565b60305460ff1615610f155760405162461bcd60e51b815260206004820152600c60248201527f5665556e6f59443a205943500000000000000000000000000000000000000000604482015260640161086f565b336000908152602f602052604090205460ff1615610f755760405162461bcd60e51b815260206004820152600c60248201527f5665556e6f59443a20474c550000000000000000000000000000000000000000604482015260640161086f565b3360009081526029602052604090205491508115610ffe5733600081815260296020526040812055602254610fb6916001600160a01b039091169084611b29565b602254604080518481526001600160a01b03909216602083015233917f3998039806f6db7e5d83a5371638cc47dd2e9ae500d5d561d95ec6381f53e3cd910160405180910390a25b50336000908152602080526040902042905561095260017f9b779b17422d0df92223018b32b4d1fa46e071723d6817e2486d003becc55f0055565b6000546001600160a01b0316331480611061575060305461010090046001600160a01b031633145b61109d5760405162461bcd60e51b815260206004820152600d60248201526c1599555b9bd6510e880853cbd5609a1b604482015260640161086f565b6022546001600160a01b03908116908316036110fb5760405162461bcd60e51b815260206004820152601f60248201527f596f7520617265207275672d70756c6c696e6720796f75722075736572732100604482015260640161086f565b600054611115906001600160a01b03848116911683611b29565b604080516001600160a01b0384168152602081018390527f55350610fe57096d8c0ffa30beede987326bccfcb0b4415804164d0dd50ce8b1910160405180910390a15050565b6000546001600160a01b0316331480611183575060305461010090046001600160a01b031633145b6111bf5760405162461bcd60e51b815260206004820152600d60248201526c1599555b9bd6510e880853cbd5609a1b604482015260640161086f565b6000821180156111ee57507fffffffffffffffffffffffffffffffffffffffffffffffffffffffffffffffff82105b6112605760405162461bcd60e51b815260206004820152602660248201527f5665556e6f59443a2063616e206e6f7420736574207a65726f206f72206d617860448201527f2076616c75650000000000000000000000000000000000000000000000000000606482015260840161086f565b602582905580156112735761127361172d565b60405182815233907f8c40390db560782efda093b2b24fca89e60374af432f4c675688fa8b61108eab9060200160405180910390a25050565b6021546040517f70a082310000000000000000000000000000000000000000000000000000000081526001600160a01b03838116600483015260009283928392909116906370a0823190602401602060405180830381865afa158015611316573d6000803e3d6000fd5b505050506040513d601f19601f8201168201806040525081019061133a9190612004565b6001600160a01b0385166000908152602d60205260409020549250905081158015906113665750814210155b156113745760009250611388565b8142106113845760009250611388565b8092505b50915091565b6000546001600160a01b03163314806113b6575060305461010090046001600160a01b031633145b6113f25760405162461bcd60e51b815260206004820152600d60248201526c1599555b9bd6510e880853cbd5609a1b604482015260640161086f565b6030805460ff191682151590811790915560405190815233907fe8699cf681560fd07de85543bd994263f4557bdc5179dd702f256d15fd083e1d9060200160405180910390a250565b6114448161191c565b50565b6000546001600160a01b031633148061146f575060305461010090046001600160a01b031633145b6114ab5760405162461bcd60e51b815260206004820152600d60248201526c1599555b9bd6510e880853cbd5609a1b604482015260640161086f565b603080547fffffffffffffffffffffff0000000000000000000000000000000000000000ff166101006001600160a01b0384169081029190911790915560405133907fae97011a27b5efe7b1d76fe38e75cc498fd64cc24e407a9c6b2185d27f611f7e90600090a350565b61151f3361191c565b565b7ff0c57e16840df040f15088dc2f81fe391c3923bec73e23a9662efc9c229c6a00805468010000000000000000810460ff16159067ffffffffffffffff1660008115801561156c5750825b905060008267ffffffffffffffff1660011480156115895750303b155b905081158015611597575080155b156115ce576040517ff92ee8a900000000000000000000000000000000000000000000000000000000815260040160405180910390fd5b84547fffffffffffffffffffffffffffffffffffffffffffffffff0000000000000000166001178555831561161957845468ff00000000000000001916680100000000000000001785555b602280546001600160a01b03808c1673ffffffffffffffffffffffffffffffffffffffff1992831617909255602180548b8416921691909117905560308054918916610100027fffffffffffffffffffffff0000000000000000000000000000000000000000ff90921691909117905542602455336000908152603160205260409020805460ff1916600117905562093a806026556116b786611b5f565b831561170257845468ff000000000000000019168555604051600181527fc7f505b2f371ae2175ee4913f4499e1f2633a7b5936321eed1cdaeb6115181d29060200160405180910390a15b505050505050505050565b6000602b54620f4240602a546117239190611fb8565b6108ec9190611fcf565b6117356108f1565b602755602154604080517f18160ddd00000000000000000000000000000000000000000000000000000000815290516001600160a01b03909216916318160ddd916004808201926020929091908290030181865afa15801561179b573d6000803e3d6000fd5b505050506040513d601f19601f820116820180604052508101906117bf9190612004565b602b556117ca610c1f565b6024819055602754602b546040805192835260208301919091528101919091527f9aa1a56064c83c34d45ce0f34a60a04b6c6fd4bf28b61a19c16235ebedb30b199060600160405180910390a1565b6040516001600160a01b0384811660248301528381166044830152606482018390526118959186918216906323b872dd906084015b604051602081830303815290604052915060e01b6020820180517bffffffffffffffffffffffffffffffffffffffffffffffffffffffff8381831617835250505050611c16565b50505050565b7f9b779b17422d0df92223018b32b4d1fa46e071723d6817e2486d003becc55f0080547ffffffffffffffffffffffffffffffffffffffffffffffffffffffffffffffffe01611916576040517f3ee5aeb500000000000000000000000000000000000000000000000000000000815260040160405180910390fd5b60029055565b61192461172d565b61192d81611c92565b6001600160a01b038181166000818152602c60205260408082205460215491517f70a0823100000000000000000000000000000000000000000000000000000000815260048101949094529391929116906370a0823190602401602060405180830381865afa1580156119a4573d6000803e3d6000fd5b505050506040513d601f19601f820116820180604052508101906119c89190612004565b6001600160a01b038481166000818152602c602052604080822085905560215490517fcbf9fe5f0000000000000000000000000000000000000000000000000000000081526004810193909352939450929091169063cbf9fe5f906024016040805180830381865afa158015611a42573d6000803e3d6000fd5b505050506040513d601f19601f82011682018060405250810190611a66919061201d565b6020808201516001600160a01b0387166000908152602d9092526040909120559050828210611ab4576000611a9b8484611fa5565b905080602a54611aab9190611ff1565b602a5550611ad5565b6000611ac08385611fa5565b905080602a54611ad09190611fa5565b602a55505b6001600160a01b0384166000908152602e602052604090205460ff16611895576001600160a01b0384166000908152602e60209081526040808320805460ff19166001179055908052902042905550505050565b6040516001600160a01b03838116602483015260448201839052611b5a91859182169063a9059cbb9060640161184e565b505050565b6001600160a01b038116611bb55760405162461bcd60e51b815260206004820152601960248201527f4f776e657220616464726573732063616e6e6f74206265203000000000000000604482015260640161086f565b6000805473ffffffffffffffffffffffffffffffffffffffff19166001600160a01b03831690811782556040805192835260208301919091527fb532073b38c83145e3e5135377a08bf9aab55bc0fd7c1179cd4fb995d2a5159c91016108cf565b6000611c2b6001600160a01b03841683611cdb565b90508051600014158015611c50575080806020019051810190611c4e919061207a565b155b15611b5a576040517f5274afe70000000000000000000000000000000000000000000000000000000081526001600160a01b038416600482015260240161086f565b6001600160a01b03811615611444576000611cac8261064d565b6001600160a01b0383166000908152602960209081526040808320939093556027546028909152919020555050565b6060611ce983836000611cf2565b90505b92915050565b606081471015611d30576040517fcd78605900000000000000000000000000000000000000000000000000000000815230600482015260240161086f565b600080856001600160a01b03168486604051611d4c9190612097565b60006040518083038185875af1925050503d8060008114611d89576040519150601f19603f3d011682016040523d82523d6000602084013e611d8e565b606091505b5091509150611d9e868383611daa565b925050505b9392505050565b606082611dbf57611dba82611e1f565b611da3565b8151158015611dd657506001600160a01b0384163b155b15611e18576040517f9996b3150000000000000000000000000000000000000000000000000000000081526001600160a01b038516600482015260240161086f565b5080611da3565b805115611e2f5780518082602001fd5b6040517f1425ea4200000000000000000000000000000000000000000000000000000000815260040160405180910390fd5b6001600160a01b038116811461144457600080fd5b600060208284031215611e8857600080fd5b8135611da381611e61565b600060208284031215611ea557600080fd5b5035919050565b60008060408385031215611ebf57600080fd5b8235611eca81611e61565b946020939093013593505050565b801515811461144457600080fd5b60008060408385031215611ef957600080fd5b823591506020830135611f0b81611ed8565b809150509250929050565b600060208284031215611f2857600080fd5b8135611da381611ed8565b60008060008060808587031215611f4957600080fd5b8435611f5481611e61565b93506020850135611f6481611e61565b92506040850135611f7481611e61565b91506060850135611f8481611e61565b939692955090935050565b634e487b7160e01b600052601160045260246000fd5b81810381811115611cec57611cec611f8f565b8082028115828204841417611cec57611cec611f8f565b600082611fec57634e487b7160e01b600052601260045260246000fd5b500490565b80820180821115611cec57611cec611f8f565b60006020828403121561201657600080fd5b5051919050565b60006040828403121561202f57600080fd5b6040516040810181811067ffffffffffffffff8211171561206057634e487b7160e01b600052604160045260246000fd5b604052825181526020928301519281019290925250919050565b60006020828403121561208c57600080fd5b8151611da381611ed8565b6000825160005b818110156120b8576020818601810151858301520161209e565b50600092019182525091905056fea2646970667358221220e7a7187ef6fd416dc6303a0dc6eecc7b1b9e00544d32f43c1d124c0f9b70f44b64736f6c63430008170033",
  "devdoc": {
    "errors": {
      "AddressEmptyCode(address)": [
        {
          "details": "There's no code at `target` (it is not a contract)."
        }
      ],
      "AddressInsufficientBalance(address)": [
        {
          "details": "The ETH balance of the account is not enough to perform the operation."
        }
      ],
      "FailedInnerCall()": [
        {
          "details": "A call to an address target failed. The target may have reverted."
        }
      ],
      "InvalidInitialization()": [
        {
          "details": "The contract is already initialized."
        }
      ],
      "NotInitializing()": [
        {
          "details": "The contract is not initializing."
        }
      ],
      "ReentrancyGuardReentrantCall()": [
        {
          "details": "Unauthorized reentrant call."
        }
      ],
      "SafeERC20FailedOperation(address)": [
        {
          "details": "An operation with an ERC20 token failed."
        }
      ]
    },
    "events": {
      "Initialized(uint64)": {
        "details": "Triggered when the contract has been initialized or reinitialized."
      }
    },
    "kind": "dev",
    "methods": {
      "earned(address)": {
        "params": {
          "_account": "address of user to fetch earned amount"
        }
      },
      "nominateNewOwner(address)": {
        "params": {
          "_owner": "new owner"
        }
      },
      "setPauses(bool)": {
        "params": {
          "_yieldCollectionPaused": "bool to update"
        }
      },
      "setTimelock(address)": {
        "params": {
          "_newTimelock": "new time lock address"
        }
      },
      "setYieldDuration(uint256)": {
        "params": {
          "_yieldDuration": "new yield duration"
        }
      },
      "setYieldRate(uint256,bool)": {
        "params": {
          "_isSync": "bool to sync or not",
          "_newRate0": "new yield rate"
        }
      },
      "toggleGreylist(address)": {
        "params": {
          "_user": "address of user to toggle"
        }
      },
      "toggleRewardNotifier(address)": {
        "params": {
          "_notifier": "address of user to toggle"
        }
      }
    },
    "version": 1
  },
  "userdoc": {
    "kind": "user",
    "methods": {
      "acceptOwnership()": {
        "notice": "nominated owner can accept ownership, can only be called by nominated owner"
      },
      "earned(address)": {
        "notice": "return earned yield amount of account"
      },
      "fractionParticipating()": {
        "notice": "return ratio total VeUNO participating by total veUNO supply stored"
      },
      "getYield()": {
        "notice": "transfer yield to caller"
      },
      "getYieldForDuration()": {
        "notice": "return total yield for yieldDuration "
      },
      "lastTimeYieldApplicable()": {
        "notice": "return minimum of current time and periodFinish(Yield and period related)"
      },
      "nominateNewOwner(address)": {
        "notice": "nominate new owner, can only be called by owner"
      },
      "notifyRewardAmount(uint256)": {
        "notice": "transfer reward to veUNODaoYieldDistributir and update yieldRate"
      },
      "setPauses(bool)": {
        "notice": "update yieldCollectionPaused, pause user to yield reward"
      },
      "setTimelock(address)": {
        "notice": "update time lock(can call functions which can only be called owners), can only be called by owner"
      },
      "setYieldDuration(uint256)": {
        "notice": "update yieldDuration, can only be called by owner"
      },
      "setYieldRate(uint256,bool)": {
        "notice": "update yield rate, can only be called by owner"
      },
      "sync()": {
        "notice": "update yieldPerVeUNO, veUNO totalSupply and last time yield applicable, whenever user checkpoint or owner update notify reward or set yield rate "
      },
      "toggleGreylist(address)": {
        "notice": "toggle grey list of user, can only be called by owner"
      },
      "toggleRewardNotifier(address)": {
        "notice": "toggle RewardN otifier of user, can only be called by owner"
      },
      "yieldPerVeUNO()": {
        "notice": "return yield per veUNO "
      }
    },
    "version": 1
  },
  "storageLayout": {
    "storage": [
      {
        "astId": 7257,
        "contract": "contracts/apps/VeUnoDaoYieldDistributor.sol:VeUnoDaoYieldDistributor",
        "label": "owner",
        "offset": 0,
        "slot": "0",
        "type": "t_address"
      },
      {
        "astId": 7259,
        "contract": "contracts/apps/VeUnoDaoYieldDistributor.sol:VeUnoDaoYieldDistributor",
        "label": "nominatedOwner",
        "offset": 0,
        "slot": "1",
        "type": "t_address"
      },
      {
        "astId": 7263,
        "contract": "contracts/apps/VeUnoDaoYieldDistributor.sol:VeUnoDaoYieldDistributor",
        "label": "__gap",
        "offset": 0,
        "slot": "2",
        "type": "t_array(t_uint256)30_storage"
      },
      {
        "astId": 7394,
        "contract": "contracts/apps/VeUnoDaoYieldDistributor.sol:VeUnoDaoYieldDistributor",
        "label": "lastRewardClaimTime",
        "offset": 0,
        "slot": "32",
        "type": "t_mapping(t_address,t_uint256)"
      },
      {
        "astId": 7397,
        "contract": "contracts/apps/VeUnoDaoYieldDistributor.sol:VeUnoDaoYieldDistributor",
        "label": "veUNO",
        "offset": 0,
        "slot": "33",
        "type": "t_contract(IVotingEscrow)11842"
      },
      {
        "astId": 7400,
        "contract": "contracts/apps/VeUnoDaoYieldDistributor.sol:VeUnoDaoYieldDistributor",
        "label": "emittedToken",
        "offset": 0,
        "slot": "34",
        "type": "t_contract(IERC20)1725"
      },
      {
        "astId": 7402,
        "contract": "contracts/apps/VeUnoDaoYieldDistributor.sol:VeUnoDaoYieldDistributor",
        "label": "periodFinish",
        "offset": 0,
        "slot": "35",
        "type": "t_uint256"
      },
      {
        "astId": 7404,
        "contract": "contracts/apps/VeUnoDaoYieldDistributor.sol:VeUnoDaoYieldDistributor",
        "label": "lastUpdateTime",
        "offset": 0,
        "slot": "36",
        "type": "t_uint256"
      },
      {
        "astId": 7406,
        "contract": "contracts/apps/VeUnoDaoYieldDistributor.sol:VeUnoDaoYieldDistributor",
        "label": "yieldRate",
        "offset": 0,
        "slot": "37",
        "type": "t_uint256"
      },
      {
        "astId": 7408,
        "contract": "contracts/apps/VeUnoDaoYieldDistributor.sol:VeUnoDaoYieldDistributor",
        "label": "yieldDuration",
        "offset": 0,
        "slot": "38",
        "type": "t_uint256"
      },
      {
        "astId": 7410,
        "contract": "contracts/apps/VeUnoDaoYieldDistributor.sol:VeUnoDaoYieldDistributor",
        "label": "yieldPerVeUNOStored",
        "offset": 0,
        "slot": "39",
        "type": "t_uint256"
      },
      {
        "astId": 7414,
        "contract": "contracts/apps/VeUnoDaoYieldDistributor.sol:VeUnoDaoYieldDistributor",
        "label": "userYieldPerTokenPaid",
        "offset": 0,
        "slot": "40",
        "type": "t_mapping(t_address,t_uint256)"
      },
      {
        "astId": 7418,
        "contract": "contracts/apps/VeUnoDaoYieldDistributor.sol:VeUnoDaoYieldDistributor",
        "label": "yields",
        "offset": 0,
        "slot": "41",
        "type": "t_mapping(t_address,t_uint256)"
      },
      {
        "astId": 7420,
        "contract": "contracts/apps/VeUnoDaoYieldDistributor.sol:VeUnoDaoYieldDistributor",
        "label": "totalVeUNOParticipating",
        "offset": 0,
        "slot": "42",
        "type": "t_uint256"
      },
      {
        "astId": 7422,
        "contract": "contracts/apps/VeUnoDaoYieldDistributor.sol:VeUnoDaoYieldDistributor",
        "label": "totalVeUNOSupplyStored",
        "offset": 0,
        "slot": "43",
        "type": "t_uint256"
      },
      {
        "astId": 7426,
        "contract": "contracts/apps/VeUnoDaoYieldDistributor.sol:VeUnoDaoYieldDistributor",
        "label": "userVeUNOCheckpointed",
        "offset": 0,
        "slot": "44",
        "type": "t_mapping(t_address,t_uint256)"
      },
      {
        "astId": 7430,
        "contract": "contracts/apps/VeUnoDaoYieldDistributor.sol:VeUnoDaoYieldDistributor",
        "label": "userVeUNOEndpointCheckpointed",
        "offset": 0,
        "slot": "45",
        "type": "t_mapping(t_address,t_uint256)"
      },
      {
        "astId": 7434,
        "contract": "contracts/apps/VeUnoDaoYieldDistributor.sol:VeUnoDaoYieldDistributor",
        "label": "userIsInitialized",
        "offset": 0,
        "slot": "46",
        "type": "t_mapping(t_address,t_bool)"
      },
      {
        "astId": 7438,
        "contract": "contracts/apps/VeUnoDaoYieldDistributor.sol:VeUnoDaoYieldDistributor",
        "label": "greylist",
        "offset": 0,
        "slot": "47",
        "type": "t_mapping(t_address,t_bool)"
      },
      {
        "astId": 7440,
        "contract": "contracts/apps/VeUnoDaoYieldDistributor.sol:VeUnoDaoYieldDistributor",
        "label": "yieldCollectionPaused",
        "offset": 0,
        "slot": "48",
        "type": "t_bool"
      },
      {
        "astId": 7442,
        "contract": "contracts/apps/VeUnoDaoYieldDistributor.sol:VeUnoDaoYieldDistributor",
        "label": "timelock",
        "offset": 1,
        "slot": "48",
        "type": "t_address"
      },
      {
        "astId": 7446,
        "contract": "contracts/apps/VeUnoDaoYieldDistributor.sol:VeUnoDaoYieldDistributor",
        "label": "rewardNotifiers",
        "offset": 0,
        "slot": "49",
        "type": "t_mapping(t_address,t_bool)"
      }
    ],
    "types": {
      "t_address": {
        "encoding": "inplace",
        "label": "address",
        "numberOfBytes": "20"
      },
      "t_array(t_uint256)30_storage": {
        "base": "t_uint256",
        "encoding": "inplace",
        "label": "uint256[30]",
        "numberOfBytes": "960"
      },
      "t_bool": {
        "encoding": "inplace",
        "label": "bool",
        "numberOfBytes": "1"
      },
      "t_contract(IERC20)1725": {
        "encoding": "inplace",
        "label": "contract IERC20",
        "numberOfBytes": "20"
      },
      "t_contract(IVotingEscrow)11842": {
        "encoding": "inplace",
        "label": "contract IVotingEscrow",
        "numberOfBytes": "20"
      },
      "t_mapping(t_address,t_bool)": {
        "encoding": "mapping",
        "key": "t_address",
        "label": "mapping(address => bool)",
        "numberOfBytes": "32",
        "value": "t_bool"
      },
      "t_mapping(t_address,t_uint256)": {
        "encoding": "mapping",
        "key": "t_address",
        "label": "mapping(address => uint256)",
        "numberOfBytes": "32",
        "value": "t_uint256"
      },
      "t_uint256": {
        "encoding": "inplace",
        "label": "uint256",
        "numberOfBytes": "32"
      }
    }
  }
}