{
  "address": "0xBdBC1af93D95909625b18775b14c7D21E00775Aa",
  "abi": [
    {
      "inputs": [
        {
          "internalType": "address",
          "name": "_token_addr",
          "type": "address"
        },
        {
          "internalType": "string",
          "name": "_name",
          "type": "string"
        },
        {
          "internalType": "string",
          "name": "_symbol",
          "type": "string"
        },
        {
          "internalType": "string",
          "name": "_version",
          "type": "string"
        },
        {
          "internalType": "address",
          "name": "_ownership",
          "type": "address"
        }
      ],
      "stateMutability": "nonpayable",
      "type": "constructor"
    },
    {
      "anonymous": false,
      "inputs": [
        {
          "indexed": true,
          "internalType": "address",
          "name": "provider",
          "type": "address"
        },
        {
          "indexed": false,
          "internalType": "uint256",
          "name": "value",
          "type": "uint256"
        },
        {
          "indexed": true,
          "internalType": "uint256",
          "name": "locktime",
          "type": "uint256"
        },
        {
          "indexed": false,
          "internalType": "int256",
          "name": "_type",
          "type": "int256"
        },
        {
          "indexed": false,
          "internalType": "uint256",
          "name": "ts",
          "type": "uint256"
        }
      ],
      "name": "Deposit",
      "type": "event"
    },
    {
      "anonymous": false,
      "inputs": [
        {
          "indexed": false,
          "internalType": "address",
          "name": "target",
          "type": "address"
        },
        {
          "indexed": false,
          "internalType": "uint256",
          "name": "value",
          "type": "uint256"
        },
        {
          "indexed": false,
          "internalType": "uint256",
          "name": "ts",
          "type": "uint256"
        }
      ],
      "name": "ForceUnlock",
      "type": "event"
    },
    {
      "anonymous": false,
      "inputs": [
        {
          "indexed": false,
          "internalType": "uint256",
          "name": "prevSupply",
          "type": "uint256"
        },
        {
          "indexed": false,
          "internalType": "uint256",
          "name": "supply",
          "type": "uint256"
        }
      ],
      "name": "Supply",
      "type": "event"
    },
    {
      "anonymous": false,
      "inputs": [
        {
          "indexed": true,
          "internalType": "address",
          "name": "provider",
          "type": "address"
        },
        {
          "indexed": false,
          "internalType": "uint256",
          "name": "value",
          "type": "uint256"
        },
        {
          "indexed": false,
          "internalType": "uint256",
          "name": "ts",
          "type": "uint256"
        }
      ],
      "name": "Withdraw",
      "type": "event"
    },
    {
      "anonymous": false,
      "inputs": [
        {
          "indexed": false,
          "internalType": "address",
          "name": "newSmartWalletChecker",
          "type": "address"
        }
      ],
      "name": "applyWallet",
      "type": "event"
    },
    {
      "anonymous": false,
      "inputs": [
        {
          "indexed": false,
          "internalType": "address",
          "name": "newSmartWalletChecker",
          "type": "address"
        }
      ],
      "name": "commitWallet",
      "type": "event"
    },
    {
      "inputs": [],
      "name": "apply_smart_wallet_checker",
      "outputs": [],
      "stateMutability": "nonpayable",
      "type": "function"
    },
    {
      "inputs": [
        {
          "internalType": "address",
          "name": "_addr",
          "type": "address"
        },
        {
          "internalType": "uint256",
          "name": "_t",
          "type": "uint256"
        }
      ],
      "name": "balanceOf",
      "outputs": [
        {
          "internalType": "uint256",
          "name": "",
          "type": "uint256"
        }
      ],
      "stateMutability": "view",
      "type": "function"
    },
    {
      "inputs": [
        {
          "internalType": "address",
          "name": "_addr",
          "type": "address"
        }
      ],
      "name": "balanceOf",
      "outputs": [
        {
          "internalType": "uint256",
          "name": "",
          "type": "uint256"
        }
      ],
      "stateMutability": "view",
      "type": "function"
    },
    {
      "inputs": [
        {
          "internalType": "address",
          "name": "_addr",
          "type": "address"
        },
        {
          "internalType": "uint256",
          "name": "_block",
          "type": "uint256"
        }
      ],
      "name": "balanceOfAt",
      "outputs": [
        {
          "internalType": "uint256",
          "name": "",
          "type": "uint256"
        }
      ],
      "stateMutability": "view",
      "type": "function"
    },
    {
      "inputs": [
        {
          "internalType": "address",
          "name": "_newController",
          "type": "address"
        }
      ],
      "name": "changeController",
      "outputs": [],
      "stateMutability": "nonpayable",
      "type": "function"
    },
    {
      "inputs": [],
      "name": "checkpoint",
      "outputs": [],
      "stateMutability": "nonpayable",
      "type": "function"
    },
    {
      "inputs": [
        {
          "internalType": "address",
          "name": "_addr",
          "type": "address"
        }
      ],
      "name": "commit_smart_wallet_checker",
      "outputs": [],
      "stateMutability": "nonpayable",
      "type": "function"
    },
    {
      "inputs": [],
      "name": "controller",
      "outputs": [
        {
          "internalType": "address",
          "name": "",
          "type": "address"
        }
      ],
      "stateMutability": "view",
      "type": "function"
    },
    {
      "inputs": [
        {
          "internalType": "uint256",
          "name": "_value",
          "type": "uint256"
        },
        {
          "internalType": "uint256",
          "name": "_unlock_time",
          "type": "uint256"
        }
      ],
      "name": "create_lock",
      "outputs": [],
      "stateMutability": "nonpayable",
      "type": "function"
    },
    {
      "inputs": [],
      "name": "decimals",
      "outputs": [
        {
          "internalType": "uint256",
          "name": "",
          "type": "uint256"
        }
      ],
      "stateMutability": "view",
      "type": "function"
    },
    {
      "inputs": [
        {
          "internalType": "address",
          "name": "_addr",
          "type": "address"
        },
        {
          "internalType": "uint256",
          "name": "_value",
          "type": "uint256"
        }
      ],
      "name": "deposit_for",
      "outputs": [],
      "stateMutability": "nonpayable",
      "type": "function"
    },
    {
      "inputs": [],
      "name": "epoch",
      "outputs": [
        {
          "internalType": "uint256",
          "name": "",
          "type": "uint256"
        }
      ],
      "stateMutability": "view",
      "type": "function"
    },
    {
      "inputs": [],
      "name": "future_smart_wallet_checker",
      "outputs": [
        {
          "internalType": "address",
          "name": "",
          "type": "address"
        }
      ],
      "stateMutability": "view",
      "type": "function"
    },
    {
      "inputs": [
        {
          "internalType": "address",
          "name": "_addr",
          "type": "address"
        }
      ],
      "name": "get_last_user_slope",
      "outputs": [
        {
          "internalType": "uint256",
          "name": "",
          "type": "uint256"
        }
      ],
      "stateMutability": "view",
      "type": "function"
    },
    {
      "inputs": [
        {
          "internalType": "address",
          "name": "_user",
          "type": "address"
        }
      ],
      "name": "get_user_point_epoch",
      "outputs": [
        {
          "internalType": "uint256",
          "name": "",
          "type": "uint256"
        }
      ],
      "stateMutability": "view",
      "type": "function"
    },
    {
      "inputs": [
        {
          "internalType": "uint256",
          "name": "_value",
          "type": "uint256"
        }
      ],
      "name": "increase_amount",
      "outputs": [],
      "stateMutability": "nonpayable",
      "type": "function"
    },
    {
      "inputs": [
        {
          "internalType": "uint256",
          "name": "_unlock_time",
          "type": "uint256"
        }
      ],
      "name": "increase_unlock_time",
      "outputs": [],
      "stateMutability": "nonpayable",
      "type": "function"
    },
    {
      "inputs": [
        {
          "internalType": "address",
          "name": "",
          "type": "address"
        }
      ],
      "name": "locked",
      "outputs": [
        {
          "internalType": "int256",
          "name": "amount",
          "type": "int256"
        },
        {
          "internalType": "uint256",
          "name": "end",
          "type": "uint256"
        }
      ],
      "stateMutability": "view",
      "type": "function"
    },
    {
      "inputs": [
        {
          "internalType": "address",
          "name": "_addr",
          "type": "address"
        }
      ],
      "name": "locked__end",
      "outputs": [
        {
          "internalType": "uint256",
          "name": "",
          "type": "uint256"
        }
      ],
      "stateMutability": "view",
      "type": "function"
    },
    {
      "inputs": [],
      "name": "name",
      "outputs": [
        {
          "internalType": "string",
          "name": "",
          "type": "string"
        }
      ],
      "stateMutability": "view",
      "type": "function"
    },
    {
      "inputs": [],
      "name": "ownership",
      "outputs": [
        {
          "internalType": "contract IOwnership",
          "name": "",
          "type": "address"
        }
      ],
      "stateMutability": "view",
      "type": "function"
    },
    {
      "inputs": [
        {
          "internalType": "uint256",
          "name": "",
          "type": "uint256"
        }
      ],
      "name": "point_history",
      "outputs": [
        {
          "internalType": "int256",
          "name": "bias",
          "type": "int256"
        },
        {
          "internalType": "int256",
          "name": "slope",
          "type": "int256"
        },
        {
          "internalType": "uint256",
          "name": "ts",
          "type": "uint256"
        },
        {
          "internalType": "uint256",
          "name": "blk",
          "type": "uint256"
        }
      ],
      "stateMutability": "view",
      "type": "function"
    },
    {
      "inputs": [
        {
          "internalType": "uint256",
          "name": "",
          "type": "uint256"
        }
      ],
      "name": "slope_changes",
      "outputs": [
        {
          "internalType": "int256",
          "name": "",
          "type": "int256"
        }
      ],
      "stateMutability": "view",
      "type": "function"
    },
    {
      "inputs": [],
      "name": "smart_wallet_checker",
      "outputs": [
        {
          "internalType": "address",
          "name": "",
          "type": "address"
        }
      ],
      "stateMutability": "view",
      "type": "function"
    },
    {
      "inputs": [],
      "name": "supply",
      "outputs": [
        {
          "internalType": "uint256",
          "name": "",
          "type": "uint256"
        }
      ],
      "stateMutability": "view",
      "type": "function"
    },
    {
      "inputs": [],
      "name": "symbol",
      "outputs": [
        {
          "internalType": "string",
          "name": "",
          "type": "string"
        }
      ],
      "stateMutability": "view",
      "type": "function"
    },
    {
      "inputs": [],
      "name": "token",
      "outputs": [
        {
          "internalType": "address",
          "name": "",
          "type": "address"
        }
      ],
      "stateMutability": "view",
      "type": "function"
    },
    {
      "inputs": [],
      "name": "totalSupply",
      "outputs": [
        {
          "internalType": "uint256",
          "name": "",
          "type": "uint256"
        }
      ],
      "stateMutability": "view",
      "type": "function"
    },
    {
      "inputs": [
        {
          "internalType": "uint256",
          "name": "_t",
          "type": "uint256"
        }
      ],
      "name": "totalSupply",
      "outputs": [
        {
          "internalType": "uint256",
          "name": "",
          "type": "uint256"
        }
      ],
      "stateMutability": "view",
      "type": "function"
    },
    {
      "inputs": [
        {
          "internalType": "uint256",
          "name": "_block",
          "type": "uint256"
        }
      ],
      "name": "totalSupplyAt",
      "outputs": [
        {
          "internalType": "uint256",
          "name": "",
          "type": "uint256"
        }
      ],
      "stateMutability": "view",
      "type": "function"
    },
    {
      "inputs": [],
      "name": "transfersEnabled",
      "outputs": [
        {
          "internalType": "bool",
          "name": "",
          "type": "bool"
        }
      ],
      "stateMutability": "view",
      "type": "function"
    },
    {
      "inputs": [
        {
          "internalType": "address",
          "name": "",
          "type": "address"
        }
      ],
      "name": "user_point_epoch",
      "outputs": [
        {
          "internalType": "uint256",
          "name": "",
          "type": "uint256"
        }
      ],
      "stateMutability": "view",
      "type": "function"
    },
    {
      "inputs": [
        {
          "internalType": "address",
          "name": "",
          "type": "address"
        },
        {
          "internalType": "uint256",
          "name": "",
          "type": "uint256"
        }
      ],
      "name": "user_point_history",
      "outputs": [
        {
          "internalType": "int256",
          "name": "bias",
          "type": "int256"
        },
        {
          "internalType": "int256",
          "name": "slope",
          "type": "int256"
        },
        {
          "internalType": "uint256",
          "name": "ts",
          "type": "uint256"
        },
        {
          "internalType": "uint256",
          "name": "blk",
          "type": "uint256"
        }
      ],
      "stateMutability": "view",
      "type": "function"
    },
    {
      "inputs": [
        {
          "internalType": "address",
          "name": "_addr",
          "type": "address"
        },
        {
          "internalType": "uint256",
          "name": "_idx",
          "type": "uint256"
        }
      ],
      "name": "user_point_history__ts",
      "outputs": [
        {
          "internalType": "uint256",
          "name": "",
          "type": "uint256"
        }
      ],
      "stateMutability": "view",
      "type": "function"
    },
    {
      "inputs": [],
      "name": "version",
      "outputs": [
        {
          "internalType": "string",
          "name": "",
          "type": "string"
        }
      ],
      "stateMutability": "view",
      "type": "function"
    },
    {
      "inputs": [],
      "name": "withdraw",
      "outputs": [],
      "stateMutability": "nonpayable",
      "type": "function"
    }
  ],
  "transactionHash": "0xcb6c848cc9f7843a8e6e10337826f132d4027b9204eb92baf66573d359a82433",
  "args": [
    "0x474021845c4643113458ea4414bdb7fb74a01a77",
    "Vote-Escrowed UNO",
    "veUNO",
    "1",
    "0x311520b1B66fc271c95aD8C36C0A3391Cd764C67"
  ],
  "numDeployments": 1,
  "solcInputHash": "d4020bd1c955aa7759ab3c6e5a3a9049",
  "bytecode": "0x60a06040523480156200001157600080fd5b5060405162002bdb38038062002bdb833981016040819052620000349162000291565b600160008190556001600160a01b0382811660805281546001600160a01b03191690871617905543600855426007556c050c783eb9b5c85f2a800000088054600160a01b6001600160a81b03199091163360ff60a01b1916171790558351620000b1906c050c783eb9b5c85f2a8000000990602087019062000101565b508251620000d3906c050c783eb9b5c85f2a8000000a90602086019062000101565b508151620000f5906c050c783eb9b5c85f2a8000000b90602085019062000101565b50505050505062000386565b8280546200010f9062000349565b90600052602060002090601f0160209004810192826200013357600085556200017e565b82601f106200014e57805160ff19168380011785556200017e565b828001600101855582156200017e579182015b828111156200017e57825182559160200191906001019062000161565b506200018c92915062000190565b5090565b5b808211156200018c576000815560010162000191565b80516001600160a01b0381168114620001bf57600080fd5b919050565b634e487b7160e01b600052604160045260246000fd5b600082601f830112620001ec57600080fd5b81516001600160401b0380821115620002095762000209620001c4565b604051601f8301601f19908116603f01168101908282118183101715620002345762000234620001c4565b816040528381526020925086838588010111156200025157600080fd5b600091505b8382101562000275578582018301518183018401529082019062000256565b83821115620002875760008385830101525b9695505050505050565b600080600080600060a08688031215620002aa57600080fd5b620002b586620001a7565b60208701519095506001600160401b0380821115620002d357600080fd5b620002e189838a01620001da565b95506040880151915080821115620002f857600080fd5b6200030689838a01620001da565b945060608801519150808211156200031d57600080fd5b506200032c88828901620001da565b9250506200033d60808701620001a7565b90509295509295909350565b600181811c908216806200035e57607f821691505b602082108114156200038057634e487b7160e01b600052602260045260246000fd5b50919050565b60805161282b620003b0600039600081816103490152818161103d0152611446015261282b6000f3fe608060405234801561001057600080fd5b506004361061021b5760003560e01c80637175d4f711610125578063bef97c87116100ad578063d5443e9d1161007c578063d5443e9d14610518578063da020a181461054d578063eff7a61214610560578063f77c479114610573578063fc0c546a1461059257600080fd5b8063bef97c8714610491578063c2c4c5c1146104c1578063cbf9fe5f146104c9578063d1febfb91461050557600080fd5b8063900cf0cf116100f4578063900cf0cf1461042e57806395d89b4114610437578063981b24d01461043f578063adc6358914610452578063bd85b0391461047e57600080fd5b80637175d4f7146103d55780637c74a174146103f45780638e5b490f146104075780638ff36fd11461040f57600080fd5b80633cebb823116101a857806357f901e21161017757806357f901e2146103315780635d03147a1461034457806365fc38731461038357806370a082311461039657806371197484146103a957600080fd5b80633cebb823146102f05780634957677c146103035780634ee2cd7e1461031657806354fd4d501461032957600080fd5b806318160ddd116101ef57806318160ddd1461029057806328d09d4714610298578063313ce567146102cb5780633a46273e146102d35780633ccfd60b146102e857600080fd5b8062fdd58e14610220578063010ae75714610246578063047fc9aa1461027257806306fdde031461027b575b600080fd5b61023361022e366004612476565b6105a5565b6040519081526020015b60405180910390f35b6102336102543660046124a2565b6c050c783eb9b5c85f2a800000066020526000908152604090205481565b61023360025481565b61028361069e565b60405161023d91906124c6565b610233610738565b6102ab6102a6366004612476565b6107a7565b60408051948552602085019390935291830152606082015260800161023d565b610233601281565b6102e66102e1366004612476565b6107f0565b005b6102e6610927565b6102e66102fe3660046124a2565b610b2a565b6102e661031136600461251b565b610b7b565b610233610324366004612476565b610ca6565b610283611018565b6102e661033f3660046124a2565b611031565b61036b7f000000000000000000000000000000000000000000000000000000000000000081565b6040516001600160a01b03909116815260200161023d565b6102e6610391366004612534565b611174565b6102336103a43660046124a2565b6112f2565b6102336103b736600461251b565b6c050c783eb9b5c85f2a800000076020526000908152604090205481565b6c050c783eb9b5c85f2a8000000d5461036b906001600160a01b031681565b6102336104023660046124a2565b6113db565b6102e661143a565b6c050c783eb9b5c85f2a8000000c5461036b906001600160a01b031681565b61023360045481565b610283611585565b61023361044d36600461251b565b61159e565b6102336104603660046124a2565b6001600160a01b031660009081526003602052604090206001015490565b61023361048c36600461251b565b611759565b6c050c783eb9b5c85f2a80000008546104b190600160a01b900460ff1681565b604051901515815260200161023d565b6102e66117d2565b6104f06104d73660046124a2565b6003602052600090815260409020805460019091015482565b6040805192835260208301919091520161023d565b6102ab61051336600461251b565b61180a565b6102336105263660046124a2565b6001600160a01b031660009081526c050c783eb9b5c85f2a80000006602052604090205490565b61023361055b366004612476565b611843565b6102e661056e36600461251b565b61188b565b6c050c783eb9b5c85f2a800000085461036b906001600160a01b031681565b60015461036b906001600160a01b031681565b6000816105b0574291505b6001600160a01b03831660009081526c050c783eb9b5c85f2a800000066020526040902054806105e4576000915050610698565b6001600160a01b03841660009081526c050c783eb9b5c85f2a800000056020526040812082633b9aca00811061061c5761061c612556565b604080516080810182526004929092029290920180548252600181015460208301526002810154928201839052600301546060820152915061065e9085612582565b816020015161066d9190612599565b8151829061067c90839061261e565b90525080516000131561068e57600081525b5191506106989050565b92915050565b6c050c783eb9b5c85f2a8000000980546106b79061265d565b80601f01602080910402602001604051908101604052809291908181526020018280546106e39061265d565b80156107305780601f1061070557610100808354040283529160200191610730565b820191906000526020600020905b81548152906001019060200180831161071357829003601f168201915b505050505081565b60045460009081600582680a18f07d736b90be55601d1b811061075d5761075d612556565b6004020160405180608001604052908160008201548152602001600182015481526020016002820154815260200160038201548152505090506107a08142611a13565b9250505090565b6c050c783eb9b5c85f2a8000000560205281600052604060002081633b9aca0081106107d257600080fd5b60040201805460018201546002830154600390930154919450925084565b6002600054141561081c5760405162461bcd60e51b815260040161081390612698565b60405180910390fd5b60026000558061083e5760405162461bcd60e51b8152600401610813906126cf565b6001600160a01b0382166000908152600360209081526040808320815180830190925280548083526001909101549282019290925291126108ba5760405162461bcd60e51b8152602060048201526016602482015275139bc8195e1a5cdd1a5b99c81b1bd8dac8199bdd5b9960521b6044820152606401610813565b4281602001511161090d5760405162461bcd60e51b815260206004820152601b60248201527f43616e6e6f742061646420746f2065787069726564206c6f636b2e00000000006044820152606401610813565b61091d3384846000856000611afc565b5050600160005550565b6002600054141561094a5760405162461bcd60e51b815260040161081390612698565b60026000908155604080518082018252338084526003602081815293852080548452919094529282526001909201549082018190524210156109c75760405162461bcd60e51b8152602060048201526016602482015275546865206c6f636b206469646e27742065787069726560501b6044820152606401610813565b8051604080518082018252336000818152600360208181529482208054855260018101805487870152868901848152848a52949093529452855190935551909155600254610a158382612582565b600255610a23338386611cb5565b60015460405163a9059cbb60e01b8152336004820152602481018590526001600160a01b039091169063a9059cbb906044016020604051808303816000875af1158015610a74573d6000803e3d6000fd5b505050506040513d601f19601f82011682018060405250810190610a989190612706565b610aa157600080fd5b6040805184815242602082015233917ff279e6a1f5e320cca91135676d9cb6e44ca8a08c0b88342bcdb1144f6511b568910160405180910390a27f5e2aa66efd74cce82b21852e317e5490d9ecc9e6bb953ae24d90851258cc2f5c81610b078582612582565b6040805192835260208301919091520160405180910390a1505060016000555050565b6c050c783eb9b5c85f2a80000008546001600160a01b03163314610b4d57600080fd5b6c050c783eb9b5c85f2a8000000880546001600160a01b0319166001600160a01b0392909216919091179055565b60026000541415610b9e5760405162461bcd60e51b815260040161081390612698565b6002600055610bac33612302565b33600090815260036020908152604091829020825180840190935280548352600101549082015281610bf05760405162461bcd60e51b8152600401610813906126cf565b8051600012610c3a5760405162461bcd60e51b8152602060048201526016602482015275139bc8195e1a5cdd1a5b99c81b1bd8dac8199bdd5b9960521b6044820152606401610813565b42816020015111610c8d5760405162461bcd60e51b815260206004820152601b60248201527f43616e6e6f742061646420746f2065787069726564206c6f636b2e00000000006044820152606401610813565b610c9d3333846000856002611afc565b50506001600055565b600043821115610cb557600080fd5b610ce76040518060a0016040528060008152602001600081526020016000815260200160008152602001600081525090565b60008082526001600160a01b03851681526c050c783eb9b5c85f2a8000000660209081526040822054908301525b60808111610db5576020820151825110610d2e57610db5565b60006002836020015184600001510160010181610d4d57610d4d612728565b6001600160a01b03881660009081526c050c783eb9b5c85f2a80000005602052604090209190049150859082633b9aca008110610d8c57610d8c612556565b600402016003015411610da157808352610dac565b600019810160208401525b50600101610d15565b506001600160a01b03841660009081526c050c783eb9b5c85f2a80000005602052604081208251633b9aca008110610def57610def612556565b6040805160808101825260049283029390930180548452600181015460208501526002810154848301526003015460608401529054908401819052909150600090610e3b9086906123f0565b90506000600582680a18f07d736b90be55601d1b8110610e5d57610e5d612556565b600402016040518060800160405290816000820154815260200160018201548152602001600282015481526020016003820154815250509050600084606001818152505060008460800181815250508360400151821015610f535760006005610ec784600161273e565b680a18f07d736b90be55601d1b8110610ee257610ee2612556565b60040201604051806080016040529081600082015481526020016001820154815260200160028201548152602001600382015481525050905081606001518160600151610f2f9190612582565b606086015260408083015190820151610f489190612582565b608086015250610f7c565b6060810151610f629043612582565b60608501526040810151610f769042612582565b60808501525b6040810151606085015115610fc6578460600151826060015188610fa09190612582565b8660800151610faf9190612756565b610fb99190612775565b610fc3908261273e565b90505b6040840151610fd59082612582565b8460200151610fe49190612599565b84518590610ff390839061261e565b905250835160001361100d57505090519250610698915050565b505050505092915050565b6c050c783eb9b5c85f2a8000000b80546106b79061265d565b336001600160a01b03167f00000000000000000000000000000000000000000000000000000000000000006001600160a01b0316638da5cb5b6040518163ffffffff1660e01b8152600401602060405180830381865afa158015611099573d6000803e3d6000fd5b505050506040513d601f19601f820116820180604052508101906110bd9190612797565b6001600160a01b0316146111135760405162461bcd60e51b815260206004820181905260248201527f43616c6c6572206973206e6f7420616c6c6f77656420746f206f7065726174656044820152606401610813565b6c050c783eb9b5c85f2a8000000c80546001600160a01b0319166001600160a01b0383169081179091556040519081527fd892557f2b4602e6f5c9bd6c7231cbc9f3d9a7dd4dd23a84a951d7460f8e868b906020015b60405180910390a150565b600260005414156111975760405162461bcd60e51b815260040161081390612698565b60026000556111a533612302565b6000811180156111b95750630784ce008111155b61122b5760405162461bcd60e51b815260206004820152603f60248201527f43616e206c6f636b20756e74696c2074696d6520696e20667574757265206f7260448201527f20566f74696e67206c6f636b2063616e2062652034207965617273206d6178006064820152608401610813565b62093a806112398183612775565b6112439190612756565b61124d904261273e565b336000908152600360209081526040918290208251808401909352805483526001015490820152909150826112945760405162461bcd60e51b8152600401610813906126cf565b8051156112e35760405162461bcd60e51b815260206004820152601960248201527f5769746864726177206f6c6420746f6b656e73206669727374000000000000006044820152606401610813565b61091d33338585856001611afc565b6001600160a01b03811660009081526c050c783eb9b5c85f2a800000066020526040812054429080611328575060009392505050565b6001600160a01b03841660009081526c050c783eb9b5c85f2a800000056020526040812082633b9aca00811061136057611360612556565b60408051608081018252600492909202929092018054825260018101546020830152600281015492820183905260030154606082015291506113a29084612582565b81602001516113b19190612599565b815182906113c090839061261e565b9052508051600013156113d257600081525b51949350505050565b6001600160a01b03811660009081526c050c783eb9b5c85f2a8000000660209081526040808320546c050c783eb9b5c85f2a80000005909252822081633b9aca00811061142a5761142a612556565b6004020160010154915050919050565b336001600160a01b03167f00000000000000000000000000000000000000000000000000000000000000006001600160a01b0316638da5cb5b6040518163ffffffff1660e01b8152600401602060405180830381865afa1580156114a2573d6000803e3d6000fd5b505050506040513d601f19601f820116820180604052508101906114c69190612797565b6001600160a01b03161461151c5760405162461bcd60e51b815260206004820181905260248201527f43616c6c6572206973206e6f7420616c6c6f77656420746f206f7065726174656044820152606401610813565b6c050c783eb9b5c85f2a8000000c546c050c783eb9b5c85f2a8000000d80546001600160a01b0319166001600160a01b0390921691821790556040518181527fd892557f2b4602e6f5c9bd6c7231cbc9f3d9a7dd4dd23a84a951d7460f8e868b90602001611169565b6c050c783eb9b5c85f2a8000000a80546106b79061265d565b6000438211156115ad57600080fd5b60045460006115bc84836123f0565b90506000600582680a18f07d736b90be55601d1b81106115de576115de612556565b6004020160405180608001604052908160008201548152602001600182015481526020016002820154815260200160038201548152505090506000838310156116e7576000600561163085600161273e565b680a18f07d736b90be55601d1b811061164b5761164b612556565b60040201604051806080016040529081600082015481526020016001820154815260200160028201548152602001600382015481525050905080606001518360600151146116e157826060015181606001516116a79190612582565b836040015182604001516116bb9190612582565b60608501516116ca908a612582565b6116d49190612756565b6116de9190612775565b91505b50611736565b438260600151146117365760608201516117019043612582565b60408301516117109042612582565b606084015161171f9089612582565b6117299190612756565b6117339190612775565b90505b61174f8282846040015161174a919061273e565b611a13565b9695505050505050565b600081611764574291505b6004546000600582680a18f07d736b90be55601d1b811061178757611787612556565b6004020160405180608001604052908160008201548152602001600182015481526020016002820154815260200160038201548152505090506117ca8185611a13565b949350505050565b6040805180820190915260008082526020820152604080518082019091526000808252602082015261180660008383611cb5565b5050565b600581680a18f07d736b90be55601d1b811061182557600080fd5b60040201805460018201546002830154600390930154919350919084565b6001600160a01b03821660009081526c050c783eb9b5c85f2a800000056020526040812082633b9aca00811061187b5761187b612556565b6004020160020154905092915050565b600260005414156118ae5760405162461bcd60e51b815260040161081390612698565b60026000556118bc33612302565b336000908152600360209081526040918290208251808401909352805483526001015490820181905242106119225760405162461bcd60e51b815260206004820152600c60248201526b131bd8dac8195e1c1a5c995960a21b6044820152606401610813565b80516000126119675760405162461bcd60e51b8152602060048201526011602482015270139bdd1a1a5b99c81a5cc81b1bd8dad959607a1b6044820152606401610813565b60008211801561197b5750630784ce008211155b6119f75760405162461bcd60e51b815260206004820152604160248201527f43616e206f6e6c7920696e637265617365206c6f636b206475726174696f6e2060448201527f6f7220566f74696e67206c6f636b2063616e2062652034207965617273206d616064820152600f60fb1b608482015260a401610813565b62093a808083040242019150610c9d3333600085856003611afc565b600080839050600062093a8080836040015181611a3257611a32612728565b0402905060005b60ff811015611ae357611a4f62093a808361273e565b9150600085831115611a6357859250611a80565b5060008281526c050c783eb9b5c85f2a8000000760205260409020545b6040840151611a8f9084612582565b8460200151611a9e9190612599565b84518590611aad90839061261e565b90525082861415611abe5750611ae3565b8084602001818151611ad091906127b4565b9052505060408301829052600101611a39565b50815160001315611af357600082525b50519392505050565b6040805180820182528351815260208085018051828401528351808501909452855184525190830152600254909190611b35878261273e565b6002558251611b459088906127b4565b83528515611b5557602083018690525b6001600160a01b03881660009081526003602090815260409091208451815590840151600190910155611b89888385611cb5565b8615611c15576001546040516323b872dd60e01b81526001600160a01b038b81166004830152306024830152604482018a9052909116906323b872dd906064016020604051808303816000875af1158015611be8573d6000803e3d6000fd5b505050506040513d601f19601f82011682018060405250810190611c0c9190612706565b611c1557600080fd5b602080840151604080518a81529283018790524290830152906001600160a01b038a16907f25a2cd6979bf1e8caf0d1ced1c5b3b70e9870bc562e6cfd5c551d71e24fb19ea9060600160405180910390a37f5e2aa66efd74cce82b21852e317e5490d9ecc9e6bb953ae24d90851258cc2f5c81611c92898261273e565b6040805192835260208301919091520160405180910390a1505050505050505050565b611ce06040518060800160405280600081526020016000815260200160008152602001600081525090565b611d0b6040518060800160405280600081526020016000815260200160008152602001600081525090565b60045460009081906001600160a01b03881615611e2057428760200151118015611d36575086516000125b15611d6d578651630784ce009005602080870191909152870151611d5b904290612582565b8560200151611d6a9190612599565b85525b428660200151118015611d81575085516000125b15611db8578551630784ce009005602080860191909152860151611da6904290612582565b8460200151611db59190612599565b84525b60208088015160009081526c050c783eb9b5c85f2a80000007825260409020549087015190935015611e2057866020015186602001511415611dfc57829150611e20565b60208087015160009081526c050c783eb9b5c85f2a80000007909152604090205491505b604080516080810182526000808252602082015242918101919091524360608201528115611ea057600582680a18f07d736b90be55601d1b8110611e6657611e66612556565b6004020160405180608001604052908160008201548152602001600182015481526020016002820154815260200160038201548152505090505b604081015181600042831015611eed576040840151611ebf9042612582565b6060850151611ece9043612582565b611ee090670de0b6b3a7640000612756565b611eea9190612775565b90505b62093a808084040260005b60ff81101561206557611f0e62093a808361273e565b9150600042831115611f2257429250611f3f565b5060008281526c050c783eb9b5c85f2a8000000760205260409020545b611f498684612582565b8760200151611f589190612599565b8751611f64919061261e565b8752602087018051829190611f7a9083906127b4565b905250865160001315611f8c57600087525b600087602001511215611fa157600060208801525b60408088018490528501519295508592670de0b6b3a764000090611fc59085612582565b611fcf9086612756565b611fd99190612775565b8560600151611fe8919061273e565b6060880152611ff860018961273e565b97504283141561200e5750436060870152612065565b86600589680a18f07d736b90be55601d1b811061202d5761202d612556565b600402016000820151816000015560208201518160010155604082015181600201556060820151816003015590505050600101611ef8565b5060048690556001600160a01b038d16156120e6578960200151896020015161208e919061261e565b8560200181815161209f91906127b4565b905250895189516120b0919061261e565b855186906120bf9083906127b4565b9052506020850151600013156120d757600060208601525b8451600013156120e657600085525b84600587680a18f07d736b90be55601d1b811061210557612105612556565b82516004919091029190910190815560208201516001820155604082015160028201556060909101516003909101558c6001600160a01b038116156122f257428d6020015111156121a75760208b015161215f908a6127b4565b98508c602001518c6020015114156121835760208a0151612180908a61261e565b98505b6020808e015160009081526c050c783eb9b5c85f2a80000007909152604090208990555b428c6020015111156121f8578c602001518c6020015111156121f85760208a01516121d2908961261e565b6020808e015160009081526c050c783eb9b5c85f2a800000079091526040902081905597505b60006c050c783eb9b5c85f2a800000066000836001600160a01b03166001600160a01b03168152602001908152602001600020546001019050806c050c783eb9b5c85f2a800000066000846001600160a01b03166001600160a01b0316815260200190815260200160002081905550428b6040018181525050438b60600181815250508a6c050c783eb9b5c85f2a800000056000846001600160a01b03166001600160a01b0316815260200190815260200160002082633b9aca0081106122c1576122c1612556565b6004020160008201518160000155602082015181600101556040820151816002015560608201518160030155905050505b5050505050505050505050505050565b6001600160a01b03811632146123ed576c050c783eb9b5c85f2a8000000d546001600160a01b031680156123a557604051631846d2f560e31b81526001600160a01b03838116600483015282169063c23697a8906024016020604051808303816000875af1158015612378573d6000803e3d6000fd5b505050506040513d601f19601f8201168201806040525081019061239c9190612706565b156123a5575050565b60405162461bcd60e51b815260206004820152601f60248201527f636f6e7472616374206465706f7369746f7273206e6f7420616c6c6f776564006044820152606401610813565b50565b60008082815b608081116124575781831061240a57612457565b60028284016001010486600582680a18f07d736b90be55601d1b811061243257612432612556565b6004020160030154116124475780935061244e565b6001810392505b506001016123f6565b5090949350505050565b6001600160a01b03811681146123ed57600080fd5b6000806040838503121561248957600080fd5b823561249481612461565b946020939093013593505050565b6000602082840312156124b457600080fd5b81356124bf81612461565b9392505050565b600060208083528351808285015260005b818110156124f3578581018301518582016040015282016124d7565b81811115612505576000604083870101525b50601f01601f1916929092016040019392505050565b60006020828403121561252d57600080fd5b5035919050565b6000806040838503121561254757600080fd5b50508035926020909101359150565b634e487b7160e01b600052603260045260246000fd5b634e487b7160e01b600052601160045260246000fd5b6000828210156125945761259461256c565b500390565b60006001600160ff1b03818413828413808216868404861116156125bf576125bf61256c565b600160ff1b60008712828116878305891216156125de576125de61256c565b600087129250878205871284841616156125fa576125fa61256c565b878505871281841616156126105761261061256c565b505050929093029392505050565b60008083128015600160ff1b85018412161561263c5761263c61256c565b6001600160ff1b03840183138116156126575761265761256c565b50500390565b600181811c9082168061267157607f821691505b6020821081141561269257634e487b7160e01b600052602260045260246000fd5b50919050565b6020808252601f908201527f5265656e7472616e637947756172643a207265656e7472616e742063616c6c00604082015260600190565b60208082526018908201527f6465763a206e656564206e6f6e2d7a65726f2076616c75650000000000000000604082015260600190565b60006020828403121561271857600080fd5b815180151581146124bf57600080fd5b634e487b7160e01b600052601260045260246000fd5b600082198211156127515761275161256c565b500190565b60008160001904831182151516156127705761277061256c565b500290565b60008261279257634e487b7160e01b600052601260045260246000fd5b500490565b6000602082840312156127a957600080fd5b81516124bf81612461565b600080821280156001600160ff1b03849003851316156127d6576127d661256c565b600160ff1b83900384128116156127ef576127ef61256c565b5050019056fea26469706673582212203985299aa8d6aa11c15e7d9167d2be83312ef286696c40fd3b6da43285a91e8664736f6c634300080a0033",
  "devdoc": {
    "kind": "dev",
    "methods": {},
    "version": 1
  },
  "userdoc": {
    "kind": "user",
    "methods": {},
    "version": 1
  },
  "storageLayout": {
    "storage": [
      {
        "astId": 115,
        "contract": "contracts/VotingEscrow.sol:VotingEscrow",
        "label": "_status",
        "offset": 0,
        "slot": "0",
        "type": "t_uint256"
      },
      {
        "astId": 1028,
        "contract": "contracts/VotingEscrow.sol:VotingEscrow",
        "label": "token",
        "offset": 0,
        "slot": "1",
        "type": "t_address"
      },
      {
        "astId": 1030,
        "contract": "contracts/VotingEscrow.sol:VotingEscrow",
        "label": "supply",
        "offset": 0,
        "slot": "2",
        "type": "t_uint256"
      },
      {
        "astId": 1035,
        "contract": "contracts/VotingEscrow.sol:VotingEscrow",
        "label": "locked",
        "offset": 0,
        "slot": "3",
        "type": "t_mapping(t_address,t_struct(LockedBalance)955_storage)"
      },
      {
        "astId": 1037,
        "contract": "contracts/VotingEscrow.sol:VotingEscrow",
        "label": "epoch",
        "offset": 0,
        "slot": "4",
        "type": "t_uint256"
      },
      {
        "astId": 1042,
        "contract": "contracts/VotingEscrow.sol:VotingEscrow",
        "label": "point_history",
        "offset": 0,
        "slot": "5",
        "type": "t_array(t_struct(Point)950_storage)100000000000000000000000000000_storage"
      },
      {
        "astId": 1049,
        "contract": "contracts/VotingEscrow.sol:VotingEscrow",
        "label": "user_point_history",
        "offset": 0,
        "slot": "400000000000000000000000000005",
        "type": "t_mapping(t_address,t_array(t_struct(Point)950_storage)1000000000_storage)"
      },
      {
        "astId": 1053,
        "contract": "contracts/VotingEscrow.sol:VotingEscrow",
        "label": "user_point_epoch",
        "offset": 0,
        "slot": "400000000000000000000000000006",
        "type": "t_mapping(t_address,t_uint256)"
      },
      {
        "astId": 1057,
        "contract": "contracts/VotingEscrow.sol:VotingEscrow",
        "label": "slope_changes",
        "offset": 0,
        "slot": "400000000000000000000000000007",
        "type": "t_mapping(t_uint256,t_int256)"
      },
      {
        "astId": 1059,
        "contract": "contracts/VotingEscrow.sol:VotingEscrow",
        "label": "controller",
        "offset": 0,
        "slot": "400000000000000000000000000008",
        "type": "t_address"
      },
      {
        "astId": 1061,
        "contract": "contracts/VotingEscrow.sol:VotingEscrow",
        "label": "transfersEnabled",
        "offset": 20,
        "slot": "400000000000000000000000000008",
        "type": "t_bool"
      },
      {
        "astId": 1063,
        "contract": "contracts/VotingEscrow.sol:VotingEscrow",
        "label": "name",
        "offset": 0,
        "slot": "400000000000000000000000000009",
        "type": "t_string_storage"
      },
      {
        "astId": 1065,
        "contract": "contracts/VotingEscrow.sol:VotingEscrow",
        "label": "symbol",
        "offset": 0,
        "slot": "400000000000000000000000000010",
        "type": "t_string_storage"
      },
      {
        "astId": 1067,
        "contract": "contracts/VotingEscrow.sol:VotingEscrow",
        "label": "version",
        "offset": 0,
        "slot": "400000000000000000000000000011",
        "type": "t_string_storage"
      },
      {
        "astId": 1072,
        "contract": "contracts/VotingEscrow.sol:VotingEscrow",
        "label": "future_smart_wallet_checker",
        "offset": 0,
        "slot": "400000000000000000000000000012",
        "type": "t_address"
      },
      {
        "astId": 1074,
        "contract": "contracts/VotingEscrow.sol:VotingEscrow",
        "label": "smart_wallet_checker",
        "offset": 0,
        "slot": "400000000000000000000000000013",
        "type": "t_address"
      }
    ],
    "types": {
      "t_address": {
        "encoding": "inplace",
        "label": "address",
        "numberOfBytes": "20"
      },
      "t_array(t_struct(Point)950_storage)100000000000000000000000000000_storage": {
        "base": "t_struct(Point)950_storage",
        "encoding": "inplace",
        "label": "struct VotingEscrow.Point[100000000000000000000000000000]",
        "numberOfBytes": "12800000000000000000000000000000"
      },
      "t_array(t_struct(Point)950_storage)1000000000_storage": {
        "base": "t_struct(Point)950_storage",
        "encoding": "inplace",
        "label": "struct VotingEscrow.Point[1000000000]",
        "numberOfBytes": "128000000000"
      },
      "t_bool": {
        "encoding": "inplace",
        "label": "bool",
        "numberOfBytes": "1"
      },
      "t_int256": {
        "encoding": "inplace",
        "label": "int256",
        "numberOfBytes": "32"
      },
      "t_mapping(t_address,t_array(t_struct(Point)950_storage)1000000000_storage)": {
        "encoding": "mapping",
        "key": "t_address",
        "label": "mapping(address => struct VotingEscrow.Point[1000000000])",
        "numberOfBytes": "32",
        "value": "t_array(t_struct(Point)950_storage)1000000000_storage"
      },
      "t_mapping(t_address,t_struct(LockedBalance)955_storage)": {
        "encoding": "mapping",
        "key": "t_address",
        "label": "mapping(address => struct VotingEscrow.LockedBalance)",
        "numberOfBytes": "32",
        "value": "t_struct(LockedBalance)955_storage"
      },
      "t_mapping(t_address,t_uint256)": {
        "encoding": "mapping",
        "key": "t_address",
        "label": "mapping(address => uint256)",
        "numberOfBytes": "32",
        "value": "t_uint256"
      },
      "t_mapping(t_uint256,t_int256)": {
        "encoding": "mapping",
        "key": "t_uint256",
        "label": "mapping(uint256 => int256)",
        "numberOfBytes": "32",
        "value": "t_int256"
      },
      "t_string_storage": {
        "encoding": "bytes",
        "label": "string",
        "numberOfBytes": "32"
      },
      "t_struct(LockedBalance)955_storage": {
        "encoding": "inplace",
        "label": "struct VotingEscrow.LockedBalance",
        "members": [
          {
            "astId": 952,
            "contract": "contracts/VotingEscrow.sol:VotingEscrow",
            "label": "amount",
            "offset": 0,
            "slot": "0",
            "type": "t_int256"
          },
          {
            "astId": 954,
            "contract": "contracts/VotingEscrow.sol:VotingEscrow",
            "label": "end",
            "offset": 0,
            "slot": "1",
            "type": "t_uint256"
          }
        ],
        "numberOfBytes": "64"
      },
      "t_struct(Point)950_storage": {
        "encoding": "inplace",
        "label": "struct VotingEscrow.Point",
        "members": [
          {
            "astId": 943,
            "contract": "contracts/VotingEscrow.sol:VotingEscrow",
            "label": "bias",
            "offset": 0,
            "slot": "0",
            "type": "t_int256"
          },
          {
            "astId": 945,
            "contract": "contracts/VotingEscrow.sol:VotingEscrow",
            "label": "slope",
            "offset": 0,
            "slot": "1",
            "type": "t_int256"
          },
          {
            "astId": 947,
            "contract": "contracts/VotingEscrow.sol:VotingEscrow",
            "label": "ts",
            "offset": 0,
            "slot": "2",
            "type": "t_uint256"
          },
          {
            "astId": 949,
            "contract": "contracts/VotingEscrow.sol:VotingEscrow",
            "label": "blk",
            "offset": 0,
            "slot": "3",
            "type": "t_uint256"
          }
        ],
        "numberOfBytes": "128"
      },
      "t_uint256": {
        "encoding": "inplace",
        "label": "uint256",
        "numberOfBytes": "32"
      }
    }
  }
}