{
  "address": "0x989A3277430b07783F1293641bfFA2C6b6EB7A96",
  "abi": [
    {
      "inputs": [],
      "stateMutability": "nonpayable",
      "type": "constructor"
    },
    {
      "anonymous": false,
      "inputs": [
        {
          "indexed": true,
          "internalType": "address",
          "name": "owner",
          "type": "address"
        }
      ],
      "name": "AcceptNewOwnership",
      "type": "event"
    },
    {
      "anonymous": false,
      "inputs": [
        {
          "indexed": true,
          "internalType": "address",
          "name": "futureOwner",
          "type": "address"
        }
      ],
      "name": "CommitNewOwnership",
      "type": "event"
    },
    {
      "inputs": [],
      "name": "acceptTransferOwnership",
      "outputs": [],
      "stateMutability": "nonpayable",
      "type": "function"
    },
    {
      "inputs": [
        {
          "internalType": "address",
          "name": "newOwner",
          "type": "address"
        }
      ],
      "name": "commitTransferOwnership",
      "outputs": [],
      "stateMutability": "nonpayable",
      "type": "function"
    },
    {
      "inputs": [],
      "name": "futureOwner",
      "outputs": [
        {
          "internalType": "address",
          "name": "",
          "type": "address"
        }
      ],
      "stateMutability": "view",
      "type": "function"
    },
    {
      "inputs": [],
      "name": "owner",
      "outputs": [
        {
          "internalType": "address",
          "name": "",
          "type": "address"
        }
      ],
      "stateMutability": "view",
      "type": "function"
    }
  ],
  "transactionHash": "0x4c9205ee2a9b2f0b3d66b57814318eb478ae05f4489c9f6511b9b81d5af97b0f",
  "args": [],
  "numDeployments": 1,
  "solcInputHash": "12947e8f813ac0e8aee4178fa86dd8ac",
  "bytecode": "0x608060405234801561001057600080fd5b50600080546001600160a01b03191633908117825560405190917f405c0e6e5e78abd3919565924321c67e70f1b0f989c4ac8cd327269a73c42d6e91a261025a8061005c6000396000f3fe608060405234801561001057600080fd5b506004361061004c5760003560e01c80637b371107146100515780638da5cb5b1461005b578063b9e9d1aa14610084578063e1cebf0b14610095575b600080fd5b6100596100a8565b005b6000546001600160a01b03165b6040516001600160a01b03909116815260200160405180910390f35b6001546001600160a01b0316610068565b6100596100a33660046101f4565b610150565b6001546001600160a01b031633146101075760405162461bcd60e51b815260206004820181905260248201527f43616c6c6572206973206e6f7420616c6c6f77656420746f206f70657261746560448201526064015b60405180910390fd5b60008054336001600160a01b0319918216811783556001805490921690915560405190917f405c0e6e5e78abd3919565924321c67e70f1b0f989c4ac8cd327269a73c42d6e91a2565b6000546001600160a01b031633146101aa5760405162461bcd60e51b815260206004820181905260248201527f43616c6c6572206973206e6f7420616c6c6f77656420746f206f70657261746560448201526064016100fe565b600180546001600160a01b0319166001600160a01b0383169081179091556040517f3abe9db6779f8a27a45cfa602f3f6da1b676d51b7b9b9f8e88da494f78dfda5d90600090a250565b60006020828403121561020657600080fd5b81356001600160a01b038116811461021d57600080fd5b939250505056fea2646970667358221220455ef6bbbc71fe1df935fb84ab63f56acc6ac996a49a757b5ceccf27403aded764736f6c634300080a0033",
  "devdoc": {
    "kind": "dev",
    "methods": {
      "constructor": {
        "details": "Initializes the contract setting the deployer as the initial owner."
      },
      "owner()": {
        "details": "Returns the address of the current owner."
      }
    },
    "version": 1
  },
  "userdoc": {
    "kind": "user",
    "methods": {},
    "version": 1
  },
  "storageLayout": {
    "storage": [
      {
        "astId": 822,
        "contract": "contracts/Ownership.sol:Ownership",
        "label": "_owner",
        "offset": 0,
        "slot": "0",
        "type": "t_address"
      },
      {
        "astId": 824,
        "contract": "contracts/Ownership.sol:Ownership",
        "label": "_futureOwner",
        "offset": 0,
        "slot": "1",
        "type": "t_address"
      }
    ],
    "types": {
      "t_address": {
        "encoding": "inplace",
        "label": "address",
        "numberOfBytes": "20"
      }
    }
  }
}