{
  "address": "0xa7D01d66C190dc9E4d9DeA55c9BF823E290359df",
  "abi": [
    {
      "inputs": [
        {
          "internalType": "address",
          "name": "",
          "type": "address"
        }
      ],
      "name": "check",
      "outputs": [
        {
          "internalType": "bool",
          "name": "",
          "type": "bool"
        }
      ],
      "stateMutability": "view",
      "type": "function"
    }
  ],
  "transactionHash": "0xb91ac15d012527ea20583e301c4d1695690caa945db3d61b358937ebe525db53",
  "args": [],
  "numDeployments": 1,
  "solcInputHash": "fef92e66a9031a72ae723e922eb7567e",
  "bytecode": "0x608060405234801561001057600080fd5b5060b68061001f6000396000f3fe6080604052348015600f57600080fd5b506004361060285760003560e01c8063c23697a814602d575b600080fd5b603e60383660046052565b50600190565b604051901515815260200160405180910390f35b600060208284031215606357600080fd5b81356001600160a01b0381168114607957600080fd5b939250505056fea26469706673582212209453398771eacba1c3c6ee95a52e332db8896197c86f5bbafb67b2d5bd2e9ff264736f6c634300080a0033",
  "devdoc": {
    "kind": "dev",
    "methods": {},
    "version": 1
  },
  "userdoc": {
    "kind": "user",
    "methods": {},
    "version": 1
  },
  "storageLayout": {
    "storage": [],
    "types": null
  }
}