{
  "address": "0xaEf669bD731e8eD84Ee258a2Ee61A54E2C8B460D",
  "abi": [
    {
      "inputs": [
        {
          "internalType": "address",
          "name": "account",
          "type": "address"
        }
      ],
      "name": "check",
      "outputs": [
        {
          "internalType": "bool",
          "name": "",
          "type": "bool"
        }
      ],
      "stateMutability": "view",
      "type": "function"
    }
  ],
  "transactionHash": "0x2f3c49e7e477cf459136fb8eb3dca7a7f83d17838241142d3440c4e350f60e8f",
  "args": [],
  "numDeployments": 1,
  "solcInputHash": "4a55c6c5285543d7490dbc8d59410ac8",
  "bytecode": "0x608060405234801561001057600080fd5b5060b58061001f6000396000f3fe6080604052348015600f57600080fd5b506004361060285760003560e01c8063c23697a814602d575b600080fd5b603d60383660046051565b3b1590565b604051901515815260200160405180910390f35b600060208284031215606257600080fd5b81356001600160a01b0381168114607857600080fd5b939250505056fea2646970667358221220ec615a542fe836622438d249eb4c46c3bb4c1ec412b586e2a7ad6fce0df5dca664736f6c634300080a0033",
  "devdoc": {
    "kind": "dev",
    "methods": {},
    "version": 1
  },
  "userdoc": {
    "kind": "user",
    "methods": {},
    "version": 1
  },
  "storageLayout": {
    "storage": [],
    "types": null
  }
}