{
  "address": "0xFE77760384bE8bAa3d86B352496055CD867ad204",
  "abi": [
    {
      "inputs": [
        {
          "internalType": "address",
          "name": "_emittedToken",
          "type": "address"
        },
        {
          "internalType": "address",
          "name": "_timelock_address",
          "type": "address"
        },
        {
          "internalType": "address",
          "name": "_veUNO_address",
          "type": "address"
        }
      ],
      "stateMutability": "nonpayable",
      "type": "constructor"
    },
    {
      "anonymous": false,
      "inputs": [],
      "name": "DefaultInitialization",
      "type": "event"
    },
    {
      "anonymous": false,
      "inputs": [
        {
          "indexed": true,
          "internalType": "address",
          "name": "user",
          "type": "address"
        },
        {
          "indexed": false,
          "internalType": "uint256",
          "name": "yieldAmount",
          "type": "uint256"
        },
        {
          "indexed": false,
          "internalType": "address",
          "name": "token_address",
          "type": "address"
        }
      ],
      "name": "OldYieldCollected",
      "type": "event"
    },
    {
      "anonymous": false,
      "inputs": [
        {
          "indexed": true,
          "internalType": "address",
          "name": "previousOwner",
          "type": "address"
        },
        {
          "indexed": true,
          "internalType": "address",
          "name": "newOwner",
          "type": "address"
        }
      ],
      "name": "OwnershipTransferred",
      "type": "event"
    },
    {
      "anonymous": false,
      "inputs": [
        {
          "indexed": false,
          "internalType": "address",
          "name": "token",
          "type": "address"
        },
        {
          "indexed": false,
          "internalType": "uint256",
          "name": "amount",
          "type": "uint256"
        }
      ],
      "name": "RecoveredERC20",
      "type": "event"
    },
    {
      "anonymous": false,
      "inputs": [
        {
          "indexed": false,
          "internalType": "uint256",
          "name": "reward",
          "type": "uint256"
        },
        {
          "indexed": false,
          "internalType": "uint256",
          "name": "yieldRate",
          "type": "uint256"
        }
      ],
      "name": "RewardAdded",
      "type": "event"
    },
    {
      "anonymous": false,
      "inputs": [
        {
          "indexed": true,
          "internalType": "address",
          "name": "user",
          "type": "address"
        },
        {
          "indexed": false,
          "internalType": "uint256",
          "name": "yieldAmount",
          "type": "uint256"
        },
        {
          "indexed": false,
          "internalType": "address",
          "name": "token_address",
          "type": "address"
        }
      ],
      "name": "YieldCollected",
      "type": "event"
    },
    {
      "anonymous": false,
      "inputs": [
        {
          "indexed": false,
          "internalType": "uint256",
          "name": "newDuration",
          "type": "uint256"
        }
      ],
      "name": "YieldDurationUpdated",
      "type": "event"
    },
    {
      "anonymous": false,
      "inputs": [
        {
          "indexed": false,
          "internalType": "address",
          "name": "token",
          "type": "address"
        },
        {
          "indexed": false,
          "internalType": "uint256",
          "name": "yieldRate",
          "type": "uint256"
        }
      ],
      "name": "YieldPeriodRenewed",
      "type": "event"
    },
    {
      "inputs": [],
      "name": "checkpoint",
      "outputs": [],
      "stateMutability": "nonpayable",
      "type": "function"
    },
    {
      "inputs": [
        {
          "internalType": "address",
          "name": "user_addr",
          "type": "address"
        }
      ],
      "name": "checkpointOtherUser",
      "outputs": [],
      "stateMutability": "nonpayable",
      "type": "function"
    },
    {
      "inputs": [
        {
          "internalType": "address",
          "name": "account",
          "type": "address"
        }
      ],
      "name": "earned",
      "outputs": [
        {
          "internalType": "uint256",
          "name": "",
          "type": "uint256"
        }
      ],
      "stateMutability": "view",
      "type": "function"
    },
    {
      "inputs": [
        {
          "internalType": "address",
          "name": "account",
          "type": "address"
        }
      ],
      "name": "eligibleCurrentVeUNO",
      "outputs": [
        {
          "internalType": "uint256",
          "name": "eligible_veuno_bal",
          "type": "uint256"
        },
        {
          "internalType": "uint256",
          "name": "stored_ending_timestamp",
          "type": "uint256"
        }
      ],
      "stateMutability": "view",
      "type": "function"
    },
    {
      "inputs": [],
      "name": "emittedToken",
      "outputs": [
        {
          "internalType": "contract ERC20",
          "name": "",
          "type": "address"
        }
      ],
      "stateMutability": "view",
      "type": "function"
    },
    {
      "inputs": [],
      "name": "emitted_token_address",
      "outputs": [
        {
          "internalType": "address",
          "name": "",
          "type": "address"
        }
      ],
      "stateMutability": "view",
      "type": "function"
    },
    {
      "inputs": [],
      "name": "fractionParticipating",
      "outputs": [
        {
          "internalType": "uint256",
          "name": "",
          "type": "uint256"
        }
      ],
      "stateMutability": "view",
      "type": "function"
    },
    {
      "inputs": [],
      "name": "getYield",
      "outputs": [
        {
          "internalType": "uint256",
          "name": "yield0",
          "type": "uint256"
        }
      ],
      "stateMutability": "nonpayable",
      "type": "function"
    },
    {
      "inputs": [],
      "name": "getYieldForDuration",
      "outputs": [
        {
          "internalType": "uint256",
          "name": "",
          "type": "uint256"
        }
      ],
      "stateMutability": "view",
      "type": "function"
    },
    {
      "inputs": [
        {
          "internalType": "address",
          "name": "",
          "type": "address"
        }
      ],
      "name": "greylist",
      "outputs": [
        {
          "internalType": "bool",
          "name": "",
          "type": "bool"
        }
      ],
      "stateMutability": "view",
      "type": "function"
    },
    {
      "inputs": [
        {
          "internalType": "address",
          "name": "_address",
          "type": "address"
        }
      ],
      "name": "greylistAddress",
      "outputs": [],
      "stateMutability": "nonpayable",
      "type": "function"
    },
    {
      "inputs": [],
      "name": "lastTimeYieldApplicable",
      "outputs": [
        {
          "internalType": "uint256",
          "name": "",
          "type": "uint256"
        }
      ],
      "stateMutability": "view",
      "type": "function"
    },
    {
      "inputs": [],
      "name": "lastUpdateTime",
      "outputs": [
        {
          "internalType": "uint256",
          "name": "",
          "type": "uint256"
        }
      ],
      "stateMutability": "view",
      "type": "function"
    },
    {
      "inputs": [
        {
          "internalType": "uint256",
          "name": "amount",
          "type": "uint256"
        }
      ],
      "name": "notifyRewardAmount",
      "outputs": [],
      "stateMutability": "nonpayable",
      "type": "function"
    },
    {
      "inputs": [],
      "name": "owner",
      "outputs": [
        {
          "internalType": "address",
          "name": "",
          "type": "address"
        }
      ],
      "stateMutability": "view",
      "type": "function"
    },
    {
      "inputs": [],
      "name": "periodFinish",
      "outputs": [
        {
          "internalType": "uint256",
          "name": "",
          "type": "uint256"
        }
      ],
      "stateMutability": "view",
      "type": "function"
    },
    {
      "inputs": [
        {
          "internalType": "address",
          "name": "tokenAddress",
          "type": "address"
        },
        {
          "internalType": "uint256",
          "name": "tokenAmount",
          "type": "uint256"
        }
      ],
      "name": "recoverERC20",
      "outputs": [],
      "stateMutability": "nonpayable",
      "type": "function"
    },
    {
      "inputs": [],
      "name": "renounceOwnership",
      "outputs": [],
      "stateMutability": "nonpayable",
      "type": "function"
    },
    {
      "inputs": [
        {
          "internalType": "address",
          "name": "",
          "type": "address"
        }
      ],
      "name": "reward_notifiers",
      "outputs": [
        {
          "internalType": "bool",
          "name": "",
          "type": "bool"
        }
      ],
      "stateMutability": "view",
      "type": "function"
    },
    {
      "inputs": [
        {
          "internalType": "bool",
          "name": "_yieldCollectionPaused",
          "type": "bool"
        }
      ],
      "name": "setPauses",
      "outputs": [],
      "stateMutability": "nonpayable",
      "type": "function"
    },
    {
      "inputs": [
        {
          "internalType": "uint256",
          "name": "newPeriod",
          "type": "uint256"
        },
        {
          "internalType": "bool",
          "name": "sync_too",
          "type": "bool"
        }
      ],
      "name": "setPeriodFinish",
      "outputs": [],
      "stateMutability": "nonpayable",
      "type": "function"
    },
    {
      "inputs": [
        {
          "internalType": "address",
          "name": "_new_timelock",
          "type": "address"
        }
      ],
      "name": "setTimelock",
      "outputs": [],
      "stateMutability": "nonpayable",
      "type": "function"
    },
    {
      "inputs": [
        {
          "internalType": "uint256",
          "name": "_yieldDuration",
          "type": "uint256"
        }
      ],
      "name": "setYieldDuration",
      "outputs": [],
      "stateMutability": "nonpayable",
      "type": "function"
    },
    {
      "inputs": [
        {
          "internalType": "uint256",
          "name": "_new_rate0",
          "type": "uint256"
        },
        {
          "internalType": "bool",
          "name": "sync_too",
          "type": "bool"
        }
      ],
      "name": "setYieldRate",
      "outputs": [],
      "stateMutability": "nonpayable",
      "type": "function"
    },
    {
      "inputs": [],
      "name": "sync",
      "outputs": [],
      "stateMutability": "nonpayable",
      "type": "function"
    },
    {
      "inputs": [],
      "name": "timelock_address",
      "outputs": [
        {
          "internalType": "address",
          "name": "",
          "type": "address"
        }
      ],
      "stateMutability": "view",
      "type": "function"
    },
    {
      "inputs": [
        {
          "internalType": "address",
          "name": "notifier_addr",
          "type": "address"
        }
      ],
      "name": "toggleRewardNotifier",
      "outputs": [],
      "stateMutability": "nonpayable",
      "type": "function"
    },
    {
      "inputs": [],
      "name": "totalVeUNOParticipating",
      "outputs": [
        {
          "internalType": "uint256",
          "name": "",
          "type": "uint256"
        }
      ],
      "stateMutability": "view",
      "type": "function"
    },
    {
      "inputs": [],
      "name": "totalVeUNOSupplyStored",
      "outputs": [
        {
          "internalType": "uint256",
          "name": "",
          "type": "uint256"
        }
      ],
      "stateMutability": "view",
      "type": "function"
    },
    {
      "inputs": [
        {
          "internalType": "address",
          "name": "newOwner",
          "type": "address"
        }
      ],
      "name": "transferOwnership",
      "outputs": [],
      "stateMutability": "nonpayable",
      "type": "function"
    },
    {
      "inputs": [
        {
          "internalType": "address",
          "name": "",
          "type": "address"
        }
      ],
      "name": "userIsInitialized",
      "outputs": [
        {
          "internalType": "bool",
          "name": "",
          "type": "bool"
        }
      ],
      "stateMutability": "view",
      "type": "function"
    },
    {
      "inputs": [
        {
          "internalType": "address",
          "name": "",
          "type": "address"
        }
      ],
      "name": "userVeUNOCheckpointed",
      "outputs": [
        {
          "internalType": "uint256",
          "name": "",
          "type": "uint256"
        }
      ],
      "stateMutability": "view",
      "type": "function"
    },
    {
      "inputs": [
        {
          "internalType": "address",
          "name": "",
          "type": "address"
        }
      ],
      "name": "userVeUNOEndpointCheckpointed",
      "outputs": [
        {
          "internalType": "uint256",
          "name": "",
          "type": "uint256"
        }
      ],
      "stateMutability": "view",
      "type": "function"
    },
    {
      "inputs": [
        {
          "internalType": "address",
          "name": "",
          "type": "address"
        }
      ],
      "name": "userYieldPerTokenPaid",
      "outputs": [
        {
          "internalType": "uint256",
          "name": "",
          "type": "uint256"
        }
      ],
      "stateMutability": "view",
      "type": "function"
    },
    {
      "inputs": [
        {
          "internalType": "address",
          "name": "to",
          "type": "address"
        }
      ],
      "name": "withdrawUNO",
      "outputs": [],
      "stateMutability": "nonpayable",
      "type": "function"
    },
    {
      "inputs": [],
      "name": "yieldCollectionPaused",
      "outputs": [
        {
          "internalType": "bool",
          "name": "",
          "type": "bool"
        }
      ],
      "stateMutability": "view",
      "type": "function"
    },
    {
      "inputs": [],
      "name": "yieldDuration",
      "outputs": [
        {
          "internalType": "uint256",
          "name": "",
          "type": "uint256"
        }
      ],
      "stateMutability": "view",
      "type": "function"
    },
    {
      "inputs": [],
      "name": "yieldPerVeUNO",
      "outputs": [
        {
          "internalType": "uint256",
          "name": "",
          "type": "uint256"
        }
      ],
      "stateMutability": "view",
      "type": "function"
    },
    {
      "inputs": [],
      "name": "yieldPerVeUNOStored",
      "outputs": [
        {
          "internalType": "uint256",
          "name": "",
          "type": "uint256"
        }
      ],
      "stateMutability": "view",
      "type": "function"
    },
    {
      "inputs": [],
      "name": "yieldRate",
      "outputs": [
        {
          "internalType": "uint256",
          "name": "",
          "type": "uint256"
        }
      ],
      "stateMutability": "view",
      "type": "function"
    },
    {
      "inputs": [
        {
          "internalType": "address",
          "name": "",
          "type": "address"
        }
      ],
      "name": "yields",
      "outputs": [
        {
          "internalType": "uint256",
          "name": "",
          "type": "uint256"
        }
      ],
      "stateMutability": "view",
      "type": "function"
    }
  ],
  "transactionHash": "0x8f5bbcc8ec5f5d44bd6518cc0fca664bb9c810a7c5efe367f4ab748e6aa2fb74",
  "args": [
    "0x3a554dc1EAc143FC4640b0294A342B4F9089FDE6",
    "0x7e47419EFE3E49f3E616965bFa96f089b2b0e574",
    "0xE55A92fa510e2d277E4cF947189D0523683D63EC"
  ],
  "numDeployments": 2,
  "solcInputHash": "297a954de108042d1b86aeb01d0c0982",
  "bytecode": "0x608060405262093a806009556000600b819055600e819055600f556015805460ff191690553480156200003157600080fd5b5060405162001cb638038062001cb6833981016040819052620000549162000143565b6200005f33620000d6565b6001808055600480546001600160a01b03199081166001600160a01b0396871690811790925560038054821690921790915560028054821693861693909317909255426007556005805490921692909316919091179055336000908152600a60205260409020805460ff191690911790556200018d565b600080546001600160a01b038381166001600160a01b0319831681178455604051919092169283917f8be0079c531659141344cd1fd0a4f28419497f9722a3daafe3b4186f6b6457e09190a35050565b80516001600160a01b03811681146200013e57600080fd5b919050565b6000806000606084860312156200015957600080fd5b620001648462000126565b9250620001746020850162000126565b9150620001846040850162000126565b90509250925092565b611b19806200019d6000396000f3fe608060405234801561001057600080fd5b50600436106102525760003560e01c806391519bda11610146578063c2c4c5c1116100c3578063e9218ff611610087578063e9218ff614610513578063ebe2b12b14610526578063eea4e9031461052f578063f2fde38b1461054f578063fc939bb114610562578063fff6cae91461056a57600080fd5b8063c2c4c5c1146104dd578063c8f33c91146104e5578063d0f53342146104ee578063dc6663c7146104f7578063e172cf211461050a57600080fd5b8063a4bc8dd51161010a578063a4bc8dd514610467578063a875f4721461048a578063ad1148cb146104aa578063b3679934146104b7578063bdacb303146104ca57600080fd5b806391519bda146103f357806392ff86b614610406578063941d9f651461042e578063948e25a2146104415780639f8a835a1461045457600080fd5b806350fe98ac116101d457806374ea0b981161019857806374ea0b98146103a15780637c262871146103b45780638980f11f146103bc5780638a90b823146103cf5780638da5cb5b146103e257600080fd5b806350fe98ac1461035f57806356d9fff31461037f578063647f15ae146103875780636999ac9314610390578063715018a61461039957600080fd5b806330f7bb381161021b57806330f7bb38146102e057806331ca208c146102e957806338359fc21461030c5780633c6b16ab1461033757806342c92f6e1461034c57600080fd5b80628cc2621461025757806314b305371461027d57806319aec6d2146102b05780631e74e7ce146102b8578063299a6435146102d8575b600080fd5b61026a610265366004611867565b610572565b6040519081526020015b60405180910390f35b6102a061028b366004611867565b60106020526000908152604090205460ff1681565b6040519015158152602001610274565b61026a61070b565b61026a6102c6366004611867565b60126020526000908152604090205481565b61026a610729565b61026a600e5481565b6102a06102f7366004611867565b60146020526000908152604090205460ff1681565b60045461031f906001600160a01b031681565b6040516001600160a01b039091168152602001610274565b61034a610345366004611882565b61076f565b005b61034a61035a366004611867565b6108a5565b61026a61036d366004611867565b600d6020526000908152604090205481565b61026a61090d565b61026a600b5481565b61026a60085481565b61034a61091b565b61034a6103af366004611882565b610981565b61026a610a96565b61034a6103ca36600461189b565b610c50565b61034a6103dd3660046118d3565b610cf1565b6000546001600160a01b031661031f565b61034a6104013660046118d3565b610d47565b610419610414366004611867565b610d99565b60408051928352602083019190915201610274565b61034a61043c366004611867565b610e62565b61034a61044f366004611903565b610eca565b61034a610462366004611867565b610f1c565b6102a0610475366004611867565b600a6020526000908152604090205460ff1681565b61026a610498366004611867565b600c6020526000908152604090205481565b6015546102a09060ff1681565b61034a6104c5366004611867565b610f28565b61034a6104d8366004611867565b610fe3565b61034a611044565b61026a60075481565b61026a600f5481565b60055461031f906001600160a01b031681565b61026a60095481565b60035461031f906001600160a01b031681565b61026a60065481565b61026a61053d366004611867565b60116020526000908152604090205481565b61034a61055d366004611867565b61104d565b61026a611115565b61034a611135565b6001600160a01b03811660009081526010602052604081205460ff1661059a57506000919050565b6000806105a684610d99565b9092509050620f424082610648576001600160a01b03851660009081526013602052604090205482116105de57506000949350505050565b6001600160a01b0385166000908152601360205260408120546106029084906111be565b6001600160a01b0387166000908152601360205260408120549192509061062a9042906111be565b90506106438161063d620f4240856111d1565b906111dd565b925050505b6001600160a01b0385166000908152601160205260408120548085111561067157809150610683565b610680600261063d87846111e9565b91505b506001600160a01b0386166000908152600d6020526040902054610701906106fb6106b9620f4240670de0b6b3a7640000611936565b6001600160a01b038a166000908152600c602052604090205461063d9087906106f5906106ee906106e8610729565b906111be565b88906111d1565b906111d1565b906111e9565b9695505050505050565b60006107246009546008546111d190919063ffffffff16565b905090565b6000600f546000141561073d5750600b5490565b610724610766600f5461063d670de0b6b3a76400006106f56008546106f56007546106e861090d565b600b54906111e9565b336000908152600a602052604090205460ff166107cc5760405162461bcd60e51b815260206004820152601660248201527514d95b99195c881b9bdd081dda1a5d195b1a5cdd195960521b60448201526064015b60405180910390fd5b6003546107e4906001600160a01b03163330846111f5565b6107ec611135565b600654421061080b576009546108039082906111dd565b60085561084e565b60065460009061081b90426111be565b90506000610834600854836111d190919063ffffffff16565b6009549091506108489061063d85846111e9565b60085550505b42600781905560095461086191906111e9565b6006556008546040805183815260208101929092527f6c07ee05dcf262f13abf9d87b846ee789d2f90fe991d495acd7d7fc109ee1f5591015b60405180910390a150565b6000546001600160a01b03163314806108c857506005546001600160a01b031633145b6108e45760405162461bcd60e51b81526004016107c390611955565b6001600160a01b03166000908152600a60205260409020805460ff19811660ff90911615179055565b600061072442600654611255565b6000546001600160a01b031633146109755760405162461bcd60e51b815260206004820181905260248201527f4f776e61626c653a2063616c6c6572206973206e6f7420746865206f776e657260448201526064016107c3565b61097f600061126b565b565b6000546001600160a01b03163314806109a457506005546001600160a01b031633145b6109c05760405162461bcd60e51b81526004016107c390611955565b60065415806109d0575060065442115b610a615760405162461bcd60e51b815260206004820152605660248201527f50726576696f7573207969656c6420706572696f64206d75737420626520636f60448201527f6d706c657465206265666f7265206368616e67696e67207468652064757261746064820152751a5bdb88199bdc881d1a19481b995dc81c195c9a5bd960521b608482015260a4016107c3565b60098190556040518181527fce653f06b9044b00e7d9d01b9b4228e84812092cb6a38371889bef19370d21f79060200161089a565b600060026001541415610aeb5760405162461bcd60e51b815260206004820152601f60248201527f5265656e7472616e637947756172643a207265656e7472616e742063616c6c0060448201526064016107c3565b600260015560155460ff1615610b435760405162461bcd60e51b815260206004820152601a60248201527f5969656c6420636f6c6c656374696f6e2069732070617573656400000000000060448201526064016107c3565b33610b4d816112bb565b3360009081526014602052604090205460ff1615610bad5760405162461bcd60e51b815260206004820152601b60248201527f4164647265737320686173206265656e20677265796c6973746564000000000060448201526064016107c3565b336000908152600d602052604090205491508115610c3657336000818152600d6020526040812055600454610bee916001600160a01b039091169084611498565b600454604080518481526001600160a01b03909216602083015233917f3998039806f6db7e5d83a5371638cc47dd2e9ae500d5d561d95ec6381f53e3cd910160405180910390a25b503360009081526013602052604090204290556001805590565b6000546001600160a01b0316331480610c7357506005546001600160a01b031633145b610c8f5760405162461bcd60e51b81526004016107c390611955565b610cab82610ca56000546001600160a01b031690565b83611498565b604080516001600160a01b0384168152602081018390527f55350610fe57096d8c0ffa30beede987326bccfcb0b4415804164d0dd50ce8b1910160405180910390a15050565b6000546001600160a01b0316331480610d1457506005546001600160a01b031633145b610d305760405162461bcd60e51b81526004016107c390611955565b60068290558015610d4357610d43611135565b5050565b6000546001600160a01b0316331480610d6a57506005546001600160a01b031633145b610d865760405162461bcd60e51b81526004016107c390611955565b60088290558015610d4357610d43611135565b6002546040516370a0823160e01b81526001600160a01b03838116600483015260009283928392909116906370a0823190602401602060405180830381865afa158015610dea573d6000803e3d6000fd5b505050506040513d601f19601f82011682018060405250810190610e0e9190611984565b6001600160a01b038516600090815260126020526040902054925090508115801590610e3a5750814210155b15610e485760009250610e5c565b814210610e585760009250610e5c565b8092505b50915091565b6000546001600160a01b0316331480610e8557506005546001600160a01b031633145b610ea15760405162461bcd60e51b81526004016107c390611955565b6001600160a01b03166000908152601460205260409020805460ff19811660ff90911615179055565b6000546001600160a01b0316331480610eed57506005546001600160a01b031633145b610f095760405162461bcd60e51b81526004016107c390611955565b6015805460ff1916911515919091179055565b610f25816112bb565b50565b6000546001600160a01b0316331480610f4b57506005546001600160a01b031633145b610f675760405162461bcd60e51b81526004016107c390611955565b600480546040516370a0823160e01b81523092810192909252610f25916001600160a01b0390911690839082906370a0823190602401602060405180830381865afa158015610fba573d6000803e3d6000fd5b505050506040513d601f19601f82011682018060405250810190610fde9190611984565b611498565b6000546001600160a01b031633148061100657506005546001600160a01b031633145b6110225760405162461bcd60e51b81526004016107c390611955565b600580546001600160a01b0319166001600160a01b0392909216919091179055565b61097f336112bb565b6000546001600160a01b031633146110a75760405162461bcd60e51b815260206004820181905260248201527f4f776e61626c653a2063616c6c6572206973206e6f7420746865206f776e657260448201526064016107c3565b6001600160a01b03811661110c5760405162461bcd60e51b815260206004820152602660248201527f4f776e61626c653a206e6577206f776e657220697320746865207a65726f206160448201526564647265737360d01b60648201526084016107c3565b610f258161126b565b6000610724600f5461063d620f4240600e546111d190919063ffffffff16565b61113d610729565b600b55600254604080516318160ddd60e01b815290516001600160a01b03909216916318160ddd916004808201926020929091908290030181865afa15801561118a573d6000803e3d6000fd5b505050506040513d601f19601f820116820180604052508101906111ae9190611984565b600f556111b961090d565b600755565b60006111ca828461199d565b9392505050565b60006111ca8284611936565b60006111ca82846119b4565b60006111ca82846119d6565b604080516001600160a01b0385811660248301528416604482015260648082018490528251808303909101815260849091019091526020810180516001600160e01b03166323b872dd60e01b17905261124f9085906115b3565b50505050565b600081831061126457816111ca565b5090919050565b600080546001600160a01b038381166001600160a01b0319831681178455604051919092169283917f8be0079c531659141344cd1fd0a4f28419497f9722a3daafe3b4186f6b6457e09190a35050565b6112c3611135565b6112cc8161168a565b6001600160a01b038181166000818152601160205260408082205460025491516370a0823160e01b815260048101949094529391929116906370a0823190602401602060405180830381865afa15801561132a573d6000803e3d6000fd5b505050506040513d601f19601f8201168201806040525081019061134e9190611984565b6001600160a01b03848116600081815260116020526040808220859055600254905163cbf9fe5f60e01b81526004810193909352939450929091169063cbf9fe5f906024016040805180830381865afa1580156113af573d6000803e3d6000fd5b505050506040513d601f19601f820116820180604052508101906113d391906119ee565b6020808201516001600160a01b03871660009081526012909252604090912055905082821061142157600061140883856111be565b600e5490915061141890826111e9565b600e5550611442565b600061142d84846111be565b600e5490915061143d90826111be565b600e55505b6001600160a01b03841660009081526010602052604090205460ff1661124f576001600160a01b0384166000908152601060209081526040808320805460ff191660011790556013909152902042905550505050565b604080516001600160a01b038481166024830152604480830185905283518084039091018152606490920183526020820180516001600160e01b031663a9059cbb60e01b17905291516000928392908716916114f49190611a77565b6000604051808303816000865af19150503d8060008114611531576040519150601f19603f3d011682016040523d82523d6000602084013e611536565b606091505b50915091508180156115605750805115806115605750808060200190518101906115609190611a93565b6115ac5760405162461bcd60e51b815260206004820152601f60248201527f5472616e7366657248656c7065723a205452414e534645525f4641494c45440060448201526064016107c3565b5050505050565b6000611608826040518060400160405280602081526020017f5361666545524332303a206c6f772d6c6576656c2063616c6c206661696c6564815250856001600160a01b03166116d39092919063ffffffff16565b80519091501561168557808060200190518101906116269190611a93565b6116855760405162461bcd60e51b815260206004820152602a60248201527f5361666545524332303a204552433230206f7065726174696f6e20646964206e6044820152691bdd081cdd58d8d9595960b21b60648201526084016107c3565b505050565b6001600160a01b03811615610f255760006116a482610572565b6001600160a01b0383166000908152600d6020908152604080832093909355600b54600c909152919020555050565b60606116e284846000856116ea565b949350505050565b60608247101561174b5760405162461bcd60e51b815260206004820152602660248201527f416464726573733a20696e73756666696369656e742062616c616e636520666f6044820152651c8818d85b1b60d21b60648201526084016107c3565b843b6117995760405162461bcd60e51b815260206004820152601d60248201527f416464726573733a2063616c6c20746f206e6f6e2d636f6e747261637400000060448201526064016107c3565b600080866001600160a01b031685876040516117b59190611a77565b60006040518083038185875af1925050503d80600081146117f2576040519150601f19603f3d011682016040523d82523d6000602084013e6117f7565b606091505b5091509150611807828286611812565b979650505050505050565b606083156118215750816111ca565b8251156118315782518084602001fd5b8160405162461bcd60e51b81526004016107c39190611ab0565b80356001600160a01b038116811461186257600080fd5b919050565b60006020828403121561187957600080fd5b6111ca8261184b565b60006020828403121561189457600080fd5b5035919050565b600080604083850312156118ae57600080fd5b6118b78361184b565b946020939093013593505050565b8015158114610f2557600080fd5b600080604083850312156118e657600080fd5b8235915060208301356118f8816118c5565b809150509250929050565b60006020828403121561191557600080fd5b81356111ca816118c5565b634e487b7160e01b600052601160045260246000fd5b600081600019048311821515161561195057611950611920565b500290565b6020808252601590820152744e6f74206f776e6572206f722074696d656c6f636b60581b604082015260600190565b60006020828403121561199657600080fd5b5051919050565b6000828210156119af576119af611920565b500390565b6000826119d157634e487b7160e01b600052601260045260246000fd5b500490565b600082198211156119e9576119e9611920565b500190565b600060408284031215611a0057600080fd5b6040516040810181811067ffffffffffffffff82111715611a3157634e487b7160e01b600052604160045260246000fd5b604052825181526020928301519281019290925250919050565b60005b83811015611a66578181015183820152602001611a4e565b8381111561124f5750506000910152565b60008251611a89818460208701611a4b565b9190910192915050565b600060208284031215611aa557600080fd5b81516111ca816118c5565b6020815260008251806020840152611acf816040850160208701611a4b565b601f01601f1916919091016040019291505056fea26469706673582212204284b799f98862cdc9e3850adc6b35257cebbe3a9e7aaefcc64728569270497964736f6c634300080a0033",
  "devdoc": {
    "kind": "dev",
    "methods": {
      "owner()": {
        "details": "Returns the address of the current owner."
      },
      "renounceOwnership()": {
        "details": "Leaves the contract without owner. It will not be possible to call `onlyOwner` functions anymore. Can only be called by the current owner. NOTE: Renouncing ownership will leave the contract without an owner, thereby removing any functionality that is only available to the owner."
      },
      "transferOwnership(address)": {
        "details": "Transfers ownership of the contract to a new account (`newOwner`). Can only be called by the current owner."
      }
    },
    "version": 1
  },
  "userdoc": {
    "kind": "user",
    "methods": {},
    "version": 1
  },
  "storageLayout": {
    "storage": [
      {
        "astId": 7,
        "contract": "contracts/apps/VeUnoDaoYieldDistributor.sol:VeUnoDaoYieldDistributor",
        "label": "_owner",
        "offset": 0,
        "slot": "0",
        "type": "t_address"
      },
      {
        "astId": 115,
        "contract": "contracts/apps/VeUnoDaoYieldDistributor.sol:VeUnoDaoYieldDistributor",
        "label": "_status",
        "offset": 0,
        "slot": "1",
        "type": "t_uint256"
      },
      {
        "astId": 4063,
        "contract": "contracts/apps/VeUnoDaoYieldDistributor.sol:VeUnoDaoYieldDistributor",
        "label": "veUNO",
        "offset": 0,
        "slot": "2",
        "type": "t_contract(IVotingEscrow)5077"
      },
      {
        "astId": 4066,
        "contract": "contracts/apps/VeUnoDaoYieldDistributor.sol:VeUnoDaoYieldDistributor",
        "label": "emittedToken",
        "offset": 0,
        "slot": "3",
        "type": "t_contract(ERC20)690"
      },
      {
        "astId": 4068,
        "contract": "contracts/apps/VeUnoDaoYieldDistributor.sol:VeUnoDaoYieldDistributor",
        "label": "emitted_token_address",
        "offset": 0,
        "slot": "4",
        "type": "t_address"
      },
      {
        "astId": 4070,
        "contract": "contracts/apps/VeUnoDaoYieldDistributor.sol:VeUnoDaoYieldDistributor",
        "label": "timelock_address",
        "offset": 0,
        "slot": "5",
        "type": "t_address"
      },
      {
        "astId": 4075,
        "contract": "contracts/apps/VeUnoDaoYieldDistributor.sol:VeUnoDaoYieldDistributor",
        "label": "periodFinish",
        "offset": 0,
        "slot": "6",
        "type": "t_uint256"
      },
      {
        "astId": 4077,
        "contract": "contracts/apps/VeUnoDaoYieldDistributor.sol:VeUnoDaoYieldDistributor",
        "label": "lastUpdateTime",
        "offset": 0,
        "slot": "7",
        "type": "t_uint256"
      },
      {
        "astId": 4079,
        "contract": "contracts/apps/VeUnoDaoYieldDistributor.sol:VeUnoDaoYieldDistributor",
        "label": "yieldRate",
        "offset": 0,
        "slot": "8",
        "type": "t_uint256"
      },
      {
        "astId": 4082,
        "contract": "contracts/apps/VeUnoDaoYieldDistributor.sol:VeUnoDaoYieldDistributor",
        "label": "yieldDuration",
        "offset": 0,
        "slot": "9",
        "type": "t_uint256"
      },
      {
        "astId": 4086,
        "contract": "contracts/apps/VeUnoDaoYieldDistributor.sol:VeUnoDaoYieldDistributor",
        "label": "reward_notifiers",
        "offset": 0,
        "slot": "10",
        "type": "t_mapping(t_address,t_bool)"
      },
      {
        "astId": 4089,
        "contract": "contracts/apps/VeUnoDaoYieldDistributor.sol:VeUnoDaoYieldDistributor",
        "label": "yieldPerVeUNOStored",
        "offset": 0,
        "slot": "11",
        "type": "t_uint256"
      },
      {
        "astId": 4093,
        "contract": "contracts/apps/VeUnoDaoYieldDistributor.sol:VeUnoDaoYieldDistributor",
        "label": "userYieldPerTokenPaid",
        "offset": 0,
        "slot": "12",
        "type": "t_mapping(t_address,t_uint256)"
      },
      {
        "astId": 4097,
        "contract": "contracts/apps/VeUnoDaoYieldDistributor.sol:VeUnoDaoYieldDistributor",
        "label": "yields",
        "offset": 0,
        "slot": "13",
        "type": "t_mapping(t_address,t_uint256)"
      },
      {
        "astId": 4100,
        "contract": "contracts/apps/VeUnoDaoYieldDistributor.sol:VeUnoDaoYieldDistributor",
        "label": "totalVeUNOParticipating",
        "offset": 0,
        "slot": "14",
        "type": "t_uint256"
      },
      {
        "astId": 4103,
        "contract": "contracts/apps/VeUnoDaoYieldDistributor.sol:VeUnoDaoYieldDistributor",
        "label": "totalVeUNOSupplyStored",
        "offset": 0,
        "slot": "15",
        "type": "t_uint256"
      },
      {
        "astId": 4107,
        "contract": "contracts/apps/VeUnoDaoYieldDistributor.sol:VeUnoDaoYieldDistributor",
        "label": "userIsInitialized",
        "offset": 0,
        "slot": "16",
        "type": "t_mapping(t_address,t_bool)"
      },
      {
        "astId": 4111,
        "contract": "contracts/apps/VeUnoDaoYieldDistributor.sol:VeUnoDaoYieldDistributor",
        "label": "userVeUNOCheckpointed",
        "offset": 0,
        "slot": "17",
        "type": "t_mapping(t_address,t_uint256)"
      },
      {
        "astId": 4115,
        "contract": "contracts/apps/VeUnoDaoYieldDistributor.sol:VeUnoDaoYieldDistributor",
        "label": "userVeUNOEndpointCheckpointed",
        "offset": 0,
        "slot": "18",
        "type": "t_mapping(t_address,t_uint256)"
      },
      {
        "astId": 4119,
        "contract": "contracts/apps/VeUnoDaoYieldDistributor.sol:VeUnoDaoYieldDistributor",
        "label": "lastRewardClaimTime",
        "offset": 0,
        "slot": "19",
        "type": "t_mapping(t_address,t_uint256)"
      },
      {
        "astId": 4123,
        "contract": "contracts/apps/VeUnoDaoYieldDistributor.sol:VeUnoDaoYieldDistributor",
        "label": "greylist",
        "offset": 0,
        "slot": "20",
        "type": "t_mapping(t_address,t_bool)"
      },
      {
        "astId": 4126,
        "contract": "contracts/apps/VeUnoDaoYieldDistributor.sol:VeUnoDaoYieldDistributor",
        "label": "yieldCollectionPaused",
        "offset": 0,
        "slot": "21",
        "type": "t_bool"
      }
    ],
    "types": {
      "t_address": {
        "encoding": "inplace",
        "label": "address",
        "numberOfBytes": "20"
      },
      "t_bool": {
        "encoding": "inplace",
        "label": "bool",
        "numberOfBytes": "1"
      },
      "t_contract(ERC20)690": {
        "encoding": "inplace",
        "label": "contract ERC20",
        "numberOfBytes": "20"
      },
      "t_contract(IVotingEscrow)5077": {
        "encoding": "inplace",
        "label": "contract IVotingEscrow",
        "numberOfBytes": "20"
      },
      "t_mapping(t_address,t_bool)": {
        "encoding": "mapping",
        "key": "t_address",
        "label": "mapping(address => bool)",
        "numberOfBytes": "32",
        "value": "t_bool"
      },
      "t_mapping(t_address,t_uint256)": {
        "encoding": "mapping",
        "key": "t_address",
        "label": "mapping(address => uint256)",
        "numberOfBytes": "32",
        "value": "t_uint256"
      },
      "t_uint256": {
        "encoding": "inplace",
        "label": "uint256",
        "numberOfBytes": "32"
      }
    }
  }
}